:020000040800F2
:10000000F0FF022069E80508D9E80508BD050208E7
:10001000D9E80508D9E80508D9E805080000000076
:10002000000000000000000000000000D9E8050802
:10003000D9E8050800000000D9E80508A5BB0108BB
:10004000D9E80508D9E80508D9E80508D9E8050878
:10005000D9E80508D9E805087DB00108A1B0010874
:10006000DDB0010819B1010855B10108D9E805084A
:10007000D9E80508D9E80508D9E80508D9E8050848
:10008000D9E80508D9E80508F1F20008D9E805081B
:10009000D9E80508D9E80508D9E8050891B10108AB
:1000A000D9E80508D9E80508D9E805081DBE000803
:1000B0002DBE00083DBE00084DBE0008C1C90008A5
:1000C00019C90008D9E80508D9E80508D9E80508DC
:1000D000D9E80508ADB8010845B90108DDB901083E
:1000E000CDB10108D9E80508D9E80508D9E805081F
:1000F000D9E80508D9E80508D9E80508D9E80508C8
:10010000D9E80508D9E805085DBE0008D9E8050862
:1001100075BA01080DBB010849F0000885F0000818
:10012000A9BF0008BDBF0008D1BF0008E5BF000897
:10013000F9BF0008D9E80508D9E80508D9E8050895
:10014000D9E80508D9E80508D9E805089D5D05083E
:100150000DC0000821C0000800000000D9E8050813
:10016000D9E80508D9E805080000000000000000F3
:10017000D9E80508D9E80508D9E805080000000015
:1001800000000000D9E80508D9E80508D9E8050805
:10019000D9E8050800000000000000000000000091
:1001A000000000000000000000000000D9E8050881
:1001B000D9E8050800000000D9E8050800000000A3
:1001C000000000000000000000000000000000002F
:1001D0000000000000000000D9E80508D9E8050883
:1001E000D9E80508B55C0508D9E80508D9E8050887
:1001F00035C0000849C000085DC0000871C0000893
:0C02000085C0000899C00008ADC00008CF
:0828000000C00F0800001008E1
:1080000010B5054C237833B9044B13B10448AFF3D2
:1080100000800123237010BD7816012000000000AD
:108020003024070808B5034B1BB103490348AFF3DD
:10803000008008BD000000007C16012030240708E5
:1080400010B50268047C11680223A340194208D0CD
:10805000044900240C704168086864F3000008605B
:10806000536010BD98160120026890F810C0136884
:10807000022101FA0CF10B42F0B408D11168082377
:1080800003FA0CF31942F0BC18BF53607047042385
:1080900003FA0CF3446951605360EFF311835022EB
:1080A00082F31288226C1168C90706D5DBB283F30C
:1080B0001188026890F810C0E0E7516889B279B978
:1080C000D4E90975AF421BD0A6692E44D66012D8F8
:1080D0002669751BADB25560A162002184F86C1051
:1080E000116841F00101DBB2116083F3118802686D
:1080F00090F810C0C2E77D1BADB25560A762ECE7F7
:10810000012284F86C20D1E730B5EAB18E464FEAFF
:10811000014C034600F1C005002419689A6841EA41
:108120000C0142EA0E029A60C3E900140C33AB4220
:10813000F3D1D0F8C030C0F8C44043EA0E03C0F811
:10814000C030C0F8C84030BD4FEA014E8C46E0E771
:10815000704700BF704700BF024B03EB4010407FE9
:10816000704700BF183E001070B5104ED6F80031B1
:10817000002B18DD3446002505E0D6F80031AB426F
:1081800004F120040FDD237F0135002BF5D0E068DA
:108190000028F2D0217D13F0A3F8D6F80031AB42CD
:1081A00004F12004EFDC012070BD00BF183E001078
:1081B0002DE9F0414668836938490324720004FAC6
:1081C00002F5DC6B91F804712C43DC6301215C6CDB
:1081D00001FA02F222435A649A6C4FB1C568B14069
:1081E00011439964002D57D02B68AA889A610AE040
:1081F0001036C568B14011439964002D4CD0AA884F
:108200002B6812049A6103F13F4303F57E039B0A36
:108210002349244A4E78D05C51F040FEAC882B684C
:108220007601C6F34116002C36D04FF0000C032720
:1082300001251FFA8CF0420014F0010F07FA02FE2C
:1082400005FA02F105FA00F00CF1010C22D0D3F886
:10825000008028EA0E08C3F80080D3F8008048EABE
:108260000108C3F80080D3F8048028EA00005860B1
:1082700058685860986820EA0E0098609868014332
:108280009960D96821EA0E01D960D96806FA02F22C
:108290000A43DA606408CCD1BDE8F081183E0010D2
:1082A000981601207C0F06084368826C10B49A610E
:1082B000EFF31182502383F312884168C46B0B687B
:1082C00023EA0403446C2343D2B20B6082F3118887
:1082D000D0E907418268036912681C605960D0E9DF
:1082E00009419C60D960B0F85C10D16200235DF850
:1082F000044B0376704700BF10B4EFF31182502394
:1083000083F312884168C46B0B6823EA0403046C8E
:108310002343D2B20B6082F31188D0E90B4182680B
:10832000036912681C605960D0E90D419C60D960F6
:108330000024B0F87C105462D1621A6801210A430B
:108340001A605DF8044B0176704700BF83681B68B4
:108350000022D9629A62596941F001015961196894
:1083600062F309211960196862F3061119601A682D
:1083700042F080021A607047074BD0F894105B6897
:10838000D0F8A0205B1A9A42B8BFC0F8A0300123F1
:1083900080F8CC3000207047001000E0B4224FF489
:1083A000EB7100234FF4A57C8280C180124A0370D8
:1083B000A0F802C0042104E00133082B0BD012F80E
:1083C000201C11F0800F02F12002F5D00B4A02EBC5
:1083D0004313197B00E000214FF4E17200234FF4B6
:1083E000877C01724281962144224372A0F80CC01E
:1083F000C181028243827047AA0F06087C0F0608DB
:108400004FF40063838170474FF4006383817047AA
:10841000704701207047012070472DE9F047DFF8D1
:108420008081D8F80450B8F80820B8F80E90C2EB54
:1084300025135200C2EBE502B8F90A506A4303FB68
:1084400003F5B8F90C302D135D43AD1305EBE225B0
:10845000B8F91230C8F820500E46A5F5FA31074693
:1084600081FB010C4FEAE37E03FB0CF200FB0E22C2
:10847000A3FB003E9644B8F9102082FB01421B0A80
:10848000120343EA0E6342EA145224031B1942EB1F
:108490002E2202F50042A3FB093E09FB02EE4FEA41
:1084A000EE734FEA6E0253EA6E0E4FF000046BD08B
:1084B000B8F918904FEAE97E09FB0CFC00FB0ECCE2
:1084C000A9FB00908444B8F9160080FB01E1480440
:1084D0004FEA4E4111EB0909D8F8241040EADE308A
:1084E0004CEB0000C1F5801C0CF0004AB8F91410E8
:1084F00014EB09044AEA5C0A4FEACC7C00EBC101A8
:1085000040F63549BCEB04006AEB010AA0FB090107
:1085100009FB0A1155F064FFB8F91E404FEA613EAD
:10852000430B43EAC14304FB0EF24FEAE47C03FB36
:108530000C2CA4FB0342624404FB0EFE03FB02EE80
:10854000A4FB0343B8F91C209E44640E44EACE14F5
:1085500014EB000C02FB01F34FEAE274814641EB9D
:108560006E6EA2FB092904FB00314944D40C44EA95
:1085700041341CEB0404B8F91A304EEBE141240AF3
:1085800044EA016404EB03140FB1240A3C6026B1F1
:1085900005EB850580352D123560BDE8F08700BFFD
:1085A000981601202DE9F74F524AD38E568E178F19
:1085B000CDE90001916A1B02C91A938E6EEB0E0E73
:1085C000A3FB010403FB0E44138EC00940EA446080
:1085D0001B04C018A6FB013506FB0E55D68D4FEACD
:1085E000132343EA05634FEAC6364FEAE41444F125
:1085F00000049B19A7FB012607FB0E664FEAD25227
:1086000042EA46224FEA252545F10005F61512F506
:10861000FA6C46F1000BBCF5FA6F7BF100074CDAFF
:10862000A2FB02784FF0050A02FB06F908EB4909A4
:10863000A7FB0A780AFB09884FEA570949EAC87973
:10864000BF08B0EB090047EA887764EB6804DB1BDE
:10865000294F65EBA805BC454FF0FF377BEB0707BB
:1086600020DA40F6AC57D21946F100065643A2FB79
:10867000027202EB46064FEAC608FA00BA1A48EA46
:10868000577866EB0808101844EB08044FF00B0805
:10869000A7FB087208FB06267F0847EAC677DB1BA4
:1086A00065EB660501FB0EFEA1FB011202EB4E0E0F
:1086B000C90F41EA4E01BCEB010C009A92B10D4A80
:1086C000D16BA1FB032301FB0535520D42EAC52204
:1086D000121A4FEA6555009B65EB0404D20B42EA7F
:1086E00044421A60019B0BB1C3F800C003B0BDE85F
:1086F000F08F00BF9816012024FAFFFF38B504461A
:10870000006A03681A7B82B9637E0BB9012038BD09
:10871000084D02232A46291D11F0E6FF687800F073
:108720000100607680F0010038BD1B6A002BEBD0A1
:10873000002038BD303C0010F8B50446006A0D4EEC
:108740000568637E2A7B371D7AB983B10223094A03
:10875000394611F0C9FF737803F00103637633B132
:10876000206A05682A7B002AEFD02A6AECE70120FC
:10877000F8BD00BF303C0010012343760020704755
:10878000D0E90A2108B543690B4443610AB10846A0
:108790009047002008BD00BF036A1B681B6A5B6826
:1087A0005B78024613F0010008BF5076704700BFA7
:1087B00070B5234C234A94B00546049204F1080294
:1087C0000592214A0992A4F108020A922A7E009495
:1087D00000239A42CDE90E3314BF05220422201D46
:1087E0000C922A6A06930B931093139301901193A2
:1087F000012310688DF80C3007938DF820308DF828
:1088000034308DF84830022302930E4654F074FC45
:108810002B7E93B1330E04F8073C063C320C330A2E
:1088200022706370A670286A694611F02BFF2B6ACC
:10883000186854F061FC14B070BD073CEEE700BF4F
:10884000403C0010998700087987000810B504465D
:1088500094B050220649684658F0DAFA206A694610
:1088600011F010FF236A186854F046FC14B010BDD4
:108870004410060882624161704700BF2DE9F84349
:108880000446006A00681F468846914654F034FC4E
:10889000237E002B38D065692648274E05230363C5
:1088A0002B0E73771E36B5702B0C2D0A3370757036
:1088B000D8F80030C363012FD9F800304364E36275
:1088C0002BD0022F26D10021D9F80420C16480F8D2
:1088D0004810D8F804100165134418498265012531
:1088E000E36280F85C500166124B617E206A03F1FE
:1088F0001402002914BF1946114611F0C3FEA36AE1
:108900009BB1E06ABDE8F8830A4865690C4E042310
:108910000363C8E70020BDE8F883084A80F8487080
:108920000023C0E913238365DEE7236A186854F047
:10893000E3FBE6E700000120303C001081870008DF
:108940004D3C0010704700BF00B583B041610192FB
:10895000049A0093826201236A4601A9FFF78EFF01
:1089600003B05DF804FB00BF04307047043070476B
:1089700010B4084C206C00EB400004EB001C4434A5
:1089800004EB0010DCF844406469A4465DF8044B35
:10899000604700BF98160120064B1A6C02EB42029A
:1089A00003F1440003EB021300EB02105B6C9B69C4
:1089B000184700BF98160120043070470D4B93F8FC
:1089C000A820D3F8A4100244D2B283F8A82093F8C8
:1089D000A82008441206C3F8A40005D593F8A820DF
:1089E00082F0800283F8A820034B012283F87820CC
:1089F000704700BF98160120000001202DE9F84FB4
:108A0000154FD7F8AC50ED0A20D00026DFF84CA067
:108A1000B14607F1B008D7F8B030AC196410D3F8FC
:108A200024B0C7F8D89010235246E1024046D847F8
:108A30000F280BDD094B03F1100253F8041B013121
:108A400007D19342F9D12546B542E4DCE802BDE8FE
:108A5000F88F661CF8E700BF98160120543C001000
:108A6000004870477C000120002070470048704794
:108A70008400012000207047004870478C000120CE
:108A8000002170B57220164D164C4FF0410C022398
:108A90000E4602E0844615F8010F5A1C04EB030E43
:108AA00014FA82F202338EF8E0C09BB21FFA81FC06
:108AB00082F8E06001310028ECD10CF1020C0A4888
:108AC000C4F8E4014FEA4C0C1FFA8CFC032384F831
:108AD000E0C084F8E130A4F8E0C100F5807070BD1A
:108AE000899406089816012078170120002170B596
:108AF0005420164D164C4FF0410C02230E4602E056
:108B0000844615F8010F5A1C04EB030E14FA82F286
:108B100002338EF8E0C09BB21FFA81FC82F8E0605D
:108B200001310028ECD10CF1020C0A48C4F8E40130
:108B30004FEA4C0C1FFA8CFC032384F8E0C084F845
:108B4000E130A4F8E0C100F5807070BD9194060892
:108B500098160120781701201F49D1F8E837D1F87D
:108B6000F0279B1801D11D4870471D4AD1F8EC171A
:108B700030B54FF0000E10467546B3F1204F4FEA66
:108B8000137C0CF130040EF1020E2ABF0CF1370CED
:108B9000847080F802C0BEF1100FC5704FEA031355
:108BA00000F10200E9D100200446B1F1204F4FEA64
:108BB000117303F1300C00F102002ABF373382F841
:108BC00012C093740828D4744FEA011102F1020212
:108BD000EBD1024830BD00BF00F0FF1F9400012020
:108BE0009C000120002170B56120164D164C4FF0FD
:108BF0004D0C02230E4602E0844615F8010F5A1C64
:108C000004EB030E14FA82F202338EF8E0C09BB23A
:108C10001FFA81FC82F8E06001310028ECD10CF1F0
:108C2000020C0A48C4F8E4014FEA4C0C1FFA8CFC11
:108C3000032384F8E0C084F8E130A4F8E0C100F533
:108C4000807070BDA5940608981601207817012041
:108C5000002170B56120164D164C4FF04D0C0223CB
:108C60000E4602E0844615F8010F5A1C04EB030E71
:108C700014FA82F202338EF8E0C09BB21FFA81FC34
:108C800082F8E06001310028ECD10CF1020C0A48B6
:108C9000C4F8E4014FEA4C0C1FFA8CFC032384F85F
:108CA000E0C084F8E130A4F8E0C100F5807070BD48
:108CB000BD940608981601207817012030B490F86A
:108CC0003A50036890F8381035BB03F50062012470
:108CD00004FA01FCD46924EA0C04D46103F510649D
:108CE00004EB41110C6865F3CF340C6090F89A41A5
:108CF00090F898114CBBD06901258D4020EA050001
:108D0000D0614FF4106202EB411100205A5864F315
:108D1000CF325A5030BC7047D3F81C484FF48032E1
:108D20008A4024EA020403F5306202EB4111C3F8E1
:108D30001C480C686FF3CF340C6090F89A4190F89F
:108D4000981103F50062002CD5D0D4694FF480301F
:108D5000884024EA00044FF4306000EB4111D461F4
:108D60005A586FF3CF325A50002030BC704700BFC2
:108D70000020704700207047002070470020704797
:108D800038B543685D6A05F5805304469A6A62B354
:108D900093F82C306A781BB394F83A00236894F85F
:108DA000381088B903F5106303EB41131968C90F34
:108DB00011D0196841F400111960022A4FF0010323
:108DC00084F8453013D038BD03F5306303EB41130D
:108DD0001968C90FEDD1186861F39E701860E8E753
:108DE000002AD9D101214CF07DFE6A78D4E705F53F
:108DF000815120461F22BDE8384050F095BB00BF8E
:108E0000194BD3F8E811D3F8EC218A1A322A15D875
:108E1000D3F800228A4200D37047D3F8F421F2B18C
:108E20001068928810B44469224218BF120432318B
:108E30005DF8044B8261C3F80012704793F8F0218B
:108E4000D3F8F41102F0010219B188882AB90A682E
:108E500090610022C3F8002270470004F7E7323126
:108E6000C3F80012704700BF9816012010B51C69A6
:108E700094420DD396468A188C469442996938BF1D
:108E8000A4EB0E0C71446246BDE8104057F0C0BF21
:108E900010BD00BF10B543691A6911686FF3000176
:108EA00011609A68B3F80CC011680468CA6822EAB5
:108EB0000C02CA60017C206808228A40024210D15C
:108EC0001048022290F8040102FA01F1616038B101
:108ED0001A7E012A06D1D3F8A4200132C3F8A420B7
:108EE00010BDFEE7D3F8A02018460132C3F8A02039
:108EF000FFF702FA826883891268D1680B43D36056
:108F000010BD00BF183E00100269C3682DE9F0478C
:108F100012EA03092AD005460E464FF000474FF0EB
:108F20000008B9FA89F327FA03F2D2431B3B2A61FE
:108F300009EA0209042B16D8DFE803F0332A221AC3
:108F40000300B36A002B35D003F1FF3A1FFA8AFA07
:108F5000C6F82880746A34B1236820465146984781
:108F60006468002CF8D1B9F1000FDAD1BDE8F087C0
:108F70007068A98E03689847B9F1000FD1D1F5E761
:108F8000B068298F03689847B9F1000FC9D1EDE7A0
:108F9000F068E96B036889B29847B9F1000FC0D156
:108FA000E4E73069296C036889B29847B9F1000F8A
:108FB000B7D1DBE7E96A1FFA81FACBE72DE9F04187
:108FC0002C4F07EB401898F81C300BB9BDE8F08126
:108FD0004C2303FB00730D4693F80A2188F8022006
:108FE000002183F80A110446460169F041FA88BB62
:108FF00007EB4410BD5369F02BFA3E4497F8043157
:10900000B26993B17168536F01248C4003F1C001C0
:10901000420010F4004F90B202D15A6822435A60C5
:109020000C339942F4D1BDE8F0817468536F04F1B8
:1090300010020124944003F1C001420010F4004FDB
:1090400090B202D15A6822435A600C339942F4D14B
:10905000BDE8F081084B93F8642202EB420203EB77
:10906000C203234493F81152002DC1D0012388F884
:109070000230BDE7183E0010981601202DE9F04F90
:10908000DFF820B39BF8044187B024B901242046BF
:1090900007B0BDE8F08FBD4BD3F8E85112F0CEFD1C
:1090A0009BF8A433002B00F08781B94AA2FB05325C
:1090B000B84B5209A3FB0213DB0803EB8303A2EBBB
:1090C0004303DAB20392DBF874230BF56B77821A51
:1090D0000BF5847507EB830A0BF28C6302920595FE
:1090E0000026994610E0284669F0E2F99BF8A4337F
:1090F0000136B34207F15C070AF15C0A09F1040981
:1091000005F14C0540F3DB80029A002A03DB2B6B50
:10911000934200F349814C2303FB06B393F83431A7
:1091200003F0FF020192002BDDD0AB68A9891A6819
:109130002B6C5B681FFA83FED368CEF1160E23EA10
:109140000103BEF1070FD360CDD9DBF894360133AC
:10915000CBF89436AB6C04939C4600225CF8044B2D
:10916000012190461BE0DCF80000B8F1140FA0EBE1
:1091700004031DDC13F1080448BF03F11704231195
:1091800008EB24180446581E013102FA03F30122A9
:1091900082408E4542EA03020CF1040C08D38E454E
:1091A000E1D8C8F11503DCF800404FF01508EAE7F4
:1091B000B8F1150F79D17848C2F38423C2F3441172
:1091C00000EB830300EB8101D3F81831D1F81811BB
:1091D0001B0243EA011302F01F0100EB8101C2F3FD
:1091E000C43200EB8202D1F81811D2F818210B43D7
:1091F00043EA023383EA132282EA121202F00F02D8
:109200000F2A52D140F6FF71B1EB131F4FEA131230
:1092100000F0CF80C2F308025B0B12FA03F344D0D4
:109220005A0802F5122202F5F8624FF6FF71B2FBFE
:10923000F3F293B28B4238D0A9F80C30032E4FF0E2
:10924000010389F80E3005DC504B93F865322D2B65
:1092500000F0978097F8583003998B4210D0DAF8D5
:1092600008203B689B1A3B60DAF830207B689B1A29
:109270007B600023CAF80830CAF8303087F85810ED
:109280003B6801333B60DAF808300133CAF8083034
:10929000019B002B7FF427AF7B6801337B60DAF8FA
:1092A00030300133CAF830301DE7DBF89036013337
:1092B000CBF89036002E5DD000230193CAE7002240
:1092C000CBF87423002B3FF4E1AE03EBC30203EBB6
:1092D0004203059A02EB8303117C906811F0020FA0
:1092E0004179006830D049000139C9B2062909D84E
:1092F000DFE801F01B162520110C0400016A41F47F
:10930000805101624C329342E6D1BFE6016A41F4DA
:1093100080610162F6E7016A41F480710162F1E760
:10932000016A41F004010162ECE7016A41F00101C8
:109330000162E7E7016A41F040010162E2E7016A88
:1093400041F010010162DDE701394900C9B2062987
:10935000D8D801A454F821F02B93000821930008D9
:109360003F93000835930008179300080D930008F9
:10937000FD92000804990948582257F049FD0196CA
:1093800068E7074B23F8162064E700BF9816012012
:109390001F85EB51CDCCCCCC7C0F0608D0440010FF
:1093A00000190120183E00100024204607B0BDE837
:1093B000F08F002213463FE7CBF8743367E600BF17
:1093C00038B569F089F8002800F09B81654B93F867
:1093D0001017002900F0C48093F87023002A40F091
:1093E000C380D3F81407046862F3C7140460B3F8A9
:1093F0001847C462046844F0800404604262C5688F
:10940000B3F82847012944EA0504C460A3F82827D3
:1094100000F0A680D3F82C07046862F3C714046038
:10942000B3F83047C462046844F0800404604262C8
:10943000C568B3F84047022944EA0504C460A3F8AC
:10944000402700F08D80D3F84407046862F3C71406
:109450000460B3F84847C462046844F080040460C0
:109460004262C568B3F85847032944EA0504C4605A
:10947000A3F8582774D0D3F85C07046862F3C714C4
:109480000460B3F86047C462046844F08004046078
:109490004262C568B3F87047042944EA0504C46011
:1094A000A3F870275CD0D3F87407046862F3C7147C
:1094B0000460B3F87847C462046844F08004046030
:1094C0004262C568B3F88847052944EA0504C460C8
:1094D000A3F8882744D0D3F88C07046862F3C71434
:1094E0000460B3F89047C462046844F080040460E8
:1094F0004262C568B3F8A047062944EA0504C4607F
:10950000A3F8A0272CD0D3F8A407046862F3C714EB
:109510000460B3F8A847C462046844F0800404609F
:109520004262C568B3F8B847072944EA0504C46035
:10953000A3F8B82714D0D3F8BC17086862F3C71093
:109540000860B3F8C007C862086840F0800008608F
:109550004A62CC68B3F8D0072043C860A3F8D0278C
:1095600038BD00BF183E0010D3F81C47D3F81427AD
:10957000B3F820076060906C4FF0030C6CF30C2084
:109580009064956C0D2060F304059564D56845F4EE
:109590008075D5602268012942F001022260DFD087
:1095A000D3F83447D3F82C27B3F838576560956C57
:1095B0006CF30C259564956C60F304059564D5688F
:1095C00045F48075D5602268022942F001022260CC
:1095D000C6D0D3F84C47D3F84427B3F8505765604A
:1095E000956C6CF30C259564956C60F3040595649B
:1095F000D56845F48075D5602268614542F0010266
:109600002260ADD0D3F86447D3F85C27B3F868572D
:109610006560956C6CF30C259564956C60F304059E
:109620009564D56845F48075D5602268042942F0B8
:109630000102226094D0D3F87C47D3F87427B3F8A2
:1096400080576560956C6CF30C259564956C60F3A0
:1096500004059564D56845F48075D56022680529B0
:1096600042F0010222603FF47BAFD3F89447D3F875
:109670008C27B3F898576560956C6CF30C2595644E
:10968000956C60F304059564D56845F48075D560E4
:109690002268062942F0010222603FF461AFD3F84C
:1096A000AC47D3F8A427B3F8B0576560956C6CF35A
:1096B0000C259564956C60F304059564D56845F4B4
:1096C0008075D5602268072942F0010222603FF4CC
:1096D00047AFD3F8C427B3F8C817D3F8BC375160E5
:1096E000996C6CF30C219964996C60F30401996492
:1096F000D96841F48071D960136843F001031360A5
:1097000038BD50F04FFB00287FF460AE38BD00BF7D
:109710002DE9F04168F0E0FE002837D01E4ED6F863
:10972000D457002D15DD002496F8048106F5FC6061
:109730002746B8F1000F21D0037E012B21D002690A
:109740001368013443F00103AC4200F1AC00136034
:10975000EFD112F073FAD6F8DC47C6F8D807002C20
:109760000ADD0E4B03EBC40419689A88C8680833F5
:109770000243A342CA60F7D1BDE8F081FEF794FD31
:10978000DDE780F89C70FEF78FFDD8E750F00AFB0C
:109790000028C3D1BDE8F081183E0010A848001091
:1097A00010B5044656F08AF881B22046BDE8104054
:1097B00004E400BF2DE9F04FC44C94F804B189B023
:1097C000BBF1000F1DD1D4F8D437002B15DD0025D7
:1097D000BF48294603691A686FF300021A60436F95
:1097E00003F1C00259600C339A42FBD1D4F8D4374C
:1097F0000135AB4200F1AC00ECDC012009B0BDE862
:10980000F08FB44ED6F8E85112F018FAD4F8B03A06
:10981000D4F8D8271433801AB0EB430FC0F2AF81CD
:10982000D4F800310193AC4BA3FB0523AB4A5B0991
:10983000A2FB032CD4F8942600924FEADC0C96F895
:10984000652206920CEB8C0C06F51A72A3EB4C0CFD
:109850000792D4F89026049200235FFA8CF204F564
:109860006B7E059303920EEB8C0C04F28C6A2646F9
:1098700002931F46019BBB4240F30281B1697368AA
:109880000A6998005368D1F898201FFA83F8A2EB70
:109890000808D1F8943000F1085008F1806500EB19
:1098A0004310393D00EB851501468D4240F2DC80C6
:1098B0000A6801F58073002A00F054810A6C002ABE
:1098C00000F05381D1F88020002A00F05181D1F8B6
:1098D000C0201946002AE8D19D4240F2C580181ADE
:1098E000A8EBA010452828BF452003EB80110020DD
:1098F0009946054680460DE01A6C002A40F08480A7
:10990000D3F88020002A40F0AB80D3F8C02003F5C4
:1099100080732AB9994205D91A68002AECD04033DD
:10992000994274D84046112840F29E80C8F1150330
:10993000002BC0F2D98000F02C810121C8F1140263
:1099400001FA02F205FA03F365481343C3F3C43284
:1099500000EB8202D2F8981103F01F0200EB8202A2
:10996000D2F8982142EA0132C3F3441100EB81019D
:10997000C3F3842300EB8303D1F89811D3F8983113
:1099800042EA011242EA032383EA132282EA121214
:1099900002F00F020F2A40F0A780B3F5803F80F05D
:1099A000A38040F6FF71B1EB131F4FEA131200F0D2
:1099B000EA80C2F308025B0B12FA03F300F0948012
:1099C000590801F5122101F5F861B1FBF3F14FF6E9
:1099D000FE73994248D0009B013300934FF6FF730A
:1099E000994200F084808BB2AAF80C30032F4FF01C
:1099F00001038AF80E3000F38080069B2D2B7CD16A
:109A0000079B23F8171078E0803399428AD9A3EB9B
:109A100009029211501C334A82FB0092A2EBE072C1
:109A2000012AB8BF0122954001209044013A00FA72
:109A300002F21543184602687AB3026C002A00F05D
:109A40009A80D0F88020002A00F09780D0F8C020BB
:109A500000F5807012B38142EDD89946034659E76C
:109A6000C0335DE7CDF808B00137082F0EF15C0E6A
:109A70000CF15C0C0AF1040A06F120067FF4FAAE40
:109A8000029B13B1009BC4F89436059B002B3FF456
:109A90009AAE049BC4F8903695E640308142DCD9FA
:109AA000C31A9B115A1C0F4B83FB0293A3EBE27367
:109AB000012BB8BF01239D4098440122013B02FACB
:109AC00003F31D4303469946034623E7183E00105F
:109AD000F8450010981601201F85EB51CDCCCCCC59
:109AE0007C0F060856555555009B01330093049B87
:109AF0000133CDE9043B4FF6FF719EF858300398CF
:109B0000834214D0DCF80820DEF800309B1ACEF82F
:109B10000030DCF83020DEF804309B1ACEF8043038
:109B20000023CCF80830CCF830308EF85800DEF83E
:109B300000300133CEF80030DCF808300133CCF8C7
:109B400008304FF6FF7399428CD1DEF80430CDF81F
:109B500008B00133CEF80430DCF830300133CCF8F3
:109B6000303081E701F14003B6E601F18003B3E64E
:109B700001F1C003B0E6803090E7C0308EE70020EE
:109B800009B0BDE8F08F009B013300930023194614
:109B90002AE71349C5F3C43301EB83030846D3F81E
:109BA000982105F01F0301EB8303D3F8983143EAB2
:109BB0000233C5F3441201EB8202C5F38421D2F8CB
:109BC000982100EB810143EA0213D1F8982143EA7E
:109BD000022383EA132282EA121202F00F02D9E66C
:109BE0007C0F0608F0B58468617901394900C9B273
:109BF000054687B02068072907D8DFE801F05C0632
:109C00005F06620665040A23436703686FF3000377
:109C100003600023049302930093012303930193B1
:109C2000062252F0FBFD63792268013B5B00DBB248
:109C3000062B0DD8DFE803F0046B4B7054665D0013
:109C4000136A43F001031362936943F008039361BD
:109C5000207938B9AB681A68136843F001031360C0
:109C600007B0F0BD0609013E042E00F00F001DD81C
:109C70002C4F07EB4603B3F8181241FA00F3DB0749
:109C800014D5012303FA00F0013808403E4454F093
:109C90000FFC96F824321844234B03EBC0005422E7
:109CA000C280227A0A2111F075FB2268536C43F4BA
:109CB00000435364CEE70A234363A6E70A23836382
:109CC000A3E70A23C363A0E70A2303649DE7136A9B
:109CD00043F010031362936943F400639361B7E7A1
:109CE000136A43F480731362D36943F00803D361AA
:109CF000AEE7136A43F480531362D36943F40063FD
:109D0000D361A5E7136A43F480631362A0E7136A83
:109D100043F0040313629BE7136A43F040031362AA
:109D200096E700BF7C0F06080819012010B504460D
:109D3000806982B090F8FC1006236A46103010F05B
:109D4000F3F958B1BDF80010BDF80220BDF8043099
:109D500049BA52BA5BBAE1812282638202B010BD75
:109D600010B582B090F8FD10044606236A46103004
:109D700010F0DAF970B1BDF80010BDF80220BDF89E
:109D8000043049BA52BA5BBAA4F88010A4F8822011
:109D9000A4F8843002B010BD38B5F521054610F0A6
:109DA0005FFD70281AD007D8422819D0472819D04B
:109DB000122819D000240FE0AC2817D005D800F0E5
:109DC000FD03712BF6D1062402E0AF28F2D109245D
:109DD000074810F09DFDA880204638BD0524F7E710
:109DE0000C24F5E70D24F3E70824F1E70724EFE757
:109DF000002D31012DE9F0430546006A354C00681D
:109E000095B00E469146984653F076F9324B04933E
:109E100004F13C03009304F140030193297E0223E3
:109E2000029304F13402012300278DF80C300592CF
:109E30000697002936D08DF834308DF84830CDE9BA
:109E40000977330ECDE90E77CDE9107784F83530F8
:109E50000523CDF82C908DF82070CDF83080139725
:109E600036340793330C1D4F2370330A6370A6708A
:109E7000D7F878042C6A10F04BFD6B7EA08033BBC2
:109E800005A9204610F0FEFB2B6A186853F034F940
:109E9000D7F87C0410F03CFD2B6A9880404615B042
:109EA000BDE8F0838DF834308DF848300423CDE9D7
:109EB0000911CDE90E11CDE91011CDF82C908DF8D6
:109EC0002010CDF83080139135340793CAE76946E6
:109ED000D7E700BF303C0010998700089816012092
:109EE00010B500F10C0470220021204610F09CFCFB
:109EF00020220121204610F097FC0022022120465A
:109F000010F092FC642015F03BF9012010BD10B553
:109F100000F10C04C06853F01DF901220B2120460A
:109F200010F082FC20B11D220921204610F07CFC9B
:109F300000F0010010BD10B500F10C04C06853F032
:109F400009F900222121204610F06EFCFC2220217C
:109F5000204610F069FC40222421204610F064FCC9
:109F60000C222321204610F05FFC002222212046F3
:109F700010F05AFC642015F003F9012010BD2DE902
:109F8000F04144F23B33054600F11006A0F8FC30E6
:109F900090F8D100A0B30709013F042F00F00F0093
:109FA00000F29A80DFF84C8108EB4703B3F81822DF
:109FB00042FA00F414F001040FD0012303FA00F078
:109FC00001381040474454F073FA97F82432464C55
:109FD000184404EBC0042623E3802946434B41F890
:109FE0000C3F204650F0F6FA54B1A388B3FA83F23E
:109FF0004FF00043D34003D03D490A6813430B6040
:10A0000095F88830072B69D195F8CD300224002BC4
:10A0100066D1274680226B21304610F005FC642073
:10A0200015F0AEF807226821304610F0FDFB6420E1
:10A0300015F0A6F800226B21304610F0F5FB6420E5
:10A0400015F09EF801226B21304610F0EDFB0F2039
:10A0500015F096F8FA001B21304610F0E5FB0F20B2
:10A0600015F08EF8E2001C21304610F0DDFB0F20C9
:10A0700015F086F895F88B30052B33D895F8CE304F
:10A08000032B2FD195F8D33003F0FB03022B0CBF29
:10A09000002207221A21304610F0C6FB0F2015F0CF
:10A0A0006FF895F8D0201921304610F0BDFB6420E0
:10A0B00015F066F810223721304610F0B5FB0F205E
:10A0C00015F05EF830460122382110F0ADFBBDE8F6
:10A0D000F0410F2015F054B800247EE7032498E7E0
:10A0E000032797E70022D5E708190120D1D60008F9
:10A0F000003C01407C0F060810B50446FFF73FFF07
:10A100001022A0186A2110F037FB642015F038F8EF
:10A11000044810F0FDFBA082BDE81040012014F0BF
:10A120006BBE00BF002D31013122F42151F00EBD74
:10A1300010B50E4C94F8B6304BB10C300C4A0623D7
:10A14000032153F0C7F8002084F8B60010BD094B76
:10A15000B3F8802452BA0A80B3F8822452BA8A80B3
:10A16000B3F884345BBA4B800120EDE70000012096
:10A17000181B01209816012010B5174C94F886344E
:10A18000012B00F10C000CD0022B17D0012304F29C
:10A190008742062153F09EF8012384F8863400207C
:10A1A00010BD94F8873413F00403F6D0062304F5A9
:10A1B0009162002153F08EF80223EEE7B4F8883460
:10A1C0000B80B4F88A344B80B4F88C348B80002335
:10A1D00084F886340120E3E79816012010B5134C6B
:10A1E00094F8B7304BB10C30114A0623282153F0B4
:10A1F00071F8002084F8B70010BD0E4AB2F98E3411
:10A20000002BB8BF03339B100B80B2F99034002BA6
:10A21000B8BF03339B104B80B2F99234002BB8BF08
:10A2200003339B108B800120E4E700BF0000012076
:10A23000261B01209816012010B50446006851F035
:10A24000BBFB38B92046044A0623F72153F042F8F5
:10A25000012010BD0020FCE7CC48001008B50068C4
:10A2600051F0AAFBD8B90F4A0F4992F8B53A92F8C3
:10A27000B40A1B0143EA003392F8B60A43EA10130A
:10A280004B6292F8B83A92F8B70A92F8B92A1B01D1
:10A2900043EA003343EA12134B60012008BD00205B
:10A2A000FCE700BF183E00109816012008B50068B2
:10A2B00051F082FB70B9084A92F8BD3A92F8BC1A84
:10A2C00092F8BE2A1B0243EA01431343034A0120CA
:10A2D000936208BD0020FCE7183E0010981601208C
:10A2E00008B5006851F068FB70B9084A92F8BD3AA9
:10A2F00092F8BC1A92F8BE2A1B0243EA01431343A8
:10A30000034A0120D36308BD0020FCE7183E00107B
:10A3100098160120582151F067BB482151F064BBC9
:10A3200010B50446006851F047FB014690B9236818
:10A330001A78022A08D1196A21B9074A032320464C
:10A3400010F04CF9012006E0034A0323204652F0A6
:10A35000C1FFF7E7002010BDD4480010E0E700BFC0
:10A3600008B590F82430012B18BF012000D008BD9B
:10A37000006A52F0C5FEC04300F0010008BD00BFF6
:10A3800038B50C4D044694F82430012B03D000233B
:10A39000E361012038BD206A52F0B2FEC04310F0E4
:10A3A0000100F4D1D5F8E831E2699B1A002BEADB11
:10A3B00038BD00BF981601202DE9F043614D91B0E2
:10A3C00004460F46164694F8241001292CD0002389
:10A3D000E361206A062253F02DFB0123637695F892
:10A3E0009434002B3FD1D7F80090D5F89884376883
:10A3F00094F82430012B26D00022012BE26170D08A
:10A40000D5F8E831A26A0233E3613068D5F89834B0
:10A410000121034485F89414C5F898340AB1904793
:10A42000306811B0BDE8F083206A52F069FEC107C0
:10A4300040F18580D5F8E831E2699B1A002BC2DB38
:10A4400094F82410C5E7206A52F05AFEC20773D56B
:10A45000D5F8E831E2699B1A002BC9DB94F8243067
:10A46000012BCDD13DE0D5F898348DF80230C3F3FF
:10A470000223D7F800808DF80130376884238DF8E7
:10A48000003094F82430012B1BD00022012BE26114
:10A49000B6D10897276A8DF824308DF8383000231C
:10A4A000CDE90A33CDE90C33CDF8188001A9029328
:10A4B0008DF81030059307930F933846CDF804D0EC
:10A4C0002FE0206A52F01CFEC30732D5D5F8E831E0
:10A4D000E2699B1A002BD4DB94F82430012B8FD136
:10A4E000D7E700220897CDE90A22276A8DF8028073
:10A4F000CDE90C22C8F302288DF824308DF83830CD
:10A500000223CDF818908DF80180CDF804D0029286
:10A510008DF810200592079201A90F928DF8003056
:10A5200038460323039310F0ADF8386852F0E4FD89
:10A5300066E794F82430A8E794F824305CE794F8B0
:10A54000241044E79816012033B910B51C46836ADD
:10A5500020469847204610BD2EE700BF70B5194D24
:10A5600004460E4694F82410012910D00023E3611C
:10A570000622206A53F05EFA94F8243001229342B6
:10A58000627612D0D5F8E8310F33E36170BD206AEE
:10A5900052F0B6FDC30712D5D5F8E831E2699B1A2F
:10A5A000002BDFDB94F82410E2E7206AF20AD821BE
:10A5B00053F0F6F9D5F8E8310F33E36170BD94F844
:10A5C0002410D3E7981601208388002B5BD02DE957
:10A5D000F04F00262E4D8DB0044637464FF006084A
:10A5E0004FF0010994F824A0BAF1010F14D0BAF188
:10A5F000010FD4F820B0E7618DF8078020D084F8EF
:10A600001990D5F8E831A28801360F33B242E361E0
:10A61000E8D80DB0BDE8F08F206A52F071FDC30795
:10A6200032D5D5F8E831E2699B1A002BDADB94F8D1
:10A6300024A0D4F820B08DF80780BAF1010FDED144
:10A640000DF1070302A958460293CDE9037ACDE93B
:10A650000677CDE908778DF814A08DF828A00B9720
:10A6600010F010F8DBF8000052F046FD94F82430AA
:10A6700084F819A0012BC4D17204206AD20AD8210F
:10A6800053F08EF9BDE7704794F824A0AFE700BF00
:10A690009816012070B51E4D95F8943423B1D5F865
:10A6A0009834C3F30A0303B170BDD5F89C64194B09
:10A6B000F60A0446C3F8B86094F82430012B0FD092
:10A6C0000022E261012B19D0D5F8E831D5F89824A1
:10A6D000C5F89C2402330021E36185F8941470BD11
:10A6E000206A52F00DFDC3070ED5D5F8E831E269B6
:10A6F0009B1A002BE0DB94F82430E3E7206A324613
:10A70000102153F04DF9DFE794F82430D8E700BF6B
:10A71000981601200000012070B52C4D826295F83A
:10A72000943423B1D5F898348B4205D170BDC5F867
:10A730009814C5F89C1470BD044694F8241001299F
:10A7400029D00023E361206A062253F073F9012324
:10A75000D5F89C64637694F82430012B0BD000224A
:10A76000012BE26125D0D5F8E83100220233E36104
:10A7700085F8942470BD206A52F0C2FCC3071ED530
:10A78000D5F8E831E2699B1A002BE4DB94F8243019
:10A79000012BE8D10DE0206A52F0B2FCC20711D5BE
:10A7A000D5F8E831E2699B1A002BC6DB94F8241037
:10A7B000C9E7206AF20A102153F0F2F8D3E794F8BF
:10A7C0002430CCE794F82410BBE700BF9816012092
:10A7D00010B582B004460192049A0093FFF79CFFE3
:10A7E0006A4601A92046FFF7E7FD2046FFF752FF22
:10A7F00002B010BD70B5194D95F8943403B970BD11
:10A80000D5F89C64164BF60A0446C3F8B86094F871
:10A810002430012B0BD00022E261012B15D0D5F89A
:10A82000E83100220233E36185F8942470BD206A88
:10A8300052F066FCC3070ED5D5F8E831E2699B1AE1
:10A84000002BE4DB94F82430E7E7206A324610213D
:10A8500053F0A6F8E3E794F82430DCE798160120DB
:10A860000000012038B5044640254FF4007300680D
:10A87000256404F1380163874AF0B2FF40F20123F6
:10A88000C4F8A051A4F89A3104F5CC7120684AF0BC
:10A89000A7FF63685D6A07222A80002305F58052BE
:10A8A00021686B60C2E9103393640B69012262F383
:10A8B0008A130B610A69094B42F020020A6101E028
:10A8C000013B02D00A699206FAD420461F2205F500
:10A8D00081514EF029FE002038BD00BF420D03001B
:10A8E0004368234A70B55D6A05F580530446D96410
:10A8F0001A6407232B7005F582520D2381214BF03A
:10A900004DF8266894F8982106F5306303EB42135E
:10A9100005F581551F22C4E96B520021D4F8A0210E
:10A92000C4F8B411186902F11E01B1FBF2F101FB88
:10A9300002F262F3120018611A6961F3DC421A61D3
:10A9400094F89B21012A0AD1D6F8082812F4807FB6
:10A950001A680CBF42F0005242F080521A601A6826
:10A9600042F080621A601A6842F000421A6070BDBC
:10A9700055534253F8B50B78426813F060030D4607
:10A980000446516A32D0202B2BD16B78FE2B4BD052
:10A99000FF2B26D140F207130B80056800234B6084
:10A9A0002B69012262F38A132B612A69734B42F0EF
:10A9B00020022A6101E0013B02D028698006FAD416
:10A9C000204601F581511F224EF0AEFD00230422E6
:10A9D00084F8E02220461A4619464AF0DFFF00209C
:10A9E000F8BD20464BF0AEF80020F8BD6B78013B77
:10A9F0000A2BF9D801A252F823F000BF3FAA0008A1
:10AA0000E9A90008E9A90008E9A90008E9A90008DE
:10AA1000E3A90008E9A90008E9A90008E9A90008D4
:10AA2000E3AA0008D9AA000801230221436380F8A1
:10AA3000E012534A00214AF0B1FF0020F8BDAA8875
:10AA40004FFA82FCBCF1000FD1B257DB2C2303FB81
:10AA5000010303F5B6739E7820681B78002E60D141
:10AA6000D0F81C784FF0010E0EFA03FE27EA0E070D
:10AA700000F5106E0EEB4313C0F81C781F6866F3E8
:10AA8000CF371F6012F080023FD001F07F0151F0FC
:10AA9000B3FEAA882068D3B212065ED42C2101FB33
:10AAA0000342012302F5B67182F86E3140238B60B8
:10AAB0000223CB704AF094FE63685E6A7378022BBF
:10AAC00055D095F90420002A8EDA012B8CD0012173
:10AAD0002046FFF705FF87E701F580516B88CB61C2
:10AAE00082E70123022001F5805284F8E0026363CB
:10AAF0001C32002120464AF051FF75E701F07F0328
:10AB00002C2000FB03430C33A5E7BCF1000F1BDB3B
:10AB10002C2303FB0142012302F5B67182F86E314A
:10AB2000C4E7D0F81C684FF4803E0EFA03FE26EA14
:10AB30000E0600F5306E0EEB4313C0F81C681E685D
:10AB40006FF3CF361E609DE701F07F012C2303FBDE
:10AB500001463146B2730C31A8E703F07F032C2184
:10AB600001FB0342002302F10C0193739EE7812154
:10AB700020464AF0B7FF0023737035E7420D03000B
:10AB8000484D01202DE9F047089F884615460021D1
:10AB9000202204461E4656F049F94FB13B68E38136
:10ABA0001B0C23827B687A89E3821B0C62822383DD
:10ABB000404652F08FFFEB0619D4431EB8B108EBA4
:10ABC000000701E0013B12D317F801CDBCF12E0FB5
:10ABD000F8D1C01A421E032AA8BF0322082B03F192
:10ABE000010AA8BF08239146C2441A4606E0082875
:10ABF0000246C246A8BF08224FF000094FF020339A
:10AC000041462360636004F10807204656F000F9CE
:10AC1000174B23815146BB704A46384656F0F8F828
:10AC2000611EE31D11F801CFACF1610EBEF1190FE9
:10AC30009CBFACF1200C81F800C08B42F2D13846A9
:10AC400004F10B0110F8013BA3F16102192A9CBF2A
:10AC5000203B00F8013C8842F4D118232373330CC5
:10AC6000A382E572099B6683E361BDE8F08700BFBC
:10AC70002020200043682DE9F04F5C6A04F5805ADB
:10AC800005469AF82F008BB05A285CD8DFE810F000
:10AC900093005B005B006B005B005B005B005B0094
:10ACA0005B005B005B005B005B005B005B005B00CC
:10ACB0005B005B0080005B005B005B005B005B0097
:10ACC0005B005B00C80066005B005B0066005B0029
:10ACD0005B005B005B006F015B00CE005B005B0014
:10ACE000EE005B00BB005B005B005B005B0099005B
:10ACF0005B005B005B005B005B005B005B005B007C
:10AD00005B005B005B005B005B005B005B005B006B
:10AD10005B005B005B005B005B005B005B005B005B
:10AD20005B005B005B005B005B005B005B005B004B
:10AD30005B005B005B005B005B005B005B005B003B
:10AD40005B005B00B300B24B0521202283F8BE10EC
:10AD500083F8CC2001200BB0BDE8F08F0020A0616B
:10AD60000BB0BDE8F08FAB4804F12E0200F11203E6
:10AD700013F8011D02F8011D8342F9D1DAF82830D9
:10AD8000112B00F21D81A36100200BB0BDE8F08FF4
:10AD90009AF83030DB0740F13D8305239E49A361DB
:10ADA00003F11B0214440B4413F8012D04F801298C
:10ADB0008B42F9D1E8E7DAF82830002BC3D1A36140
:10ADC000C9E79AF8300010F0020040F01A83DAF870
:10ADD00031309AF82D101BBA2361BAF836200231AF
:10ADE00052BA54F8211092B213448B42626100F2BD
:10ADF000FC80A061AFE7002008224FF4C063C4E9E3
:10AE000006232062A7E72378072B00F0C782804B38
:10AE100004213A2283F8BE1083F8CC2001209AE75F
:10AE200000200823C4E90630206294E77B4B9AF89F
:10AE30002D20D3F8B01404EB82024B1E4FF40070A7
:10AE4000C2E90210190E1A0C002021776277190A44
:10AE50000222E3770823A17784F8200084F82100F8
:10AE600084F8222084F82300A36174E72378072B59
:10AE700000F05A82D4E904630493049A4FF4805397
:10AE80009A42A361C0F0A080644A0493184604F17A
:10AE90001C01D2F8E831C2F8EC31760A1746059168
:10AEA000099008239A19059BCDF820A0CDE9064505
:10AEB00003F1200903F5FE7B924622E0002E00F00C
:10AEC000AF80D7F8BC34B34200F02E81D7F8B83445
:10AED000B34200F06181D7F8C034D7F8C414B3424C
:10AEE00000F28C80B14200F2A282711A20464EF02C
:10AEF000C9FA0136564509F500790BF5007B00F0DB
:10AF0000F780D7F8C824B242A9F12004D6D8D7F8E0
:10AF1000D854B21AD30802F007082A6B02339342BE
:10AF200002D3AA6B93420BD92946184603934EF0DD
:10AF300079FA039B0546002800F09782C7F8D804E9
:10AF40002A79002A40F09A81AA6A9446002A00F0E1
:10AF500085822A6B9B1AEA6808EBC303204602EB42
:10AF600043224FF400712B466446A047C1E79AF88C
:10AF70002D202A4B04EB8202D3F8B054002008267F
:10AF80006B1E20776077A077E67795604FF40075A9
:10AF9000D56002210C2284F8233084F8241084F830
:10AFA0002610A261190E1A0CF34084F8250084F8CB
:10AFB000270084F8201084F8212084F82230CAE683
:10AFC0001223A3610020C6E6144B1F46D3F8E831D4
:10AFD000C7F8EC3104F11C01530A4FEA56260591DB
:10AFE00000F0648292B209925CE7094B05212122AC
:10AFF00083F8BE1083F8CC200120ACE6B1427FF686
:10B0000074AF20464FF40072002155F00FFF70E737
:10B0100000000120BC000120381B012098160120EF
:10B020004FF400723146204655F000FF802389F826
:10B030009E310C2389F8A231D7F8B824CE49D7F82D
:10B04000B034C4F8C6218A42C4F8CA3100F3FE8184
:10B05000CA49CB4C81FB02011144D017C0EB6111EE
:10B0600084FB0154C74D85FB02C5C0EB2530C1EB05
:10B07000811589F8A101521B801020F03F00013298
:10B0800002430C4489F8A021CA17C2EBE4142144FE
:10B0900089F89F11B84A013B934200F3CF81B74A28
:10B0A000B74882FB03121A44D917C1EB621280FB26
:10B0B0000240B44C84FB0354C1EB2431C2EB821434
:10B0C00089F8A5111B1B891021F03F0101330B43A7
:10B0D000104489F8A431D317C3EBE010024489F877
:10B0E000A321552389F8DE31AA2389F8DF3100E74F
:10B0F000DDE90645DDF820A0099B059A2846812157
:10B100004AF04CFCD4E90430049A1344801AC4E990
:10B110000430DAF848309B1ACAF8483000287FF427
:10B1200033AE0423237016E64FF0FF3384F8EC317E
:10B1300084F8ED3184F8EE3184F8EF31D7F8D0346B
:10B14000C4F8E8315223237063706123A37084F83C
:10B15000E73141230025E37084F8E631722384F857
:10B16000E43184F8E5314FF4F0722946A9F11C006E
:10B1700055F05CFE5523C9F8D051C9F8D451C9F82F
:10B18000D85184F8FE316FF0550384F8FC5184F8EF
:10B19000FD5184F8FF31ACE600214FF400722046E7
:10B1A00055F044FE784B03CB49F81D0CEB2009F811
:10B1B000200C582009F81F0C902049F8191C09F898
:10B1C0001E0C002202230821F820E272237309F8E2
:10B1D000131CA373E27309F8103C09F80B0CD7F8A1
:10B1E000B80484F82C30D7F8B03462761B1A236286
:10B1F000D7F8C004D7F8C434E2761B1A3F20207673
:10B200004FF0FF30A0763E20207701206277A277B2
:10B21000E27784F82D2084F82E2084F82F206362B2
:10B2200084F8300084F8312089F82610802189F8CC
:10B230002010292189F82210942189F823100E2149
:10B2400089F824100D21514B89F82510552189F8D2
:10B25000DE11AA2189F8DF1103CB4D4AC9F8270076
:10B26000C9F82B1003CA1A889B78C9F83200C9F8AC
:10B270003610A9F82F2089F831303AE64FF40072E1
:10B280000021204655F0D2FD2B6CB8F1000F40F0A4
:10B29000F480002B00F00E812B6B3E491122CDE98A
:10B2A00000882046FFF76EFC2B6C1A6C002A00F019
:10B2B00012811B6BCDE90088374911224846FFF700
:10B2C00061FC6D6C09F120044FF4E078002D3FF42F
:10B2D00010AEA04408F120082034039610E052F884
:10B2E0001C1B2B6B0092002201921122FFF74AFCDB
:10B2F000AD6C2034002D00F09F80444500F09C8010
:10B300002B792A46A4F12000002BE8D16A792E6916
:10B310002B6B2968019605F11C0C42F02102CDF837
:10B3200000C0FFF72FFCE3E79AF92C30002BBFF6A3
:10B330000AADDAF831609AF82D2036BA2661BAF8EB
:10B3400036305BBA9BB204EB820263619168981954
:10B3500088423FF64AAED26802FB06F602FB03F2D1
:10B36000DAF8283004929A42C4E904627FF4EBAC24
:10B370000123237081E500BFFF03FB0083200882C7
:10B380008180808097554541D8940608E49406084A
:10B39000F0940608D0940608D49406089AF92C3044
:10B3A000002BFFF6D0ACDAF831209AF82D1012BA43
:10B3B0002261BAF836305BBA9BB204EB810163615B
:10B3C0008868D61886423FF610AEC968DAF82800B9
:10B3D00001FB03F301FB02F28342C4E904237FF47F
:10B3E000B2AC2146B3F5805F4FF0020228BF4FF4A4
:10B3F000805301F81C2B28469AB24EF095F8002095
:10B40000A9E4374B0521242283F8BE1083F8CC2011
:10B410000120A0E49AF82D20DAF828303149002ADA
:10B4200018BF0021232B3CD92423A361B8E4F11ACF
:10B4300020464EF027F85CE5039E5AE5FF2389F885
:10B44000A33189F8A53189F8A4314AE6FF2289F8A9
:10B450009F2189F8A12189F8A0211BE611462046E9
:10B460004FF4007255F0E2FC43E5A9F124031E4AB3
:10B4700043F8042F5B45FAD13BE5002B0CBF0123B9
:10B4800002236D6CC3EB0818002D3FF432ADB8F108
:10B490000108AD6CF8D14FF40078002D7FF419AF9E
:10B4A00027E5A361002B3FF46FAC79E4BDF81030C1
:10B4B000099321E6CDE900884346D7F8B414204625
:10B4C0000822FFF75FFB6D6C002D3FF412AD4C4678
:10B4D0004FF4F078FDE6CDE900884346ECE600BF86
:10B4E00000000120A8110608DEADBEEF70B50468AB
:10B4F000204B226961F38A122261226942F0200204
:10B500000546226101E0013B02D022699206FAD48D
:10B510006B685C6A2678012E19D0033E012E14D880
:10B5200004F580530021D964134A1A64072121705D
:10B5300004F582520D23812128464AF02FFA1F225A
:10B5400004F5815128464DF0EFFF002070BD2846DC
:10B55000FFF790FB0028F8D06B68074A5C6A04F597
:10B56000805307201A64DE6404F582528121207022
:10B570000D23E1E7420D03005553425338B54368AC
:10B580005D6A2B78022B044619D0072B15D105F5DF
:10B5900080535A6A5A649A6A196A9A64334A914281
:10B5A0002AD0334B0521202283F8BE1083F8CC200B
:10B5B00002236B702046FDF7E3FB002038BDFFF748
:10B5C00059FB0028F9D063682A4A5D6A05F5805363
:10B5D00001210720D9641A64812105F5825228705F
:10B5E0000D2320464AF0DAF920461F2205F5815145
:10B5F0004DF09AFF002038BDD0F8B4211F2AD0D1D9
:10B6000093F82D20012ACCD893F82E30013B0F2B34
:10B61000C7D8FFF72FFB60B92B785A1E012ACCD967
:10B62000042BCAD0A86940B900212046FFF758F979
:10B63000C3E72046FDF7A4FBBFE7636805F11C02E2
:10B640005D6A05F580518B6A984238BF83B2204607
:10B650008C6C28BF9BB2E41A8C640024CC64032158
:10B66000297081214AF09AF9A7E700BF5553424358
:10B6700000000120555342531C481D4A1D4938B54E
:10B68000121A55F0C5FB1C481C4A1D49121A55F0E8
:10B69000BFFB1C4A1C49D2F8883043F47003C2F83F
:10B6A00088300B6843F001030B600B689B07FCD5E7
:10B6B0008B68154A6FF301038B60936813F00C0FCE
:10B6C000C3F38101F9D1916013680E480F4D23F047
:10B6D000867323F4803313604FF41F044FF000632C
:10B6E0005560C2F8A010D460836038BD000000101F
:10B6F000303C0010E8240708303C0010183E0010D1
:10B700001B82070800ED00E0003802400230030011
:10B71000BFF34F8F0549064BCA6802F4E06213433A
:10B72000CB60BFF34F8F00BFFDE700BF00ED00E02F
:10B730000400FA0510B582B00D4A00230093009270
:10B7400000990968012901D002B010BD094901938F
:10B75000CA24532001924C624862019C064A23602D
:10B76000FF204862136883F3088853689847FEE710
:10B770005C280040002800400000FF1F70B594487E
:10B7800084B049F095FE934A934B1169012060F310
:10B7900002011161196E02F5E43260F301011966CC
:10B7A00013680343136013689907FCD593688B49AA
:10B7B0006FF3010393608B6813F00C0FC3F38102E6
:10B7C000F9D10B68864C23F0867323F480334FF451
:10B7D0001F000B608A604C60C1F8A020C8600B6835
:10B7E000804A43F480330B60D2F800389B0307D4BF
:10B7F0004FF44053D2F800188E0301D4013BF9D125
:10B80000D2F800389D03EFD57449764A0B6843F0AF
:10B8100001030B60D2F800389C07FBD56F4B7149D0
:10B820005A6842F480025A605A68482464F38E12BF
:10B830005A605A68012060F303025A605A6860F344
:10B8400012425A601A6842F080721A60D1F80038C9
:10B850009801FBD5614B9A686FF307129A609A685A
:10B86000042161F34F329A609A6861F38C229A60E6
:10B87000D3F8A42042F03002C3F8A4209A68022032
:10B8800060F301029A609A68C2F38102022AFAD137
:10B89000D3F8A4206FF30512C3F8A420D3F8A42092
:10B8A0000B2161F30F32C3F8A420D3F8A0206FF36B
:10B8B0004D32C3F8A0209A6812F00C0FC2F3810138
:10B8C00061D002296CD0484D484BC5F8D430434A6A
:10B8D00047499068D5F8D430464C474EC0F3031022
:10B8E0000144464891F85012CB40C5F8D430E36883
:10B8F0004FF6FF010B4043F0052343F47A03E36066
:10B90000536FC6F8E03437493D4BA360D1F8343863
:10B9100023F00043C1F83438536F43F0807353670A
:10B9200049F0C6FD684649F05DFE009B354A364841
:10B93000A2FB0323D4F8FC209B0C42F08072C4F8D5
:10B94000FC20C6F8E4344FF06042304BC2F8B00F30
:10B95000002159601A6842F001021A60D5F8D4300B
:10B960002B4AA2FB03239B09013BB3F1807F08D242
:10B970004FF0E022F0205361072384F82300916107
:10B98000136104B070BDD3F8A020174D52049BD5AD
:10B99000D3F8A030DB0497D51E4BC5F8D43096E71A
:10B9A0005A685A68596858680F4D104CC2F388138A
:10B9B000C0F30240184A125C01F00F0104FB03F3CC
:10B9C00012FB01F2B3FBF2F3C5F8D4307FE700BFFE
:10B9D0001C00400000700040003C02400038024063
:10B9E00002300300003002400000012000127A0003
:10B9F0007C0F060800ED00E0981601201F003000C3
:10BA00000000000883DE1B4355CEACC5001000E0EB
:10BA1000D34D6210006CDC02B8950608134AB2EBF5
:10BA2000902F4FEA90230BD3B3F5801F17D3A3F5C4
:10BA30008013013B022B16D8DFE803F0130B0D0037
:10BA40000B4A934209D00B4883420CBF08200020C8
:10BA50007047042070470520704701207047002080
:10BA60007047032070470220704700BF030010009A
:10BA700040001000410010002F4B98423AD0B0F126
:10BA8000804F3ED0A3F57C4398423ED003F58063BF
:10BA900098423CD003F5806398423AD003F5806326
:10BAA000984238D003F58063984236D003F570434E
:10BAB000984234D003F57053984232D003F5806336
:10BAC000984230D003F5806398422ED0A3F5983386
:10BAD00098422CD003F58063984214D003F580631C
:10BAE000984226D003F59633984208BF0E2202D022
:10BAF000002070470022114B03EBC20393F864024D
:10BB000070470122F7E70C22F5E70222F3E7032250
:10BB1000F1E70422EFE70522EDE70622EBE7072233
:10BB2000E9E70822E7E70922E5E70A22E3E70B2233
:10BB3000E1E70D22DFE700BF000001407C0F0608AF
:10BB400010B5574C0368D4F8D400B0FBF2F00139BB
:10BB500089B20138D96298625A69524942F00102A9
:10BB60005A611A686FF309221A601A686FF3061295
:10BB70001A601A688B4242F001021A603ED0B3F19B
:10BB8000804F72D0484A934273D002F5806293424C
:10BB900071D002F5806293426FD002F580629342C9
:10BBA0006DD002F5806293426BD002F570429342F1
:10BBB00069D002F57052934267D002F580629342D9
:10BBC00065D002F58062934263D0A2F59832934229
:10BBD00061D002F58062934249D002F580629342BF
:10BBE0005BD002F59632934208BF0E2107D00122A6
:10BBF000BDE810401146002049F0ACBD00212B4BA0
:10BC000003EBC103012293F8654293F965021146E3
:10BC100049F0A0FD1B2C00D010BD254BDA68C2F303
:10BC20000222C2F10700042802F1040328BF042005
:10BC3000062B12D800210A464FF0FF338340DB4326
:10BC400003F0010393400B431A4A1B01DBB282F855
:10BC500019334FF00073136010BD033A4FF0FF31FA
:10BC60009140C94301F00101E6E70121C7E70C213A
:10BC7000C5E70221C3E70321C1E70421BFE705218E
:10BC8000BDE70621BBE70721B9E70821B7E709218E
:10BC9000B5E70A21B3E70B21B1E70D21AFE700BFFC
:10BCA0000000012000000140000400407C0F060855
:10BCB00000ED00E000E100E0F0B50468534DB5EBA5
:10BCC000942F4FEA94230CD3B3F5801F71D3A3F5BF
:10BCD0008013013B022B00F29480DFE803F07F6BBE
:10BCE0006F004B4DAB426DD00135AB4261D14FF08F
:10BCF000050C4FF4807543790CEB8C0E013BD8B2E8
:10BD00000CEB4E0E8644434800296BD0E7680226B0
:10BD100006FA03F300EB8E063B43C6F8EC14C6F8B4
:10BD2000FC24B646E360EFF31181502383F31288BD
:10BD30002C2202FB0C02D2F8E834002B4BD0C2F8C4
:10BD40000C3504332C2202FB0C02D2F8FC541DB13A
:10BD50001D60D2F8FC3404332C2202FB0C02D2F812
:10BD600000551DB11D60D2F8003504332C2202FBB2
:10BD70000C02D2F804551DB11D60D2F8043504330D
:10BD80002C2202FB0C02D2F808551DB11D60D2F81E
:10BD9000083504330022C9B21A6081F311882C23BC
:10BDA00003FB0C00D0F80C3583B9E36823F00103E2
:10BDB000E360F0BD4FF0030CA8259CE74FF0040CA6
:10BDC000D42598E74FF0000C242594E7E36843F06E
:10BDD0000103E360F0BD104B2B44B3E74FF0020CBE
:10BDE0007C2588E7E668022707FA03F326EA0303BF
:10BDF000E36000EB8E039E46C3F8EC14C3F8FC240A
:10BE000091E74FF0010C502575E700BF03001000CB
:10BE10004000100098160120801B012001490248B3
:10BE2000FDF772B8801B01200000014002494FF06D
:10BE30008040FDF769B800BFAC1B012001490248F2
:10BE4000FDF762B8D81B01200004004001490248F8
:10BE5000FDF75AB8041C01200008004001490248BF
:10BE6000FDF752B8301C0120000C00402DE9F04FC6
:10BE70004FF49A724048414C414D424E424FDFF8D8
:10BE80001481DFF81491DFF814A183B0002154F07D
:10BE9000CDFFDFF80CE1DFF80CC13C4800222BE0BD
:10BEA000B3F1804F3ED0A34245D0AB4245D0B34220
:10BEB00045D0BB4245D0434545D04B4545D0534581
:10BEC00046D033498B4246D001F580618B4245D044
:10BED000A1F598318B4244D001F580618B4242D06C
:10BEE00001F580618B4240D001F596318B423FD005
:10BEF0000832B2F5E07F12D05EF822306345CFD130
:10BF00004FF0010B416C41EA0B014164436C083274
:10BF100003EA0B030093B2F5E07F009BECD103B082
:10BF2000BDE8F08F0123016C19430164016C0B40E3
:10BF30000193019BDCE70223F5E70423F3E70823E1
:10BF4000F1E71023EFE72023EDE74FF0020BD9E7ED
:10BF50004FF4803BD6E74FF4003BD3E74FF4802B00
:10BF6000D0E74023DFE78023DDE74FF48073DAE793
:10BF70004FF4801BC6E700BF801B01200004004077
:10BF800000080040000C0040001000400038024053
:10BF90000044014000140040000401400040014002
:10BFA00054120608000001400348D0F8E4300BB1F9
:10BFB000D8301847704700BF000001200348D0F870
:10BFC00008310BB1FC301847704700BF000001205A
:10BFD0000348D0F82C3113B100F590701847704722
:10BFE000000001200348D0F8503113B100F5A270D1
:10BFF00018477047000001200348D0F8743113B18E
:10C0000000F5B47018477047000001200348D0F8CD
:10C01000983113B100F5C670184770470000012031
:10C020000348D0F8BC3113B100F5D87018477047F9
:10C03000000001200348D0F8E03113B100F5EA70A8
:10C0400018477047000001200348D0F8043213B1AC
:10C0500000F5FC7018477047000001200348D0F835
:10C06000283213B100F5077018477047000001200F
:10C070000348D0F84C3213B100F5107018477047E0
:10C08000000001200348D0F8703213B100F5197098
:10C0900018477047000001200348D0F8943213B1CC
:10C0A00000F5227018477047000001200348D0F8BF
:10C0B000B83213B100F52B7018477047000001200B
:10C0C00010B501380B4C0C4B00EBC00004EB8004A6
:10C0D000D4F8D80098420CBF362038204DF0DEFE50
:10C0E000D4F8D820D2F8003143F00103C2F800316F
:10C0F00010BD00BF0000012000640240F8B5013807
:10C10000124C00EBC00004EB80041E461048D4F82B
:10C11000D83083420CBF3620382015460F464DF0EC
:10C12000BDFED4F8D800D0F8003143F00103C0F8C8
:10C13000003194F9E900C4F8E470C5F30112A909CB
:10C14000C4F8EC60BDE8F84049F004BB00000120F1
:10C15000006402402DE9F04F87B0B44BB44EB54DAA
:10C16000B54C02934FF000094F46DFF8E882DFF844
:10C17000DCA20023B6EB982F01934FEA98232CD32F
:10C18000B3F5801FC0F04181A3F58013013B022B62
:10C1900000F2A983DFE803F00C022E00A74B93F80E
:10C1A0002D36012B0CD0022B0AD04FF0040B36E0B9
:10C1B000A24B93F82D36012B02D0022B40F0658361
:10C1C000019B0133082B019300F09A805AF8208FCD
:10C1D000B6EB982F4FEA9823D2D2AB4214D0A342A9
:10C1E000964B93F82D3640F07583012BE8D04FF035
:10C1F000080B14E0914B93F82D36012BE0D0022B65
:10C20000DED04FF0050B0AE08C4B93F82DB6BBF156
:10C21000010F04D0BBF1020FD2D04FF0010B4FF051
:10C2200001091FFA89F1584614F016F814F0CAF8FB
:10C23000037813B1542B40F0178109F10109B9F1CA
:10C24000050FEED137B34FF0000C784A002190680B
:10C25000D0F800E0B6EB9E2F4FEA9E23C0F0CA80D4
:10C26000B3F5801FC0F0CF80A3F58013013B022BF4
:10C2700000F23483DFE803F0BC02B10004235B4525
:10C2800000F0AF800131B94202F1AC02DFDBBCF15A
:10C29000000F95D1DAF80C00694B002205E001325D
:10C2A0000E2A03F10C0300F01B8359688842F6D173
:10C2B0009AF8051052B240460EF07EFE614942687F
:10C2C000002384464868824200F0AB8001330E2B85
:10C2D00001F12401F6D160464FF0FF335A4A03EBD7
:10C2E000C30302EB830393F8F030002B7FF468AFB5
:10C2F000029A836801995361544B03EB4113936095
:10C30000029B0137AC33042F02937FF42EAF504FC2
:10C3100007F6F42307F6E462BB464FF001080392E8
:10C320009946D7F8002108F1FF339A4252DDDBF835
:10C330000C60002E00F0C9823068B58800F13F40E3
:10C34000B5FA85F500F57E00C5F11F030193800A5B
:10C35000D7F8D447002C40F38F80344A002305E0FF
:10C3600001339C4202F1AC0200F0848011688142EA
:10C37000F6D1019A2D49CBF80420AC2202FB03151B
:10C38000CBF818505FFA88F216B1F2710322B2713D
:10C390005846FBF70DFF97F80421002A5CD0019B5B
:10C3A000686F012202FA03F189B2FBF7ADFE28465D
:10C3B00008F10108FBF778FF0123B8F1090F8BF8AA
:10C3C0001C308BF81D3089F811300BF1200B09F16E
:10C3D0001809A6D107B0BDE8F08F05235B457FF4AF
:10C3E00051AF43799AF8050098427FF44BAFE7E6E6
:10C3F000032344E7AB4204D0A3420CBF082300232D
:10C400003DE701233BE7002339E70C4B93F82D363A
:10C41000012B3FF4D5AE022B3FF4D2AE4FF0000B10
:10C42000FDE60133DBB26046013B57E7F8450010FB
:10C430000300100040001000410010009816012079
:10C44000D0020120D8000120000001205419060864
:10C45000183E001000040140019B686F01219940C3
:10C4600089B2FBF751FEA2E74FF0010C002F7FF4D9
:10C47000ECAEA5E6032C53DCAC2202FB0472D2F82E
:10C48000E837002B00F01A82C2F8E007542101308F
:10C4900082F8890882F88818621CC7F8D4277C4A79
:10C4A000D96892F8412602929BF8102004927948AC
:10C4B000002205E001320E2A00F10C0000F010828B
:10C4C0004568A942F6D159791868DFF8FCA152B243
:10C4D0000EF072FDAC22D0E9010302FB047251465A
:10C4E000C2F8F437C2F8F00700234A6890421CD023
:10C4F00001330E2B01F12401F7D1674B93F8CC20C7
:10C50000A246002A00F0C9816449654A654BC7F814
:10C51000DC1AC7F8D82AC7F8E43A07B0BDE8F08FAC
:10C520005B4A032382F84036EEE75A1CD2B25A4BDC
:10C53000013A02EBC20203EB8202AC2392F8F00054
:10C54000059004FB03F3F9180546B1F88808002D9F
:10C55000DAD1A2F8F0005A1002EBA302C2EBC21229
:10C5600002EB8232920102EBA3024F48520002EB2F
:10C57000A302C5184D4B02EB420000EB00104FF038
:10C580008C0C03EB8000039B0CFB02F203EB4202DA
:10C590003368C1F8E437404BC1F874283322C1F83E
:10C5A0005408C1F878C8C1F85828D3F8D410029BB1
:10C5B000062B00F07E81072BDFF810C13C4B3D4875
:10C5C0003D4A05BF184662464FF0710C4FF01C0CF7
:10C5D000B1FBF2F2B1FBF0F0511EAC2202FB04728F
:10C5E00089B20138A2F85C08A2F83C1828460292E9
:10C5F000C7F8B0CAFBF7AAFEFDF7F4FA029AD2F820
:10C60000F0070022DAF80430984202F1010200F04B
:10C610003F810E2A0AF1240AF4D14FF0FF3A1E4B53
:10C6200026490AEBCA0203EB82020292D2F8D80032
:10C6300088420CBF362038204DF030FC029AD2F8E8
:10C64000D800D0F80011AC2241F0010102FB0472C5
:10C65000C0F80011D2F8E8074279D0F800E0013ABA
:10C66000D2B2032A9CBF164901EB42024FEACA0329
:10C6700098BFB2F8D81A02934FF0AC0202FB0472D2
:10C6800088BF0021A2F8EC170E4B002227E000BF64
:10C6900098160120D00201200000012069880108BD
:10C6A0006588010871880108F8450010CC49001020
:10C6B0001055220044950800D0DD060000640240B9
:10C6C0007C0F0608A8480010D800012040771B0006
:10C6D000864500F0F8800132042A00F0108153F8FA
:10C6E00032000028F4D1D7F8DC070130C7F8DC07A6
:10C6F00007EBC200D200C0F890EA1A440598B2F8DD
:10C7000004C041EA0C0191802B467E499022FFF73C
:10C71000F5FC029A7C4B524403EB8202AC2101FBF4
:10C720000474D2F8F820D4F8F417106861F3060006
:10C7300010602A69116841F0020111604FF4807C99
:10C740004FF440731021A5F86CC0A5F87030A5F81F
:10C750006810B4F858E8A5F86AE0D4F8E4070221B4
:10C7600000F1180385F86E102B6610300290D4F893
:10C77000540885F86F106866059010684BF6EF7ADC
:10C7800000EA0A001060106840F0100010601068A5
:10C7900040F440501060106861F38B201060106806
:10C7A00061F309201060116841F080011160116887
:10C7B0006FF38611116011686FF3451111605168B4
:10C7C0006EF30F01516005999360D1601168E961C2
:10C7D00051682962916869620020D168A9624FF4AA
:10C7E0004073A5F89030A5F88CC0A5F88800B4F87F
:10C7F00078C8029BA5F88AC0012185F88E10C5F87B
:10C800008030D4F8743885F88F101468C5F88430F7
:10C8100004EA0A04146014681460146844F4405470
:10C820001460146861F38B241460146861F30924A4
:10C830001460116841F080011160116860F3861185
:10C840001160116860F34511116051686CF30F01BC
:10C85000516002989060D3601168E9625168296361
:10C8600091686963D168A9631168049B41F0020172
:10C8700011608BF81030019BCBF80430CBF80C60C2
:10C880005FFA88F2CBF818507FE54FF0030BC6E44F
:10C89000D3B2059303F1FF3AC1E6AC2202FB0A7260
:10C8A00092F8891892F8882883F8CC2083F8CD1064
:10C8B0002AE61648164A4FF0380C89E6154A022334
:10C8C00082F8403620E6D20017E74FF0FF3301939D
:10C8D00018463DE5012B7FF49EAD71E40223CEE4C2
:10C8E00000235B68FFDE0B4B93F82D36012B3FF4E2
:10C8F00067AC022B3FF464AC4FF0020B8FE40023D3
:10C900009B88FFDE958E000800000120882A110018
:10C91000A0BB0D0098160120284AD2F86C36996900
:10C92000C80509D54FF48071132082F88006D961BB
:10C93000196821F0800119609969890509D54FF4BA
:10C940000071132082F88006D961196821F08001F6
:10C9500019609969480509D54FF48061132082F860
:10C960008006D961196821F080011960996909056B
:10C9700009D54FF40061132082F88006D961196847
:10C9800021F0800119609969C80409D54FF48051DC
:10C99000132082F88006D961196821F0800119609E
:10C9A0009969890409D513204FF4005182F8800653
:10C9B000D9611A6822F080021A6070479816012027
:10C9C0008A4BD3F8782610B4072A0DD8DFE802F096
:10C9D000484831310F0F0404D3F86C269169CC0616
:10C9E00040F195801023D3615DF8044B7047D3F874
:10C9F0006C269169C80657D51021D161116841F0A4
:10CA0000200111609169890701D500219162916926
:10CA1000CC0703D4916941F001019161B3F8762606
:10CA200092B2002AE0D0112283F880265DF8044BF0
:10CA30007047D3F86C269169CC0640F1BA80B3F800
:10CA400076369BB2002BCDD19169890748BF93629E
:10CA50009369DB07C6D4936943F001039361C1E78F
:10CA6000D3F86C269169C80600F19C8091698C0707
:10CA700000F1F3809169080600F10381916949078B
:10CA800000F1A880916911F0400100F0B380B3F883
:10CA900076369BB2002BA7D153689B01A4D4536870
:10CAA00043F4804353609FE7916911F0800100F0E7
:10CAB000A180116821F040011160B3F8761689B2A7
:10CAC000002991D05068B3F876C61FFA8CF1FF297F
:10CAD000C0F3090040F21381FF21A3F87416B3F8E4
:10CAE00074C6434C516821405FFA8CFC014341EA13
:10CAF0000C4141F080715160B3F89436102B1368EB
:10CB00000CBF43F4804343F4004313606CE7916926
:10CB100011F0080166D1906980067FF565AF20208D
:10CB2000D061106820F0FE001060506861F30900C9
:10CB30005060506861F30C305060506861F31740EA
:10CB40005060506861F318605060506861F38A204B
:10CB500050609069840748BF91629169C80703D407
:10CB6000916941F0010191619169490716D5D3F8A6
:10CB70007016526A481CC3F870060A70B3F874261F
:10CB800092B25AB1B3F87626013A92B2A3F8762659
:10CB9000B3F87426013A92B2A3F874260122C3F8BE
:10CBA0007C2621E71021D161916989073FF52DAFDE
:10CBB0002DE79169080715D491698C0700F18580EC
:10CBC000916911F00401A6D0B3F8761689B2002954
:10CBD0003FF40AAFD3F87016526A481CC3F87006C7
:10CBE0000A7041E00823D361FEE600BF98160120D9
:10CBF000009800FC906980067FF5F6AE2020D06199
:10CC0000506861F309005060506861F30C30506067
:10CC1000506861F317405060506861F318605060CD
:10CC2000506861F38A2050609169CC0644BF10219E
:10CC3000D1619169880744BF002191629169C90758
:10CC400003D4916941F0010191611168012021F043
:10CC5000F6011160C3F87C06C6E6D3F87016481CCE
:10CC6000C3F8700609789162B3F87626013A92B259
:10CC7000A3F87626B3F87426013A92B2A3F8742684
:10CC8000B2E6B3F8741689B200297FF4ADAEB3F8FA
:10CC9000761689B200293FF4A7AE5168B3F876063C
:10CCA00080B2FF28C1F309013CD9FF20A3F8740624
:10CCB000B3F87406244C53682340C0B20B4343EAD4
:10CCC000004343F0807353608EE6B3F8761689B262
:10CCD00000293FF489AED3F87016481CC3F87006DB
:10CCE00009789162B3F87426013A92B2A3F87426D7
:10CCF000B3F87626013A92B2A3F8762674E6B3F832
:10CD00007616114C89B2A3F87416B3F874C651683C
:10CD100021405FFA8CFC014341EA0C4141F0007173
:10CD20005160E9E6B3F87606074C80B2A3F87406C2
:10CD3000B3F8740653682340C0B20B4343EA004380
:10CD400043F0007353604FE6009800FCF0B482B0EB
:10CD50008DF80730431C63D0022861DC8C4D5C23C6
:10CD600003FB0053D3F86C46002C5DD04FEA410C16
:10CD70000DF10701C3F870160221A3F87616002101
:10CD800083F8801642F21173A1690F0429D45C2341
:10CD900003FB0053B3F8761689B2FF296DD9FF2142
:10CDA000A3F87416B3F874367A4E6168DBB24CEAB5
:10CDB000034331400B4343F0807343F400536360FB
:10CDC000A1698E0742F2117335D4A169C9062DD528
:10CDD0005C23102203FB0053E261112283F88026BA
:10CDE00007E0013BD0D15C2303FB0053122283F800
:10CDF000802648F20173A269920607D4013BFAD15A
:10CE00005C2303FB0050122380F880362023E3616B
:10CE1000B5F8583701339BB20020A5F8583700E029
:10CE2000002002B0F0BC70472046FAE7013BDAD0A0
:10CE3000A1698E07C9D55C2303FB0053A262B3F836
:10CE40007426013A92B2A3F87426B3F87626013A12
:10CE500092B2A3F87626B3F8762692B2002A40D092
:10CE60004C4AFF2142F21176A769BF0719D4A7697E
:10CE7000FF06ADD4013EF7D1B5E7B3F87616454EBF
:10CE800089B2A3F87416B3F874366168DBB24CEA61
:10CE9000034331400B4343F0007343F4005363609A
:10CEA0008EE7D3F87066771CC3F870763678A66282
:10CEB000B3F87466013EB6B2A3F87466B3F876664A
:10CEC000013EB6B2A3F87666B3F87466B6B21EB980
:10CED000B3F87666B6B246BBB3F87666B6B2002E45
:10CEE000C0D142F21173A269960606D4A269D10696
:10CEF0003FF56EAF013BF6D175E72023E361636830
:10CF00006FF30903636063686FF30C3363606368F6
:10CF10006FF31743636063686FF31863636063685C
:10CF20006FF38A23012063607BE742F21176A769E1
:10CF30003F0606D4A769FF063FF54AAF013EF6D18A
:10CF400051E7B3F87666B6B2FF2E0ED9A3F8741681
:10CF5000B3F87466F7B26668164046EA0C0646EA0D
:10CF6000074646F080766660B6E7B3F87666B6B2F6
:10CF7000A3F87466B3F87466F7B26668164046EABA
:10CF80000C0646EA074646F000766660A4E700BF56
:10CF900098160120009800FCF8B5B24D05EB00177B
:10CFA000D7F85C37002B00F0C9800446060197F8DB
:10CFB00066074CF073FF97F8663703F01F025B09B2
:10CFC0000121013B01FA02F2042B0BD8DFE813F038
:10CFD000DF000500E500EB00F100A34B596921EAF1
:10CFE00002025A61AB19013493F860070EF0F6FAA9
:10CFF000E4B2074610B112238371C471AB1993F8E0
:10D0000061070EF0EBFA10B11323C4718371AB19F1
:10D0100093F862070EF0E2FA10B11423C471837121
:10D02000AC19262194F8632738460CF0CDFF94F80C
:10D0300061070EF0D3FA94F8642726210CF0C4FFA0
:10D0400094F862070EF0CAFA94F8652706210CF0EE
:10D05000BBFFD4F85C37854A934200F0C880844A0D
:10D06000934200F0AC80834A934200F0E580824A0C
:10D07000934200F0EC803544804AD5F85C3759681B
:10D0800041F002015960596841F001015960D969C4
:10D090006FF3CB21D96192F8781300295ED118681B
:10D0A00061F3CF301860186861F38E30186018682B
:10D0B00061F38A201860196892F87F4364F349216C
:10D0C000196092F87903196801285AD06FF3082182
:10D0D0001960196860F38201196092F87A130729C0
:10D0E0002DD858686FF34920586058686FF30820AE
:10D0F0005860186861F3C5001860196892F87B439E
:10D1000064F3C7111960196892F87C4364F3CB216A
:10D110001960196892F87D4364F341011960196838
:10D1200092F87E2362F3000119601A69072060F308
:10D130000F021A611A6842F040021A60F8BD0A290B
:10D140006DD058686FF349205860586840F480707B
:10D150005860186861F3C5001860CEE7012951D006
:10D16000022937D00329A6D1196841F4004119607A
:10D17000196841F48041196019686FF38A211960B8
:10D1800099E7012CA2D141F480711960A1E7364BD7
:10D19000196921EA02021A6124E7334B996921EAED
:10D1A00002029A611EE7304B596A21EA02025A6272
:10D1B00018E72D4B196A21EA02021A6212E7304879
:10D1C00048F076F92F4AD2F8203823F48043C2F889
:10D1D000203850E7196841F40041196019686FF36D
:10D1E0008E31196019686FF38A21196063E7264848
:10D1F00048F05EF9234AD2F8243823F48053C2F869
:10D20000243838E719686FF3CF31196019686FF364
:10D210008E311960196841F4806119604BE75968D3
:10D2200041F40071596059686FF308215960196819
:10D230006FF3C501196060E7144848F039F9114AE5
:10D24000D2F8203823F40043C2F8203813E71048FE
:10D2500048F02EF90B4AD2F8243823F40053C2F8D0
:10D26000243808E7981601200038024000300140B9
:10D2700000380040003C0040003401400000012024
:10D280000E002000003002400C0024000F0020009F
:10D290000D00240082690023102110B4D360138292
:10D2A0009160416844690C31C2E900132CB1C26934
:10D2B000C2E90133D360138211605DF8044B7047FB
:10D2C00070B40468D4E904215368002900F0918007
:10D2D0004861157C16684A68022000FA05F545F099
:10D2E0000C0575600D7C0968A84040F00C00486092
:10D2F00019686FF30001196011686FF30001116084
:10D300001068A16940F0020010601D684BF6EF7CC8
:10D3100005EA0C051D6018680D8905431D60186835
:10D320004D7C65F30D3018601868CD7B65F38B205C
:10D33000186018688D7B65F3092018604D7B1868AC
:10D3400065F3C71018600D7B186865F386101860C8
:10D3500018680D7C65F34510186058684D8965F3B1
:10D360000F005860086849689860D9601068E169E2
:10D3700000EA0C00106015680889284310601068E6
:10D380004D7C65F30D3010601068CD7B65F38B200C
:10D3900010608D7B106865F3092010604D7B10686C
:10D3A00065F3C71010600D7B106865F38610106080
:10D3B00010680D7C65F34510106050684D8965F369
:10D3C0000F005060D1E900019060D160196841F010
:10D3D00001011960136843F00103136063685A6820
:10D3E00042F002025A605A6842F001025A6070BC70
:10D3F0007047157C506110680222AA4042F00C026E
:10D4000042601A6861F300021A601968A2694BF65B
:10D41000EF7001401960186811890143196019689B
:10D42000507C60F30D3119601968D07B60F38B215B
:10D4300019601968907B60F3092119601968507BA5
:10D4400060F3C71119601968107B60F386111960C9
:10D450001968107C60F3451119605089596860F3B0
:10D460000F015960D2E900129960DA601A6842F03F
:10D4700001021A601A68616842F002021A604B6881
:10D4800043F002034B6070BC704700BF2DE9F843C6
:10D490008C4E07464FF001093D6897F838806B685D
:10D4A00085F824901A686FF386121A60B8882A8962
:10D4B000824219D0B0F5807F0246A8BF4FF4807237
:10D4C000022AB8BF02221968002A92FAA2F2B2FA1E
:10D4D00082F208BF4FF0FF32013A21F0380141EAF1
:10D4E000C20292B21A6028813A7BA97A91420BD08B
:10D4F0001968002A00F08F806FF3410119601968E4
:10D500006FF300011960AA721A6842F040021A60B3
:10D510002A6A9168002900F0BE804FF0000E143294
:10D52000F44652F8100C8C4400EA060120B1B1F127
:10D53000805F20D06969F1B152F8141C143201EAFD
:10D54000060011B1B0F1805F15D052F80C1C0EF13D
:10D55000010E0029E5D12A7B002A7AD0B8F1000F0C
:10D5600009D0BEF1010F79D8BCF1070F76D82A6A2D
:10D57000127B002A72D02A6A92680021002A5BD0AE
:10D5800009B10A7B22B1BA6812B1116892888A6225
:10D590002A6A14682A6A51682A6A926802F1FF3C72
:10D5A00092B11CB3224612F8010B14469A689207F6
:10D5B000FCD5D8609A68D207FCD5DA6809B101F8C1
:10D5C000012BBCF1010CECD22B6A1B7BE3B92B6A5B
:10D5D0001B6983B12B6A786C1B699847012807D0B7
:10D5E000022808D100232B62BDE8F883FF20DDE785
:10D5F0002B6A143B2B62296A2B6A14332B622B6A29
:10D600009B688BB16B68BBE7BB68002BDFD01A68E7
:10D610009B889361DBE741F002011960196841F0D2
:10D6200001011960AA726FE731B10B7B23B9BB68A6
:10D6300013B11A689B8893612B6A1B68002B33D047
:10D640002B6A1F682B6A5A682B6A2A6200221A60AA
:10D6500022E72A6A9268002A92D1EDE7296AAB692B
:10D660008A68086810B358600120587392B25A81D2
:10D670003B685B6933B14968EB69F1B101205960DE
:10D6800058735A81BB6813B11A689B8893623846F5
:10D69000BDE8F84314E62A7B002A3FF46CAFB8F1EA
:10D6A000000F7FF464AF66E72B629DE7587306486E
:10D6B000FF2400F8444F5860D8E704485860597375
:10D6C000DFE700BF0000FFFF303C0010783C001097
:10D6D00038B5D0F890102C4B04465A68D0F8880022
:10D6E00071B1131A99420BDC94F88030C4F8882089
:10D6F000012B10D0D4F884300133C4F8843038BD05
:10D70000D4F89430C4F888200344C4F88C3094F8DA
:10D710008030012BEED16168201D04F19805EFF3F4
:10D72000118C102383F3128863681B6A0BB3D4F83F
:10D73000A0302A461BB1D3691432002BFBD10B6AEF
:10D74000FBB1996839B9934209D0196829B15B686E
:10D7500099680029F7D01433F3E7C3E900055FFAAD
:10D760008CFC8CF31188D4F884300133C4F88430F5
:10D7700038BD0D625FFA8CFC8CF31188FFF786FED2
:10D78000B8E71860FFDE00BF001000E02DE9F041AF
:10D79000826992F88C30012B8AB005464AD0023B50
:10D7A000012B51D892F8FC30D26C2F4C63F07F03E0
:10D7B00013708669336DD6F8108003F1010E0FCC1B
:10D7C000EC46ACE80F00F36CCDE9003E0FCCACE8C2
:10D7D0000F0094E8030006F110078CE80300EFF354
:10D7E0001180102383F3128833691B6A002B2FD01A
:10D7F000029B6A461BB1D3691432002BFBD1D8F8C7
:10D800002030002B2DD0996839B993420AD019687D
:10D8100029B15B6899680029F7D01433F3E71F60DA
:10D82000C3F804D0C0B280F31188AA6911690B6AE9
:10D83000002BFCD1136D5A8852BAEA819A8852BAE9
:10D840002A82DB885BBA6B8201200AB0BDE8F081D6
:10D85000C8F820D0C0B280F311883846FFF716FE12
:10D86000E3E71F60FFDE00BF5C1A06082DE9F04108
:10D8700090F88C30056D012B8AB0044655D015D830
:10D88000C36C4FF0FF321A605A609A60DA60D0F8C9
:10D8900090300522B3F57A7FC0F8A0207AD8032310
:10D8A00080F88C3001200AB0BDE8F081023B012BEA
:10D8B000F8D890F8FD30C26C504E63F07F031370BF
