:020000040800F2
:1000000000000220E52B05086D9E00089D210208D6
:100010009D2C05089D2C05089D2C0508000000005E
:1000200000000000000000000000000079AA0008A5
:100030007BAA0008000000007DAA0008491C0108F6
:100040009D2C05089D2C05089D2C05089D2C050858
:100050009D2C05089D2C05080FD4000813D400081A
:100060009D2C050817D400081BD40008FDA100082A
:1000700011A2000825A2000839A200084DA200081C
:1000800061A2000875A200089D2C05089D2C05089A
:100090009D2C05089D2C05089D2C05081FD40008E3
:1000A000A9A00008D1A00008F9A0000895A00008A8
:1000B00021A1000835A1000849A100089D2C0508D0
:1000C0009D2C05089D2C05089D2C05089D2C0508D8
:1000D0009D2C0508B99E0008C59E0008D19E000809
:1000E00023D400089D2C05087FAA000885A10008DC
:1000F000ADA10008D5A1000871A1000889A20008DF
:100100009D2C05089D2C05085DA100089D2C050867
:10011000DD9E0008E99E00089D2C05089D2C050821
:100120009DA20008B1A20008C5A20008D9A200083B
:10013000EDA2000800000000000000009D2C050852
:100140009D2C05089D2C05089D2C0508D1AA0008AA
:1001500001A3000815A3000829A300089D2C050889
:100160009D2C05089D2C05089D2C05089D2C050837
:100170009D2C05089D2C05089D2C050800000000FD
:10018000000000009D2C0508000000000000000099
:100190009D2C050800000000000000009D2C0508B3
:1001A0000000000000000000000000009D2C050879
:1001B0009D2C05089D2C05089D2C05089D2C0508E7
:0401C0009D2C050865
:0801C4004C27050001000000BA
:1001CC000029012002030000010030002029012039
:1001DC00010C00000000760040290120010D0100F7
:1001EC0000007700602901200114000000001E00AF
:1001FC0080290120011A000000000D00A029012017
:10020C000117000000000C00C0290120011800009B
:10021C0000000E00E02901200229010000012A0043
:10022C00002A01200230000000012C00202A0120AD
:10023C000132000000003C00402A01200135000082
:04024C00000020008E
:10800000D0E907239A422FBFD01AC0688018C01A3F
:108010007047D0E9092300699A4238BF1218D31A71
:108020000138C01A7047D0E90902131A5842584162
:108030007047036A41690246C85CD16801338B42CC
:1080400028BF002313627047436A8269D154436A90
:1080500002690133934228BF0023426B4362D36815
:1080600043F08003D3607047436B188810F0100012
:108070001EBF1A889B8801207047436B99891A8814
:10808000890610B592B2044607D5900605D5E26A76
:1080900022B39888216B80B29047636B99891A88C4
:1080A000090692B20FD510060DD5D4E909128A42FD
:1080B00022D0A169895C998021690132B2FBF1F07B
:1080C00001FB1022A262998A1A88C90592B204D5CE
:1080D000D20744BF4FF6F7721A8010BD9B88E26941
:1080E0006169DBB28B54E369E2680133B3FBF2F1FF
:1080F00002FB1133E361D0E7DA6822F08002DA6034
:10810000E1E7036941681F2B30B54FF0200285BFBE
:10811000A3F120054C680C68AA4098BF9A402242FF
:108120001ED0826900201074D0688468206820F016
:10813000010020605468206865790A4C828934F80F
:10814000154092B21F2B22EA0402828188BF203B95
:108150004FF020028BBF9A4002FA03F3CA608B6093
:1081600030BD00BF806705080E4BDA68D20310D41B
:10817000DA68D1060FD4DA68D2050ED4DA6812F0C4
:10818000E00F0CD1DB6813F0020F14BF08200920A8
:108190007047012070470620704702207047072073
:1081A000704700BF003C024007B509238DF8073037
:1081B000FFF7DAFF8DF807009DF80730012BF7D0A5
:1081C0009DF8070003B05DF804FB838A028B9BB225
:1081D00043EA024331EA03030CBF01200020704749
:1081E00082B0002301930093012300900193019B2F
:1081F00063B1009A21F07F4314320092009A126812
:108200001A4214BF0120002002B07047009A1832B1
:10821000F3E77047704701207047044BD3E9000330
:10822000984288BF03F50063181A7047E81C0020C5
:10823000054AD2E900318B42FDD0D1180133C3F396
:108240000A03087A13607047E81C0020044BD3F837
:10825000080820B1D3F80808431F58425841704716
:10826000E81C0020012380F84930704710B5D0F891
:10827000E83504461B699847032384F8123100202F
:1082800010BD08B590F8123180F81331042380F83E
:108290001231D0F8E835DB689847002008BD08B5F2
:1082A000D0F8E435DB6903B19847002008BD08B574
:1082B000D0F8E4351B6A9847002008BD08B5D0F80F
:1082C000E4355B6A9847002008BD30B501380024CA
:1082D00023460134055D002DFAD1DBB201335B008A
:1082E00013800B7003234B70022310F8014F04B965
:1082F00030BD5A1CD2B2CC5402338D54DBB2F4E7F9
:1083000010B5074C2068FF2808D00649D1F80C2882
:1083100001F5016100F070F8FF232360002010BD1B
:1083200000000020E81C0020432301480B80704718
:1083300004000020122301480B80704747000020F2
:10834000042301480B8070475900002008B50A46F5
:1083500002490348FFF7B9FF084608BD0025002081
:108360008C02060808B50A4602490348FFF7ADFF2C
:10837000084608BD002500209102060808B50A46F7
:1083800002490348FFF7A1FF084608BD0025002069
:108390009602060808B50A4602490348FFF795FF0A
:1083A000084608BD00250020A002060808B50A46B8
:1083B00002490348FFF789FF084608BD0025002051
:1083C000AB020608704770477047704770477047A8
:1083D000044B00200522C3F80828C3F81809C3F885
:1083E0001C097047E81C0020024B0020C3F8080855
:1083F000704700BFE81C0020212838B50C461BD070
:1084000022282BD0202815D1A1B1072A12D11A4D2C
:10841000D5F81C3913B10968002098472368C5F8BE
:108420002039237985F82439637985F82539A379AA
:1084300085F82639002038BD0029FBD0072AF9D15C
:108440000D4BD3F820290A6093F824290A7193F878
:1084500025294A7193F826398B71EBE70029E9D079
:10846000022AE7D1044BD3F81839002BE2D009884F
:1084700000209847DEE700BFE81C0020074AD2F83A
:108480002839D2F82C29934203F1FF338CBF002006
:1084900001209B1A03EBC020704700BFE81C00209E
:1084A000ECE730B50F4CD4E900239A4286BF03F5C0
:1084B0000065AA1A9A1A0A44B2F5006F10D801444E
:1084C0000022814203D102B16360002030BDE21876
:1084D00010F8015B15720133C3F30A030122F0E7C0
:1084E0000220F3E7E81C0020202301480B8070479E
:1084F0005D000020122301480B8070477D000020A2
:10850000042301480B8070478F0000200A4608B5FD
:10851000044920B90448FFF7D8FE024808BD0348C3
:10852000F9E700BF18260020B9020608D1020608A4
:1085300008B50A4602490348FFF7C7FE084608BDCA
:1085400018260020E902060808B50A460249034831
:10855000FFF7BBFE084608BD18260020FC020608EF
:1085600008B50A4602490348FFF7AFFE084608BDB2
:108570001826002007030608002370B54D1C1E4670
:10858000040FB0F1204F34BF3034373401F81340BA
:1085900005F813600133DCB2A2424FEA0010EFD8B5
:1085A00070BD1A2310B50B80094BD3F8E807D3F838
:1085B000EC2780180AD0D3F8EA4706490822FFF7CB
:1085C000DBFF042210312046FFF7D6FF024810BD22
:1085D00000F0FF1F9500002093000020002070474E
:1085E0004FF400731360034BD3F8383A0B6000204C
:1085F000704700BFE81C0020002070470120704732
:10860000012070470020704730B414461A69A24216
:1086100009D30D19AA429B6938BF111B0A46E118FC
:1086200030BC4DF0D7BD30BC704770477047D0EDBF
:10863000007AD0ED036A30EE677AE6EE877AB0EE24
:10864000670AC0ED007A7047D0ED017AF5EE407A06
:10865000F1EE10FA09D1DFED0F7A60EEA70AB7EE5E
:10866000007AC7EE207AC0ED017AD0ED017A80ED74
:10867000021A71EE277AC1EE276AD0ED007AC0EDBA
:10868000036A30EE677AE6EE877AB0EE670AC0EDED
:10869000007A7047DB0FC940D0ED017AD0ED036A54
:1086A00030EE670AE6EE807A90ED000AC0ED017ABE
:1086B000B0EE677AD0ED027A37EE677AE6EE877A27
:1086C000C0ED027A77EEC07AA6EEA70A80ED000A26
:1086D000704790ED056AD0ED017AD0ED006AD0EDDB
:1086E000025A90ED045A66EE277AB0EE407AE6EE32
:1086F000807AD0ED066A80ED057AE5EEA67AD0EDB7
:10870000076AD0ED035A80ED066AE5EEE67AD0ED11
:10871000085AC0ED086AE5EE657AB0EE670AC0ED6A
:10872000077A7047D0ED006AD0ED057AE6EE807AE0
:10873000B0EE407AB0EE670AD0ED037AD0ED016A70
:1087400067EEC07AE6EE877AD0ED066A76EEA77A13
:10875000D0ED026AC0ED057AD0ED047A67EEC07AFA
:10876000E6EE877AC0ED067A704703685A1C02600D
:108770001970704703690133012B036106D100238F
:1087800080ED010A80ED000A8360704790ED006A79
:1087900007EE903A70EE466AF8EEE77A86EEA77A30
:1087A00077EE067A90ED027AC0ED017A30EE670A34
:1087B000C0ED007AA6EE807A80ED037A80ED027A31
:1087C000704703685A1C026019707047007970473F
:1087D0000079C0F34010704700794009704790F865
:1087E0003020034602F0FF0012B1002283F830204F
:1087F00070474FF4805383817047064A002352F834
:10880000041B814204D00133042BF8D100207047AF
:108810000120704750270020012070470120704739
:108820002DE9F843604F1546D7F8784AB7F87C2A07
:10883000B7F8829AC2EB24135200C2EBE402B7F9F4
:108840007E4A624303FB03F4B7F9803A24135C4386
:10885000A41304EBE224B7F9863AC7F8944A0E460B
:10886000A4F5FA3181FB01CE4FEAE37803FB0EF267
:108870000CFB0822A3FB0C389044B7F9842A82FB36
:1088800001021B0A120343EA086342EA1052000382
:108890001B1842EB282202F50042A3FB093809FB12
:1088A00002884FEAE8734FEA680253EA68084FF01B
:1088B00000006DD0B7F98C9A4FEAE97809FB0EFEFB
:1088C0000CFB08EEA9FB0C9CE644B7F98ACA8CFBAA
:1088D00001814FEA414C4FEA484111EB0909D7F8B1
:1088E000981A4CEAD83C4EEB0C0CC1F5801E0EF0E9
:1088F0000048B7F9881A48EA5E0810EB09004FEA09
:10890000CE7EBEEB00000CEBC10168EB010C40F623
:108910003548A0FB080108FB0C1149F07DFFB7F9B1
:10892000923A4FEA613E4FEA503C4CEAC14C03FB9D
:108930000EF24FEAE3790CFB0929A3FB0C324A44FF
:1089400003FB0EFE0CFB02EEA3FB0C3CB7F9902AD6
:10895000E6445B0E43EACE1313EB000C804602FBA9
:1089600001F34FEAE27941EB6E6EA2FB082809FBA6
:1089700000314144D00C40EA41301CEB0000B7F913
:108980008E3A4EEBE141000A40EA016000EB031031
:108990000EB1000A306025B104EB84048034241247
:1089A0002C600120BDE8F883E81C00202DE9F74F7A
:1089B000CDE90012554AB2F8AA3AD2F89C1AB2F898
:1089C000A66AB2F8AC7A1B02C91AB2F8A83A6EEBE2
:1089D0000E0EA3FB010403FB0E44B2F8A43AC00937
:1089E00040EA44601B04C018A6FB013506FB0E5587
:1089F000B2F8A26A4FEA132343EA05634FEAC63688
:108A00004FEAE41444F100049B19A7FB012607FB7D
:108A10000E664FEAD25242EA46224FEA252545F138
:108A20000005F61512F5FA6C46F1000BBCF5FA6F6D
:108A30007BF100074CDAA2FB02784FF0050A02FB3B
:108A400006F908EB4909A7FB0A780AFB09884FEAEF
:108A5000570949EAC879BF08B0EB090047EA8877A7
:108A600064EB6804DB1B2A4F65EBA805BC454FF09F
:108A7000FF377BEB070720DA40F6AC57D21946F1F7
:108A800000065643A2FB027202EB46064FEAC608F6
:108A9000FA00BA1A48EA577866EB0808101844EB4F
:108AA00008044FF00B08A7FB087208FB06267F0896
:108AB00047EAC677DB1B65EB660501FB0EFEA1FBF3
:108AC000011202EB4E0EC90F41EA4E01BCEB010C44
:108AD000009A9AB10D4AD2F8B01AA1FB032301FB08
:108AE0000535520D42EAC522121A4FEA6555009B20
:108AF00065EB0404D20B42EA44421A60019B0BB1BD
:108B0000C3F800C0012003B0BDE8F08FE81C0020CE
:108B100024FAFFFF01207047054B0022C3F8B42A56
:108B2000C3F8B82AC3F8BC2AC3F8C02A012070478A
:108B3000E81C00200A4BD3F8C42AD3F8C01A521AF2
:108B4000FA2A9FBFD3F8B42AC286D3F8B82AD3F83A
:108B5000BC3A9DBF0287438701200020704700BFB9
:108B6000E81C002012B10B0E00F8013B0B0C037047
:108B70000B0A43708170704700487047B0000020B6
:108B80002DE9F041476906468846002F59D1036810
:108B9000C3F30D0515B3D8F800803568FFF704FB63
:108BA000092840F08780454C236923F440732361F2
:108BB000236943F400732361236943F001032361B4
:108BC000C5F80080FFF7F0FA2369092823F00103B4
:108BD00023616FD133680433336032E0384A934203
:108BE00029D302F58042934224D302F58042934276
:108BF0002AD3344A934229D902F58032934227D9A5
:108C000002F50032934225D902F50032934223D96E
:108C100002F50032934221D902F5003293421FD966
:108C200002F5802293421DD9B3F1016F1CD30520B8
:108C300009F0BAF80825FFF7B7FA092816D04FF05F
:108C4000FF373846BDE8F0811025F4E71825F2E734
:108C50002025F0E72825EEE73025ECE73825EAE780
:108C60004025E8E74825E6E75825E4E7134C236963
:108C700023F440732361236943F400732361236960
:108C800023F0F803236123691D4345F002052561A4
:108C9000236943F480332361FFF786FA236923F0C5
:108CA000020323612369092823F0F80323613FF4B9
:108CB00072AFC4E76FF00107C3E700BF003C02409A
:108CC00000400008FFFF000803682DE9F04104465A
:108CD0004068134483421AD80D468E1804F10C07DD
:108CE0004FF00008B54202D16069BDE8F081236908
:108CF0005A1C2261234415F8011B1973042AF1D16F
:108D000039462046FFF73CFFC4E90480EAE74FF00C
:108D1000FF30EAE72DE9F347038A8689B6B20546B4
:108D20000C461E404FF0004901F14C0701F1340898
:108D300016B902B0BDE8F087B6FA86F329FA03F255
:108D4000D24391B2298216401B3B002C40D0042B09
:108D5000EED8DFE803F039342E280300E368D5F8B5
:108D60002CA02BB19B681BB11FFA8AF1201D9847DC
:108D7000636A33B19B6823B11FFA8AF104F11C00C6
:108D80009847E36B2BB19B681BB11FFA8AF14046F1
:108D90009847636D002BCBD09B68002BC8D01FFA7F
:108DA0008AF1384603E0E368696B5B68201D9847E9
:108DB000BEE7636AA96B5B6804F11C00F7E7E36B2D
:108DC000E96B5B684046F2E7636D296C5B68E8E736
:108DD000042B06D8DFE803F00D0B09070300EB6A4C
:108DE0000193019BA4E76B6BFAE7AB6BF8E7EB6BC6
:108DF000F6E72B6CF4E72DE9F0410D4DDFF83480F8
:108E00002C686B6901271C400CB9BDE8F081B4FAED
:108E100084F3C3F11F0307FA03F608EB830324EA84
:108E20000604D3F8C80A036898476E61ECE700BFF0
:108E3000003C0140E81C002090F84820531C0244EC
:108E4000DBB280F8483082F8341090F849200AB13B
:108E5000132B01D948F070BC7047002280F84920DC
:108E600048F06ABC70B50F4E96F8083B002BFBD15A
:108E700004464518AC4201D1002070BDD6F82C390B
:108E800014F8011BF2180133C3F30A0382F8091B1B
:108E9000C6F82C39FFF7F2FA0028EBD1012008F0D0
:108EA0006EFFF7E7E81C002038B50C461146FFF7C7
:108EB000CDF948B1054D002AD5F8C43A04DD204665
:108EC000FFF7D0FFD5F8C43A38BD00BFE81C00203A
:108ED000F0B590F8CF5590F8CE1590F8D12590F8D0
:108EE000D03590F8CC7590F8CDC501EB05218DB249
:108EF00003EB022390F8D31590F8D22585B002EB4E
:108F0000012207F01F06012192B29BB28E42044655
:108F10008DF808708DF809C0ADF80A50ADF80C3026
:108F2000ADF80E20C0F8402180F8111100F00C813E
:108F3000022E00F01D81002E40F09B81BCF1090F34
:108F40005ED8DFE81CF0B600F4005D00C8005D00EC
:108F500057000A005D00A90076002E0A022EADF827
:108F600006200BD0032E25D0012E49D1D0F8EC35A8
:108F70001B68A0780DF10601984709E0D0F8E435A8
:108F800080789B6A0DF1060198474670C4F8F00599
:108F9000BDF80620002A47D0BDF80E30002B43D084
:108FA0009A4228BF1A46ADF806200146204647F0EF
:108FB000C7FE39E0E9B2052922D8DFE801F003074E
:108FC0000B0F1317D0F8EC355B68D2E7D0F8EC350F
:108FD0009B68CEE7D0F8EC35DB68CAE7D0F8EC3513
:108FE0001B69C6E7D0F8EC355B69C2E7D0F8EC3511
:108FF0009B69BEE71A4303D190F81231032B03D1CA
:10900000204647F0C9FD0FE0016905F07F0680F8B2
:1090100014610B6865F30A121A430A6047F0A4FE54
:109020002EB1022384F81231002005B0F0BD0123D7
:10903000F8E7E9B2904D012985F81112E0D890F8CF
:109040001231022B0FD0032BDAD1C1B9022380F8E1
:109050001231D0F8E43580F810115B68984720464B
:1090600047F082FEE0E70029F9D00121032380F8D0
:10907000101180F81231204647F050FDEFE790F8CC
:1090800010110129EBD0D0F8E4355B68984795F8CA
:10909000111284F81011EEE7012AB1D190F81231C3
:1090A000022B04D0032BABD100F588717EE7734906
:1090B0007CE790F81231023B012BA1D86E4B0022C5
:1090C000C3F81822D0F8182112B10222C3F81822CE
:1090D0006B4902226AE7012D08D1C0F81851D4F873
:1090E000E43502A99B6820469847B8E7022D9BD13A
:1090F000DAB2002A98D102691B0A023B5268032B9C
:1091000003D8DFE803F00C0E1012012363F30612FC
:10911000594BC3F81C22012384F816319FE7022320
:10912000F4E70323F2E70423F0E70523EEE790F8E2
:109130001231023B012B3FF663AF012D7FF474AF78
:109140000023C0F81831CAE790F81221032A7FF4EF
:1091500057AFDBB2012B3FF653AFD0F8E43502A98D
:109160009B689847BDF80E30002B7FF45DAF76E723
:1091700007F06007202FD9B205D1D0F8E43502A955
:109180009B68984750E7BCF1010F31D0BCF1030F49
:109190001ED0BCF1000F7FF447AF90F81221022AD5
:1091A0005AD0032A7FF42CAF13F0800F4FF028021F
:1091B000314B59D001F07F0102FB010191F81E21D2
:1091C000002A4FD00122C3F820222E490222EDE6C8
:1091D00090F81231022B3FD0032B7FF411AF002DFA
:1091E0007FF47DAF4A063FF47AAF47F0A3FC76E701
:1091F00090F81221022A2FD0032A7FF401AF002D0C
:109200007FF412AF11F07F003FF429AF5BB2002B67
:109210004FF02802B5BF02FB004102FB014101F5FE
:109220008E7101F55D710022DB0F08708A704B7042
:1092300004EB8000C9786BB18269136802396FF35F
:10924000555301298CBFC3F30071012161F31C73D5
:10925000136044E7426DF0E74B063FF4E5AE47F09C
:1092600069FCE1E60022AEE702FB010191F87623FA
:10927000A6E707F08001F2E7E02D0020F42F0020A0
:10928000F82F00200030002010B5044671BB90F884
:109290001131032B1BD1D0F89023D0F87C339A42A4
:1092A00017D9C178012908BFD0F88013A2EB0302B7
:1092B00004BFC918C0F88013934228BF1346C0F8F2
:1092C00090239BB2D0F88023002147F0FDFD0020C1
:1092D00010BDD0F8E4351B6923B190F81221032AA0
:1092E00000D19847204647F03FFDF0E7D0F8E4353D
:1092F0009B69002BEBD090F81221032AE7D1984705
:10930000E5E770B50A7812F0600406460D462AD0EB
:10931000202C2FD1CC884B78FCB112060CD51F49DC
:1093200022461846FFF768F8EA881C49304647F09D
:1093300007FD0024204670BD194A1360194A032313
:10934000C2F80C4880F81131C0E9E444234602F524
:109350000162002147F0B8FDEBE7022211441846F4
:10936000FFF74AF8E6E74B780A2B08D00B2B0BD017
:10937000062BDFD1304647F00FFC0224DAE70A491A
:10938000012247F0DDFCD5E78B781BB9074BC3F80A
:109390002442CFE747F000FCCCE700BFF8240020D0
:1093A00000000020E81C002004300020E02D0020F8
:1093B00010B5282303FB0101074AB1F88C130446BA
:1093C0001046FFF76EF82046034A4023012147F07C
:1093D0007BFD002010BD00BF0830002070B50F4D90
:1093E000D5F87032044643B195F8742295F8883266
:1093F000134302D1012147F09DFB8121204647F014
:1094000099FB95F88832022B07D12046044ABDE823
:1094100070401F23012147F057BD70BDE02D002093
:1094200048300020002310B519460446402247F07A
:10943000EAFB402280212046002347F0E4FB012381
:1094400084F81231D4F8E835A0785B68984700209A
:1094500010BD38B5402204460223812147F0D3FBDA
:10946000204602234022012147F0CDFB2046032362
:109470000822822147F0C7FB084B0222002583F80F
:109480004B2083F84C50FEF7A3FF01212046044AED
:10949000402347F019FD284638BD00BF00000020DA
:1094A0000830002010B58121044647F083FB204698
:1094B000012147F07FFB2046822147F07BFBFEF72E
:1094C00093FF002010BD10B58121044647F072FBC8
:1094D0002046012147F06EFB024B002083F88902F1
:1094E00010BD00BFE02D002038B5264C94F8082BA5
:1094F000012A034633D12448D0F88C221AB984F8C3
:10950000082B002038BD402AD4F8281919D9403A30
:1095100001F14005C0F88C22C4F8285940221B48AC
:1095200010FA81F1C3E9541140F201100021C3E99E
:109530005621A3F8440103F5A271184647F02BFC0D
:10954000DFE702EB0105C4F828594FF00005C0F829
:109550008C520ABF022092B284F8080BDFE7022A7D
:10956000CFD1002540F20112C0E95455C0E956554B
:10957000A0F8442100F5A27147F00DFC84F8085BC7
:10958000BFE700BFE81C0020E02D0020F1270020ED
:1095900038B52A4CD4F890320F2B03F1010203D0D6
:1095A000C4F89022002038BD254A0023C4F8903228
:1095B00092F8083B002BF5D1D2F82819B1F5006FCD
:1095C00008BFC2F82839D2F82819D2F82C399942A4
:1095D00003D1002382F8083BE4E78CBFC1F50063A8
:1095E0005B1A402B1BD9403B01F14005C4F88C327B
:1095F000012382F8083BC2F828594023114A12FA85
:1096000081F140F20112A0F844210022C0E9541176
:10961000C0E9563200F5A27147F0BDFBC2E701EB8D
:109620000305C2F828594FF00005C4F88C520EBF4C
:10963000022401249BB282F8084BDFE7E02D0020D2
:10964000E81C0020F127002070B50446144EFFF7F7
:109650003AFF204602234022812147F0D4FA4022DB
:1096600001212046022347F0CEFA0025D6F8943295
:1096700086F889521B6886F8885228469847E06821
:1096800047F06CFEE068012147F07EFE20461F2374
:1096900006F51A72012147F017FC284670BD00BF7D
:1096A000E02D00202DE9F843089D0E4617460021C5
:1096B0002022044698464CF0C6FF4DB12B68E3814A
:1096C0001A0C6B682282E3821A0C6B8922836382F4
:1096D000304648F0AFFAFB0604D400F1FF39B9F187
:1096E000FF3F41D1082802464FF0FF39A8BF0822AA
:1096F00000254FF0203323606360314620464CF054
:1097000069FD234A228104F1080309F10101A272D3
:1097100018462A4631444CF05DFD621E0346E01DAA
:1097200012F8011FA1F16105192D9CBF203911709C
:109730008242F5D1184604F10B0210F8013BA3F167
:10974000610119299CBF203B00F8013C9042F4D1F3
:10975000182323734FEA1843A382099BE772A4F8E6
:109760001A80E361BDE8F88316F809302E2B02D089
:1097700009F1FF39B3E74A46A0EB0905082A05F1CC
:10978000FF35A8BF0822032DA8BF0325B1E700BFFE
:10979000202020002DE9F04FB54F85B016469946A0
:1097A0000D1D2C1FB9F1000F03D1484605B0BDE8CF
:1097B000F08FD7F8502AB24200F2B780D7F860AAEB
:1097C000A6EB02084FEAD803DAF8302002339342BE
:1097D00008F0070803D3DAF83820934218D9514625
:1097E0001846039345F0A1F9039B824670B9A5F191
:1097F000080305F5FC729F4943F8041F9342FAD110
:1098000009F1FF39013605F50075CAE7C7F8600AA6
:109810009AF80420002A6DD04FF4007200212046EF
:109820004CF011FFDAF84030B8F1000F47D1CDE924
:10983000008805F11C0B43BB43462046D7F83C1A71
:109840000822FFF72FFF5C464FF4F073DAF84480EC
:1098500004EB030AB8F1000FD2D05445D0D098F8E9
:109860000420D8F80010D8F8303004F1200B08F1AB
:109870001C00B2B30022CDE9000211222046FFF7FE
:1098800011FF5C46D8F84880E4E7DAF830307A49CE
:1098900011222046FFF706FFDAF840301A6C05F176
:1098A0003C04CDE9008842B9434674491122584628
:1098B000FFF7F8FE4FF4E073C8E71B6BF5E7002BEA
:1098C0000CBF01220222C2EB0812DAF84480B8F180
:1098D000000F03D0013AD8F84880F8D14FF4007354
:1098E000B6E798F805C0D8F81020CDE900024CF092
:1098F0002102C3E7DAF828B0BBF1000F06D14FF41C
:109900000072002120464CF09EFE79E7DAF8302004
:109910009B1ADAF80C2008EBC30802EB48225346E6
:109920004FF400712046D8476AE7002E64D14FF407
:109930000072314620464CF086FE802385F8BA310D
:109940000C2385F8BE31D7F8402A4D49D7F8383A6C
:10995000C4F8C6218A42C4F8CA3118DDFF2285F84E
:10996000BB2185F8BD2185F8BC21454A013B9342C6
:1099700028DDFF2385F8BF3185F8C13185F8C03176
:10998000552385F8FA31AA2385F8FB3138E73F21C2
:1099900092FBF1F1C1EB811C43F6C16492FBF4F43C
:1099A000A2EB0C02A01020F03F000132024385F828
:1099B000BC21FF2291FBF2F2114485F8BD4185F8EC
:1099C000BB11D2E73F2293FBF2F2C2EB821443F6C3
:1099D000C16093FBF0F01B1B811021F03F010133AC
:1099E0000B4385F8C031FF2392FBF3F31A4485F84B
:1099F000C10185F8BF21C3E7D7F8443A9E4241D15F
:109A00005223237063706123A37084F8E731D7F881
:109A1000583AC4F8E8314FF000084FF0FF334122C4
:109A20007221E27084F8E41184F8E51184F8E621EB
:109A300084F8EC3184F8ED3184F8EE3184F8EF31BC
:109A40004FF4F072414628464CF0FDFD5523C5F811
:109A5000EC81C5F8F081C5F8F48184F8FE316FF02F
:109A6000550384F8FC8184F8FD8184F8FF31C7E652
:109A7000E81C0020DEADBEEFD7380608D638060851
:109A8000FF03FB00D7F8403A9E426DD14FF40072BD
:109A9000002120464CF0D7FDEB2305F8043C3B4A5F
:109AA000582305F8033C902305F8023C136845F859
:109AB000013C5368C5F80330022200234FF0080C24
:109AC000F821E372227385F809C0A273E373697405
:109AD0003F212A7321764FF0FF31A1763E21D7F83E
:109AE000400A2177D7F8381A84F82C20091A216205
:109AF000D7F8480AD7F84C1A63760122091AE37698
:109B00006377A377E37784F82D3084F82E3084F8D8
:109B10002F30616284F8302084F83130802385F85A
:109B20003C30292385F83E30942385F83F300E23BE
:109B300085F840300D2385F84130154B85F842C03B
:109B40001A68C5F843205A68C5F847201A89A5F84D
:109B50004B20104A9B7A85F84D301368C5F84E307B
:109B60005368C5F852300BE7D7F8481AD7F84C3A83
:109B70008E4206D39E4207D2711A204644F0F8FF67
:109B80003EE69E42FFF4BBAEF11AF6E71503060867
:109B90001E0306082A03060813460A46014618460D
:109BA00031F072B9024BD3F8980207F09DBF00BFA5
:109BB000E02D002008B5006846F011FE024BC3F806
:109BC0009C0A012008BD00BFE81C002008B5006801
:109BD00046F005FE024BC3F8B00A012008BD00BFE5
:109BE000E81C002010B50D4B0D4CD3F8C43AD4F846
:109BF0009C021B1AFA2B06D9042019F085F90020C3
:109C000084F8A00210BD11B1D4F8A4320B6012B1D7
:109C1000D4F8A83213600120F4E700BFE81C00204C
:109C2000E02D002007B58DF8070006480123D0F885
:109C3000AC020DF10702002147F0F8FD03B05DF81A
:109C400004FB00BFE02D002013B50C4C94F8B002CB
:109C500068B10523D4F8AC02ADF800306A4602239F
:109C600001A947F0E3FD9DF8050000F0010084F82C
:109C7000B00280F0010002B010BD00BFE02D002056
:109C800038B558B90A4BD3F8B4420A4DFFF7DCFF98
:109C900048B1074B0022C3F8B42208E0054BD3F8C3
:109CA000C44A0444F1E7D5F8C43A9C42EED838BD22
:109CB000E02D0020E81C002010B50020FFF7E0FF99
:109CC00088B1094C0620FFF7ADFF0123C72084F8B7
:109CD000B032FFF7A7FF054BD3F8C43A03F5A4430E
:109CE0000833C4F8B43210BDE02D0020E81C002079
:109CF00073B5164C94F8B8620146D82300250DF1CF
:109D00000100324600938DF80450FEF72BFF2846E1
:109D1000FFF7B6FFB8B10620FFF784FF0123AE427C
:109D200084F8B032D4F8AC0214BF052304236A4689
:109D3000294647F07BFD064BD3F8C43A03F59C5304
:109D40000833C4F8B43202B070BD00BFE02D00206B
:109D5000E81C0020F0B51A4E154696F8B82289B0D6
:109D600000270223BA420093CDE9061514BF05234C
:109D70000423014604460DF10100CDE904378DF8B6
:109D800004700297CDF80CD0FEF7ECFE3846FFF7D2
:109D900077FF88B10620FFF745FF0123D6F8AC0214
:109DA00086F8B03202A947F018FD064BD3F8C43A42
:109DB0000633C6F8B4322C44204609B0F0BD00BFCB
:109DC000E02D0020E81C002070B5144E144696F8D3
:109DD000B82288B000250323AA42009314BF0523AC
:109DE0000423CDE9043101460DF10100CDE906540B
:109DF0008DF804500295CDF80CD0FEF7B3FE28463E
:109E0000FFF73EFF38B1D6F8AC0202A947F0E5FCF7
:109E1000204608B070BD0446FAE700BFE02D0020E0
:109E20000E49D1F8883043F47003C1F888300C4BE8
:109E30001A68002042F001021A6098601A6822F045
:109E4000847222F480321A60064A5A601A6822F438
:109E500080221A60D860044B8B60704700ED00E0F0
:109E6000003802401030002400000008704700282D
:109E7000ACBF00F16040074B4FEA0111ACBF00F5E9
:109E8000614000F00F00C9B2B4BF195480F800134C
:109E9000704700BF14ED00E0064B03EB80008368C1
:109EA00033B193F83D204A7093F83C300B70704703
:109EB0004B70FBE7806705080148FEF7DEB800BF7E
:109EC000C40000200148FEF7D8B800BF10030020EE
:109ED0000148FEF7D2B800BF5C0500200148FEF73C
:109EE000CCB800BFA80700200148FEF7C6B800BFE5
:109EF000F40900207047704770B5002828D04C68DE
:109F00004CB9426815685679AB8902229BB2B240BF
:109F100023EA0203AB818A683AB943681D68AB89BA
:109F200023F001031B041B0CAB81816044B1446826
:109F3000216864798D890223A3402B439BB28B81D6
:109F400032B143681A6893899BB243F0010393814D
:109F500070BD43685A79032A0FD8DFE802F0020582
:109F6000080B186834307047186838307047186824
:109F70003C3070471868403070470020704710B57B
:109F800043681A685879084B0344012093F8284025
:109F9000138CA0409BB223EA00031384138CA140CE
:109FA000194389B2118410BD806705080C4A0D4B16
:109FB0009042D3F83C3C10D002F5806290420CD025
:109FC00002F57052904208D002F58062904204D0AF
:109FD00002F58062904218BF5B081846704700BFC8
:109FE000000001400000002038B503681B681C68B1
:109FF0004368186807EE902AFFF7D8FF07EE100AAB
:10A00000F8EE677AB8EE477A013987EE270A8DB203
:10A01000DFED1D7A30EE270A49F0BCF91B4A238890
:10A020000138944280B29BB212D002F58062944211
:10A030000ED0B4F1804F0BD0A2F58032944207D0FD
:10A0400002F58062944203D002F58062944202D10C
:10A0500023F070039BB20E4A944206D002F5806250
:10A0600094421CBF23F440739BB22380074BE562EC
:10A070009C42208503D003F580639C4201D10023DC
:10A0800023860123A38238BD0AD7233C0000014068
:10A0900000100040024B0348D3F8BC12FEF73ABE52
:10A0A000E02D00200000014010B5064C0648D4F811
:10A0B000BC12FEF72FFED4F8DC120448BDE81040B5
:10A0C000FEF728BEE02D00200000014000400140C6
:10A0D00010B5064C0648D4F8BC12FEF71BFED4F8A7
:10A0E000E0120448BDE81040FEF714BEE02D002049
:10A0F000000001400044014010B5064C0648D4F869
:10A10000BC12FEF707FED4F8E4120448BDE8104084
:10A11000FEF700BEE02D0020000001400048014095
:10A12000034B4FF08040D3F8C012FEF7F3BD00BFE1
:10A13000E02D0020024B0348D3F8C412FEF7EABD1D
:10A14000E02D002000040040024B0348D3F8C81261
:10A15000FEF7E0BDE02D002000080040024B034860
:10A16000D3F8CC12FEF7D6BDE02D0020000C004045
:10A17000024B0348D3F8D812FEF7CCBDE02D0020E7
:10A180000004014010B5064C0648D4F8D812FEF77A
:10A19000C1FDD4F8E8120448BDE81040FEF7BABD8E
:10A1A000E02D0020000401400018004010B5064CCE
:10A1B0000648D4F8D812FEF7ADFDD4F8EC120448E6
:10A1C000BDE81040FEF7A6BDE02D002000040140D0
:10A1D000001C004010B5064C0648D4F8D812FEF713
:10A1E00099FDD4F8F0120448BDE81040FEF792BD86
:10A1F000E02D002000040140002000400348D0F87A
:10A200004C3C13B100F54460184770470000002033
:10A210000348D0F86C3C13B100F54660184770470E
:10A22000000000200348D0F88C3C13B100F54860D2
:10A2300018477047000000200348D0F8AC3C13B129
:10A2400000F54A6018477047000000200348D0F826
:10A25000CC3C13B100F54C6018477047000000205B
:10A260000348D0F8EC3C13B100F54E601847704736
:10A27000000000200348D0F80C3D13B100F55060F9
:10A2800018477047000000200348D0F82C3D13B158
:10A2900000F5526018477047000000200348D0F8CE
:10A2A0004C3D13B100F55460184770470000002082
:10A2B0000348D0F86C3D13B100F55660184770475D
:10A2C000000000200348D0F88C3D13B100F5586021
:10A2D00018477047000000200348D0F8AC3D13B188
:10A2E00000F55A6018477047000000200348D0F876
:10A2F000CC3D13B100F55C601847704700000020AA
:10A300000348D0F8EC3D13B100F55E601847704784
:10A31000000000200348D0F80C3E13B100F5606047
:10A3200018477047000000200348D0F82C3E13B1B6
:10A3300000F562601847704700000020036823F0B2
:10A34000010303600023036043608360C360036113
:10A35000212343612A4B984203D13D2243F8082C24
:10A360007047284B984204D14FF4746243F8202C74
:10A370007047254B984204D14FF4741243F8382C9F
:10A380007047224B984204D14FF0746243F8502C2E
:10A3900070471F4B984203D11E4A43F8642C704704
:10A3A0001D4B984203D11D4A43F87C2C70471C4B2F
:10A3B000984203D11B4A43F8942C70471A4B984299
:10A3C00004D14FF03D5243F8AC2C17E0174B9842A4
:10A3D000C3D0174B9842C7D0164B9842CCD0164BDF
:10A3E0009842D1D0154B9842D6D0154B9842DAD02E
:10A3F000144B9842DED0144B9842E2D0704700BF15
:10A4000010600240286002404060024058600240F4
:10A41000706002403D00002088600240400F002034
:10A42000A060024000003D20B8600240106402407D
:10A430002864024040640240586402407064024054
:10A4400088640240A0640240B86402402DE9F041F3
:10A450000022012603250B6806FA02FC3CEA0303EE
:10A4600031D10368540005FA04FE23EA0E030360A9
:10A470000B79D0F800806FEA0E0703FA04FE013B67
:10A480004EEA080E012BC0F800E011D883681F4087
:10A4900087604B798768A3403B438360436823EA26
:10A4A0000C0343608B79476893409BB23B43436006
:10A4B000C36805FA04F723EA0703C360CB79C768CA
:10A4C000A3403B43C3600132102AC4D1BDE8F081F0
:10A4D0002B4A936803F00C03082B10B523D00C2BE8
:10A4E00039D0042B14BF274B274B254C0360A3689E
:10A4F000264AC3F30313134493F8401E0368CB406A
:10A500004360A168C1F38221114491F8401E23FAEF
:10A5100001F18160A168C1F342310A4492F8402EF2
:10A52000D340C36010BD5368516813F4800F01F02D
:10A530003F01536814BF144A124AB2FBF1F1104AAA
:10A540005268C3F388134B43C2F3014201325200F5
:10A55000B3FBF2F3C9E75368516813F4800F01F0BD
:10A560003F01536814BF084A064AB2FBF1F1044A9E
:10A570005268C3F388134B43C2F30272E6E700BF8D
:10A58000003802400024F40000127A00000000208D
:10A59000F0B5446B8668A38923F400531B041B0C9D
:10A5A000A3818279278A0546BFB2100312F0040FF7
:10A5B0004FEA022100F400506A7927F4405740EA3C
:10A5C0000700208214BF4FF4805C4FF0000C12F0A3
:10A5D000010F0CBF002304239207A28922F4B0527A
:10A5E00001F4806122F00C0248BF43F0080341EA05
:10A5F0000C0112040B43120C1A43A281A38A23F408
:10A6000040731B041B0C85B0A3826846FFF760FFF4
:10A61000214B9C4203D003F580639C423AD1039BBB
:10A62000A2891921170401FB03F34FF064014CBF09
:10A630007600B600B3FBF6F3B3FBF1F001FB103389
:10A640000201A08900044BBFDB001B01323332330F
:10A650004BBFB3FBF1F3B3FBF1F303F0070303F0DC
:10A660000F0313439BB223816A6BAB7913F0080F7E
:10A67000938A0BBF23F008039BB21B0443F008032B
:10A6800008BF1B0C938293899BB243F400539381C0
:10A6900005B0F0BD029BC3E700100140816077E781
:10A6A000417175E7F0B587B0002300930193884BA3
:10A6B0001A6842F480321A601A6802F40032019279
:10A6C000009A01320092019A1AB9009AB2F5A04F8D
:10A6D000F2D11B6813F4003318BF01230193019BCF
:10A6E000012B40F0C8807A4B1A6C42F080521A64F9
:10A6F000784A116841F440411160996899609968FD
:10A7000041F400419960996841F4A05199607249FF
:10A710005960196841F08071196019688E01FCD583
:10A72000136843F4803313606A4B5A68D503FCD531
:10A730001A6842F400321A605A689403FCD5674BD9
:10A7400040F205721A60A3F580639A6822F0030252
:10A750009A609A6842F002029A609A6802F00C02CB
:10A76000082AFAD19A685E4C02F00C02082A00F01E
:10A7700084800C2A00F09880042A14BF594B5A4B4D
:10A78000C4F83C3C524B594D9A685948C2F30312E5
:10A790002244002692F8501ED4F83C2CCA40C4F83B
:10A7A0003C2C544AEA605A6F534AAA605A6B22F012
:10A7B00080025A635A6F42F080725A67196B4F4A8F
:10A7C0000A431A635A6B5A631A6C42F0875242F476
:10A7D000F61242F41F6242F00F021A64596C484AA2
:10A7E0000A435A6402A948F2FF73CDE902364FF6D4
:10A7F000FF77FFF72BFE00F580600297FFF726FE3C
:10A8000000F580600297FFF721FE00F58060FFF7FA
:10A810001DFE00F58060FFF719FE0846FFF758FEA1
:10A82000029B384AB3FBF2F3374AC2F8F432D5F848
:10A83000FC30364A43F08073C5F8FC30344BC3F823
:10A84000B02F5E601A6842F001021A60D4F83C3CF6
:10A850004FF47A72B3FBF2F3013BB3F1807F08D27D
:10A860004FF0E0225361F02385F8233007239661EF
:10A87000136107B0F0BD00BFFDE759685A685B6817
:10A880004802C3F388134CBF1749164902F03F0230
:10A89000B1FBF2F253430E4A5268C2F30142013255
:10A8A0005200B3FBF2F36BE759685A685B684902E0
:10A8B000C3F388134CBF0C490A4902F03F02B1FBB5
:10A8C000F2F25343024A5268C2F30272E7E700BF52
:10A8D000003802400070004008544077003C0240BD
:10A8E000000000200024F40000127A0000ED00E0D7
:10A8F000000002400003FA05000000081F906700F6
:10A900003357070040420F00E02D002055CEACC564
:10A91000001000E082B000230193054B0193019BDE
:10A9200003EB80000190019B196002B0704700BFEB
:10A930005028004082B000230193054B0193019BF6
:10A9400003EB80000190019B186802B0704700BFC4
:10A9500050280040436D064A1A61C278012A06D188
:10A9600000F2CC5058611A684FF080221A6070478C
:10A970001800086038B5044600296FD190F81131ED
:10A98000022B2AD1D0F83821D0F824118A4232D9AA
:10A99000C378012B04BFD0F828315B18A2EB010269
:10A9A00008BFC0F828314FF48071D0F82831C0F8C2
:10A9B0003821002592B2A0F81C11C0F82C31C0F843
:10A9C0003451C0F8302100F58E7146F067F92B46FE
:10A9D0002A462946204646F077FA94F81631012B8C
:10A9E00007D1244A2369D2F81C225A60002384F834
:10A9F0001631002038BDD0F83C31B3FBF1F501FB36
:10AA00001535A5B9994212D8D0F8402193420ED2FB
:10AA10004FF48073C0E94A55C0E94C55A0F81C3189
:10AA200000F58E7146F03AF9C4F84051CFE7D4F8FA
:10AA3000E435DB682BB194F81221032A01D12046BA
:10AA40009847052384F81131002320461A461946F9
:10AA500046F03AFA2046FFF77DFFBEE7D0F8E4352E
:10AA60005B69002BC5D090F81221032AC1D1984709
:10AA7000BFE700BFE02D002070477047704710B55A
:10AA8000114C94F80233CBB14FF0E022D2F8103DD4
:10AA900023F00603C2F8103DFFF7C2F994F8023321
:10AAA00063B1D4F808339B68DB0707D5D4F80424D6
:10AAB000136823F0030161F307031360034B4FF4A2
:10AAC00080225A6110BD00BFE02D0020003C0140F3
:10AAD0002DE9F04F974CD4F804335A69D0078DB064
:10AAE00000F1A5825A699B691340019300F09F828F
:10AAF000C3F307430293019B190311D5D4F808331C
:10AB0000DFF83C929E69DB6904F53E7B1E40360C03
:10AB100004F553774FF00008DA46002E40F0168116
:10AB2000029B5A070FD5D4F80833834E9F69DB691F
:10AB30001F40BFB2A6F118054FF00009A6F54478F2
:10AB4000002F40F04881019B9DF80470980741BF99
:10AB5000784BD3F8043302225A61019B002B1BDA95
:10AB6000744D95F802333BB1D5F80424136823F0F3
:10AB7000030161F307031360D5F808236F48536896
:10AB800023F0010353606E4BD3F8783E9847D5F815
:10AB900004334FF000425A61019B1905C3F30726A5
:10ABA00031D5644D00238DF81F3095F80A348DF8A7
:10ABB0001F30634B05F53E70D3F8743E9847D5F8C7
:10ABC0000423D5F808334FF400619B68516195F870
:10ABD0000223C2B1DA0716D595F80D34012B12D134
:10ABE0009DF81F30032B0ED1D5F804341A6842F0BB
:10ABF00001021A601A6842F003021A60514A13698E
:10AC000043F0060313613B070AD54A4D4C4B05F54B
:10AC10003E70D3F86C3E9847D5F8043308225A6149
:10AC2000FD0615D5434BD3F80403826922F01002C8
:10AC30008261026AC2F34341022902F00F0500F06B
:10AC40008781062900F0AB81836943F0100383619B
:10AC5000F00637D5374DD5F80823D5F804035368E7
:10AC6000002723F001035360394646F08DFBB846B8
:10AC700095F8F9023B4605F54475FF218342C0F083
:10AC80009C81D4F808332D484FF0FF329A614FF081
:10AC90000112DA610B2262F3070762F307085F61B2
:10ACA000C3F810801A686FF30A121A60FFF752FE99
:10ACB000D4F8043321484FF480525A61204BD3F822
:10ACC000703E9847B10640F194811A4CD4F808338D
:10ACD000D4F8100399680268C1F34101022906BF44
:10ACE000032161F30A026FF30A0202605A6842F418
:10ACF00080725A6008A8FFF7EBFBD4F80413D4F86D
:10AD00000803CB68099A6FF38D23CB6085680E48E2
:10AD1000C5F34105284490F82C00032840F05481E5
:10AD2000002284F8FA224FF40072A4F8FC220922CF
:10AD300059E100BFE02D0020F0300020D830002085
:10AD40000000002000ED00E080670508F2073BD519
:10AD50005FFA88F104EB8103D3F84C339D68D4F893
:10AD600008335B691D40EB0720D594F8FB023B6874
:10AD70000125A8429D6007D11869DBF87C33C0F338
:10AD800012001B1ACBF88C33D9F8603E5046984716
:10AD900094F8FB32012B09D1B8F1000F06D194F8D9
:10ADA0000934052B02D15046FFF7D4FDA80742BF56
:10ADB0003B6802259D60290706D5D9F8683E5046B4
:10ADC00098473B6808229A6008F101087608043722
:10ADD0000BF1280BA1E6FB0777D5D8F808335FFA0B
:10ADE00089FA1969586B08EB8A0220FA0AFBD2F833
:10ADF00010234FEACB1B92685FFA8BFB4BEA010BE7
:10AE00000BEA020B1BF0010F1ED05A6BA8484FF043
:10AE1000010B0BFA09F122EA01025A633368C3F805
:10AE200008B0A44B5146D3F8643E984798F8FB32DB
:10AE30005B4509D1B9F1000F06D198F80934042B0C
:10AE400002D19B48FFF786FD1BF0080F1EBF336839
:10AE50004FF0080BC3F808B01BF0100F1EBF33688B
:10AE60004FF0100BC3F808B01BF0400F1EBF336843
:10AE70004FF0400BC3F808B01BF0020F1EBF336841
:10AE80004FF0020BC3F808B01BF0800F1DD0D5E9BE
:10AE90004C329B1AD5F82421D6F800E098F8FBB282
:10AEA000DEF81800934228BF13460333D8F808236E
:10AEB00003920AF1320A9B0808EB8A0A80B2984290
:10AEC00003D9D5E94C03984205D809F101097F0857
:10AED0000436283534E6C01AD5F82431984228BF04
:10AEE0001846C31C9B08BBF1000F1CD0D5F82811D5
:10AEF000D5F834210144C5F82811D5F830110244A1
:10AF00008A42DEF81800C5F83421D7D1039A95F8A3
:10AF10001C11526B4FF0010C0CFA01F122EA0102F4
:10AF200003994A63CAE7D5F82821049282B2DAF875
:10AF30000013033292108C4605925946059A8A42B4
:10AF4000D4D0049A52F82120CCF800200131F5E742
:10AF500047F6F07111423FF477AE282101FB05312D
:10AF6000C2F30A12D71CD3F8C8E3D1F878C6BF10D1
:10AF700000218F420DD1282101FB0533D3F878162B
:10AF80001144C3F87816D3F884160A44C3F884260B
:10AF90005AE6DEF800804CF821800131E9E7D3F869
:10AFA000C8130F68C3F8C4780968C3F8C818282103
:10AFB00001FB0533C2F30A12E5E755F8042B916053
:10AFC000AA6B0133916059E6012084F8FA0240200F
:10AFD000A4F8FC02A0F56400374CA0F562401044D0
:10AFE000A04227D80E2262F38D23CB604FF400538A
:10AFF0004B61029BDA060BD5304C2E4B04F53E70AC
:10B00000D3F87C3E9847D4F804334FF480125A6149
:10B01000029B9B060BD5294C264B04F53E70D3F8BA
:10B02000803E9847D4F804334FF400125A610DB0B3
:10B03000BDE8F08F224CA2F57400A0F51050A0429C
:10B0400001D80D22CFE71F481F4C1044A04201D267
:10B050000C22C8E71D4CA2F18C70A0F54340A04221
:10B0600001D80B22BFE71A481A4C1044A04201D263
:10B070000A22B8E71848194C1044A042FFF457AE12
:10B08000174CA2F1B770A0F55850A04201D2082287
:10B09000A9E71448144C1044A04201D20722A2E7A9
:10B0A00012481044124A904234BF062205229AE701
:10B0B000D8300020000000203F420F00E02D00208B
:10B0C000DFC810002013FBFE20D61300FF69180014
:10B0D00000D3CEFE40771B00C05BB3FEC0912100C1
:10B0E00040AC2700C01D6AFE40E13300803C36FEC4
:10B0F000E09C410070B5124D124BC5F8EC3840F29F
:10B100000112002385F88932A0F84421C0F85C318F
:10B1100005F6EC020D23C0E95422044685F8F81820
:10B12000C0F8583100F5A27145F035FE05F51A72E8
:10B1300020461F23BDE87040012145F0C5BE00BF79
:10B14000E02D00205553425310B5074B93F875126C
:10B15000044645F0D7FE002804DA20460121BDE868
:10B160001040C7E710BD00BFE02D0020F8B50B78F8
:10B1700013F0600506460C4638D0202D74D14A786D
:10B18000FE2A05D0FF2A1CD045F006FD02252BE043
:10B190004D88A5B9CF88012F11D11A060FD5334C90
:10B1A000D4F894329B699847C0B284F8FC0830B157
:10B1B0003A4604F6FC01304645F0C2FD14E0304644
:10B1C000E2E74A88002AFAD1CD88002DF7D11B0684
:10B1D000F5D4264A012182F8895282F888121F2369
:10B1E00002F51A7245F070FE2846F8BD4B780A2B1E
:10B1F00024D00B2B25D0012BF6D194F9043089886B
:10B20000C068002B22DA01F07F0146F0BDF82179F9
:10B21000164F304645F0CEFC0223217940223046BD
:10B2200045F0F1FC97F88832022B12D1812130468B
:10B2300045F080FC002387F88832D5E70C490122CD
:10B24000BAE70A4B4A8883F8FD28CDE746F086F82E
:10B25000DDE794F90420002AC6DA012BC4D00121CD
:10B260003046FFF747FFBFE70025BDE7E02D002090
:10B27000DD36002008B5084B93F88932022B07D041
:10B28000033B012B02D80021FFF734FF002008BD4B
:10B29000FFF75AFFFAE700BFE02D002070B52F4CF2
:10B2A00094F8896205461EB1012E54D0002070BD6D
:10B2B000D4F86C32C4F8F038D4F87032C4F8F438EA
:10B2C000B0F8B4331F2B0DD1D4F86822244B9A4226
:10B2D00008D194F87512012904D894F87632013B0C
:10B2E0000F2B0AD92021052043F08CFC022384F87F
:10B2F00088322846FEF772F8D8E745F003FE0028AA
:10B30000F7DB94F88932013B022BCFD9B4F8FE1851
:10B31000E9B1D4F8703284F8F868994228BF194628
:10B32000D4F8F4385B1AC4F8F438042384F889326A
:10B3300040F20113A5F844310A4BC5E95616C5E998
:10B34000543305F5A271284645F025FDAEE72846A1
:10B35000FFF7D0FEAAE7FFF7F7FEA7E7E02D0020F2
:10B3600055534243887200204A09012301F01F010E
:10B3700003FA01F150F82230194214BF01200020D5
:10B3800070474A09012301F01F0103FA01F150F847
:10B3900022300B4340F8223070474A09012301F064
:10B3A0001F0103FA01F150F8223023EA010340F8AB
:10B3B0002230704730B54D09024400EB8504A242AB
:10B3C0004FF0FF3323D901F01F018B4050F82510B7
:10B3D0000B4093FAA3F3B3FA83F3DBB2202B02D032
:10B3E00003EB451030BD211D91420C4602D34FF0B6
:10B3F000FF30F7E72368043193FAA3F3B3FA83F33A
:10B40000DBB2202BF0D0201A03EBC000EAE718468D
:10B41000E8E780EA0120082341F2210210F4004FFE
:10B420004FEA400018BF5040013B80B2F6D1704750
:10B4300038B50C468D18AC4200D138BD14F8011B4C
:10B44000FFF7E7FFF7E74840082310F0800F4FEAC7
:10B45000400018BF80F0D500013BC0B2F5D1704765
:10B4600010B50A440C46944200D110BD14F8011BDB
:10B47000FFF7E9FFF7E738B50A46056804460020FC
:10B48000AA4203D36B1C2360287038BD12F8011B3D
:10B49000FFF7D9FFF4E7DFED0A7AC0ED020A20EEEC
:10B4A000270AB7EE007AC7EE007A00230360C0EDEA
:10B4B000017A70EEA77A80EEA77A80ED037A704762
:10B4C000DB0FC94090ED017AD0ED007AC0ED020AA1
:10B4D00030EE877AC0EE876A30EE677AE6EE877ADA
:10B4E000B0EE670AC0ED007A7047012303700023B5
:10B4F000C364836403650364436443658362836553
:10B500007047DFED157A80ED010AF4EEE70AF1EEFF
:10B5100010FAC0ED020A80ED031AC0ED051A18DD1D
:10B52000B4EEE70AF1EE10FA10DD81EE007AC0EE1B
:10B53000207AF0EE006A77EE877A86EEA77A80EDC1
:10B54000047A80ED0F2AC0ED0E2ACEE700230361B6
:10B55000F7E700238360FAE7BD378635FDEEC07A52
:10B5600017EE903A2033402B43D8DFED237A9FED3E
:10B57000237AB4EEE70AF1EE10FA28DCDFED207A48
:10B580009FED1E7AB4EEE70AF1EE10FA22D4DFED59
:10B590001D7AB4EEE70AF1EE10FA1EDD30EE670A0E
:10B5A00037EEC00A60EE007ADFED176A9FED177A7A
:10B5B000A7EEA67ADFED166AE7EE876A9FED157AA9
:10B5C000A7EEA67A20EE276AA6EE070A704730EEAD
:10B5D000470ACEE730EE070AD4E79FED0F7AB4EEC4
:10B5E000C70AF1EE10FA44BF30EE270A37EE400AE0
:10B5F000D8E79FED0A0A7047DB0F4940DB0FC940CF
:10B60000DB0F49C0DB0FC93F9A7C2E36FAAF4FB92A
:10B610003587083CA4AA2ABEDB0FC9BF0000000082
:10B62000DFED027A30EE270A98E700BFDB0FC93F53
:10B6300038B51D46304BB3FBF2F39942B0EE405A99
:10B64000F7EE005A4FF000044FD207EE901A9FED2C
:10B650002B7ADFED2B6AF8EE677A67EE877A07EED2
:10B66000102AB8EE477A27EE267AC5EE876A87EE6B
:10B67000A64AB0EE440AFFF771FFF0EE404AB0EE82
:10B68000440AFFF7CDFF35EE055A012D84EE854AB9
:10B69000F0EE407A1CBF35EEE76AF6EE006AB8EECF
:10B6A000000A34EE257A12BF66EE266A27EE806A1B
:10B6B000F0EE656A86EE875AC6EE076A67EE807A14
:10B6C00075EEC45AC0ED016AC7EE876AC5EE877A87
:10B6D00080ED005A80ED025AC0ED036AC0ED047A95
:10B6E000846144610462C46138BDC0ED005A4460A5
:10B6F0008460C4600461F3E720A10700DB0FC94048
:10B70000BD3786359FED010A002391E7F304353FED
:10B71000B5EE400AF1EE10FA10B5F0EE406A0446BC
:10B720004FF00003084627D007EE902AF8EE670A8C
:10B73000DFED1A7A60EEA70A4CB9FFF7ACFEFCEE1B
:10B74000E66ABDE8104016EE903A99B2DAE7022CAC
:10B7500013D0032CF3D19FED120A0B6066EE806AC2
:10B76000B7EE007AC7EE267A4B608B6077EEA07A50
:10B7700080EEA77A81ED037A10BD9FED0A7A0B6007
:10B7800020EE077AB7EE006AC6EE077A4B6077EED6
:10B79000A07A80EEA77A81ED027AD0E7BD378635B0
:10B7A000F82F4541D2331C412DE9F041FCEEC07A1F
:10B7B00013460A4617EE901AD0F814808769C669B6
:10B7C000056AB0EE600A89B2FFF732FFC0F8148054
:10B7D0008761C6610562BDE8F081F0EEE06AB0EE17
:10B7E000C07AF4EEC76AF1EE10FAD4BFB0EE476A41
:10B7F000B0EE666AB5EE406AF1EE10FAF0EE405A2D
:10B8000046D0F4EEC76AF1EE10FA54BFB0EE475AD4
:10B81000B0EE665AC5EE067A9FED1F6A9FED1F5A7D
:10B82000DFED1F4AA7EE865A9FED1E6AA5EE276A36
:10B830009FED1D5AA6EE275A9FED1C6AA5EE276ABA
:10B840009FED1B5AE7EE854AB7EE005AA4EEA75AC1
:10B85000F1EE467A87EE850AF4EEC76AF1EE10FA49
:10B8600048BFDFED147AF5EEC00A48BF37EEC00AD4
:10B87000F1EE10FA48BFDFED107AF5EEC05A48BF7E
:10B8800037EEC00AF1EE10FA48BFB1EE400A704739
:10B89000DFED0A7AC0E700BF39094E3DE3B59EBE31
:10B8A00069A2163E88FA16BE45FE7FBFA7DFA8B480
:10B8B00099FB243FDB0FC93FDB0F4940000000002C
:10B8C00044F25063984203DDA0F50C40A038704765
:10B8D000034B9842BCBF00F50C40A030704700BF3E
:10B8E000B0B9FFFF48F69F43984203DDA0F50C4036
:10B8F000A03870470028BCBF00F50C40A03070474E
:10B9000091ED005A08B5B0EE450AFFF789FEF0EE5A
:10B91000405AB0EE450AFFF721FE91ED015AF0EED4
:10B92000404AB0EE450AFFF77BFEF0EE403AB0EE3B
:10B93000450AFFF713FE91ED023AB0EE405AB0EE21
:10B94000430AFFF76DFEB0EE404AB0EE430AFFF740
:10B9500005FE25EE806A63EEC07A24EE847AC0ED9F
:10B96000017AF0EE467AE5EE077A25EE843A64EE47
:10B97000806AC0ED037AF0EE437AE5EE667AA5EED2
:10B98000067AE5EE436A23EE844A64EEE34A65EE06
:10B99000A35A80ED004A80ED025AC0ED047AC0ED52
:10B9A000054AC0ED066A80ED077AC0ED085A08BD69
:10B9B000034600F1400100221A615A619A61DA617E
:10B9C00010339942F8D1102200214AF03CBED1ED4B
:10B9D000007A90ED066AD0ED095AB8EEE77AD0ED1C
:10B9E000047AE7EE077AB7EE005AC0ED047AD1ED9B
:10B9F000017AF8EEE76AD0ED057AE7EE267AC0ED37
:10BA0000057AD1ED027AF8EEE77AA7EE276A80EDA3
:10BA1000066A90ED076A36EE076A80ED076A90EDD8
:10BA2000086AA7EE266A80ED086A26EEA66A75EE19
:10BA3000865AA7EE076AC0ED095AD0ED0A5AE6EE1B
:10BA4000A75AA7EEA76AC0ED0A5AD0ED0B5A75EEB9
:10BA5000A65AC0ED0B5AD0ED0C5AE7EE275AC0EDAE
:10BA60000C5AD0ED0D5AE6EEA75AC0ED0D5AD0EDA6
:10BA70000E5AE7EEA75AC0ED0E5AD0ED0F5A75EEEA
:10BA8000A75AC0ED0F5AD0ED105A75EE875AC0ED87
:10BA9000105AD0ED115A75EEA65AC0ED115AD0EDDC
:10BAA000125A75EEA75AC0ED125AD0ED135A75EE20
:10BAB000855AC0ED135AD0ED005AE7EE065A90EDC4
:10BAC000017AC0ED005AA6EE867A80ED017A90EDFB
:10BAD000027AA7EE867AD0ED037A80ED027A37EE0D
:10BAE000866A80ED036A70472DE9F043034685B00E
:10BAF00000F11007054600261C46AC4612E0F8ECA3
:10BB0000016A1EED047AD4ED007AE6EEC77AC4ED40
:10BB1000007A98450EF1100EF1D10434BC420CF1BC
:10BB2000040C03D0A7F11008E646F2E701361C46E4
:10BB3000B646BEF1040F1FD000EB0E1CA84604F160
:10BB4000100909E0FCEC016A18ED047AD4ED047ADE
:10BB5000E6EEC77AC4ED047ACC4508F11008F1D1BD
:10BB6000D4ED046A93ED007AC6EE877A0EF1010EE9
:10BB7000C4ED047A6446DCE7042E03F1140305F1F6
:10BB8000040507F11007B7D1002300930193029336
:10BB900003936C460023142752F8045B44F8045BBB
:10BBA00007FB030C00EB03156E4665451FD10133FF
:10BBB000042BF1D104AD103100F1400255F8044DD1
:10BBC0000E4600EB031741F8044D1446A742D1ED91
:10BBD000007A17D152ED016A87EEA67A013BA2F1F5
:10BBE000140281ED007AE9D105B0BDE8F083B6EC2E
:10BBF000017A54ED017AF5EC016AE6EEC77A44ED7C
:10BC0000017AD2E7F4EC016AB6EC017AE6EEC77A83
:10BC1000C1ED007ADAE79FED0C7A00F10C03F0EC4D
:10BC2000017AF4EE677AF1EE10FA06D7F0EEE77AD1
:10BC3000F4EE477AF1EE10FA03DC9842EFD10120DE
:10BC400070470020704700BFFFFF7F7F1FB50C4685
:10BC5000024669461030FFF747FFDDED007AB6EE89
:10BC6000007A67EE877A2046C4ED007ADDED017A2E
:10BC700067EE877AC4ED017ADDED027A67EE877AA6
:10BC8000C4ED027AFFF7C7FF04B010BD60EEA00A52
:10BC900020EE400A70EEA00AC0EE200A9FED010AD5
:10BCA00047F0FABC54F82D4008B546F057FC00EEBA
:10BCB000100AB5EEC00AF1EE10FA06DB47F08CFD73
:10BCC000B4EE400AF1EE10FA01D79FED010A08BD6B
:10BCD0000000000008B5F7EE007A2DED028BF0EEC3
:10BCE000C08A77EEE87AB0EE408A17EE900A46F006
:10BCF0000DF9FFF7D9FF9FED0E7ADFED0E7AE8EE32
:10BD0000877A9FED0D7AA7EEA87ADFED0C7AE7EE41
:10BD1000287AB5EEC08ABDEC028BF1EE10FA20EE67
:10BD2000270A44BFDFED067A37EEC00A08BD00BF20
:10BD3000306E99BC2716983D843459BEA40DC93F76
:10BD4000DB0F494008B50369012BC3BF03F1FF3383
:10BD500007EE903AD0ED036A9FED067AC4BFF8EE85
:10BD6000E77A86EEA77A17EE100A46F0CFF8BDE81C
:10BD7000084099E70000000038B50378012B04461D
:10BD80002CD103691D4D23B9426812B9D5F8C42AD4
:10BD90004260D4ED067A77EE807A01332361C4EDF8
:10BDA000067A04F11C00FCF7E5FC6268D5F8C43A99
:10BDB0009B1AA268934211D9FFF7C4FFD4ED057A0C
:10BDC000B4EEE70AF1EE10FA0CDD237B3BB9D5F8AF
:10BDD000C42A626000222361A261E36238BD0323AA
:10BDE0002370FBE7D4ED047AD4ED066AF8EE677AA7
:10BDF000022386EEA77A84ED067AF1E7E81C00209C
:10BE000038B500F11C02044604F16405104650EDFB
:10BE1000017AB1EC010A77EE807A40ED017AFCF705
:10BE2000A9FC1830A842F2D12369294D6168013379
:10BE30002361D5F8C43A5B1AA1688B422CD910460D
:10BE4000FFF780FFD4ED057AB4EEE70AF1EE10FAC1
:10BE500015DC04F13400FFF775FFD4ED057AB4EE7C
:10BE6000E70AF1EE10FA0ADC04F14C00FFF76AFF72
:10BE7000D4ED057AB4EEE70AF1EE10FA10DD237B7B
:10BE80005BB9D5F8C42A626000222361A261E36233
:10BE900022636364A264E36538BD03232370FBE778
:10BEA000D4ED047AD4ED066AF8EE677A022386EEC2
:10BEB000A77AD4ED0C6A84ED067A86EEA77AD4EDE3
:10BEC000126A84ED0C7A86EEA77A84ED127AE5E7A1
:10BED000E81C002060EEA00A08B5E0EE000A10EEB3
:10BEE000900A46F013F8BDE80840DDE660EEA00ACF
:10BEF00008B5E0EE000AE1EE010A10EE900A46F005
:10BF000005F8BDE80840CFE62DE9F74F90469DF8CB
:10BF10003020002A14BF4FF030094FF020090D9A4D
:10BF20001C1E05460F46BABF64420123002312F8C7
:10BF3000011B01B12CB9A24663B100240D9EA41BC4
:10BF400012E0013CF3E7BD4204D249462846019382
:10BF5000C047019BBAF1010AF5D2EFE7BD4203D217
:10BF600028460193C047019B06EB040B16F8011B02
:10BF70000029F3D133B15446002C07DCBAF1000F8D
:10BF8000A8BFD344584603B0BDE8F08FBD4202D2EB
:10BF900049462846C047013CEEE70FB437B50C4D83
:10BFA00006ABD5F8901A53F8042BD5F88C0A0193F8
:10BFB00045F07BFC0446D5F8980205F0F8FD002812
:10BFC000F9D0204603B0BDE8304004B0704700BF50
:10BFD000E02D00200EB403B503AB084953F8042B41
:10BFE000CDE9003001A845F060FC019B00221A70E9
:10BFF00002B05DF804EB03B0704700BFC3870008D0
:10C000000CB430B52C4CD4F8943AA5B01BB9D4F884
:10C01000983A002B3AD094F89C3A994206D90123D9
:10C0200003FA00F0D4F8A03A18422FD0234BD3F8EB
:10C03000C41A4FF47A7304A8B1FBF3F203FB121392
:10C040001F49FFF7C7FF04AB0344289A1D49039318
:10C05000054629AB03A8029345F027FC039B591C16
:10C0600003910A211970039B0246591CD4F8940AC3
:10C0700003910021197090B103681B6A03B19847BE
:10C08000D4F8945A04AC14F8011B21B925B0BDE8CA
:10C09000304002B07047284605F026FDF3E7D4F89B
:10C0A000983A002BF2D002212A4400910A44FD2044
:10C0B00004A925F061FCE9E7E02D0020E81C002040
:10C0C000330306086B87000810B54FF4004086B0B4
:10C0D00022F072FE044690B34FF4004122F0CEFFEE
:10C0E00002281AD1226848F201039A4227D14FF45C
:10C0F000004042F08BF910B31F4BD3F8A42A8242C0
:10C100001FD0D3F8802B904230D0D3F85C2C9042D3
:10C110002FD00022C3F8982A11E00023022294F9BC
:10C120000400CDE901234FF4612200924FF4004155
:10C130001A4622F0F6FF104BC3F8940A28B906B04D
:10C1400010BD03F6A422C3F8982A0C4B04930C4BA1
:10C1500003930C4B02930C4B01930C4B00930C4A32
:10C160000C4B02210020FFF74BFFE8E703F5386294
:10C17000E9E703F65C42E6E7E02D00203F0306080E
:10C1800048030608510306085D0306088C020608EA
:10C190004D11060891020608184A38B5D2F8384DF4
:10C1A000033004EB9003B3F5007F19D802F63C5539
:10C1B000C2F8383D124A02EB810120F00300D1F8A9
:10C1C0004424C3F500731044C1F844040D4A9B0095
:10C1D0000421002005EB8404FFF712FF204638BD40
:10C1E0000021094A0846FFF70BFF084AD2F89430AD
:10C1F00043F00073C2F894300024EFE7E02D0020F4
:10C20000D83E00206303060886030608682A01203A
:10C210002DE9F84F0268DFF8A4800646002358F89D
:10C2200033108A420BD1DDB20D2D0CD9204A0021EA
:10C230000520FFF7E5FE00242046BDE8F88F013316
:10C240000E2BECD1F2E71B4F07EB850A4FEA85096D
:10C25000DAF8BCB2BBF1000F1AD107216420FFF756
:10C260009BFF0446CAF8BC0228B90146124A0520C1
:10C27000FFF7C6FEE0E7642259464AF0E4F9DAF82F
:10C28000BC3208EBC505C3E90053DB615B63DB64CB
:10C290004F447179D7F8BC42182000FB01430022BB
:10C2A0001C46C3E903229E601A750434C4E700BF2C
:10C2B00094030608E02D0020B9030608C0670508AE
:10C2C00003685A1C026019700368090A5A1C02604C
:10C2D0001970704703685A1C0260197003685A1C71
:10C2E00002600A0A1A7003685A1C02600A0C1A706B
:10C2F0000368090E5A1C02601970704703685A1CC3
:10C3000002600A0A1A7003685A1C026019707047AA
:10C3100038B504460068154649F05CFF23682B4495
:10C32000236038BD03685A1C0260187870470368A0
:10C330005A1C02601A4612F8021B0260587841EA41
:10C340000020704710B502681146531C036011F8B5
:10C35000024B0160D31C5178036093781B0443EABD
:10C360000123111D0160D078234343EA006010BD12
:10C37000D1E900329A4206D05A1C0A6008B11B78F3
:10C3800003700120704700207047D1E900239B1AF9
:10C39000012B10B50446084604DDFFF7C8FF2080D6
:10C3A000012010BD0020FCE730B50A44044691424C
:10C3B00001D1002011E014F8013BA3F1410019283C
:10C3C00011F8010BA0F1410598BF2033192D98BF3A
:10C3D00020301B1A02D10028E9D130BD1846FCE7F5
:10C3E0006FF00042E0E710B50288C378A2F5FA6268
:10C3F000910840F2B554013B04FB013381780C24D1
:10C40000013902F0030204FB02120D49847901EBA9
:10C4100042021821B2F8B0201344027901FB032232
:10C42000437900893C2101FB0233064A224401FB87
:10C4300003224FF47A730021C2FB030110BD00BF39
:10C440008067050880436D382DE9F04190461F460E
:10C4500005464FF47A7200234046394646F0DCF92F
:10C46000284B3C21034493FBF1F201FB1233AB71E7
:10C4700092FBF1F301FB13226A7140F2B5511822CD
:10C4800093FBF2F402FB143394FBF1F201FB124430
:10C49000B4F5896F2B714FEA82032EDA40F2DA226B
:10C4A00094422CDCB4F5B77FB4BF00210121164AB9
:10C4B000182000FB01220B2632F81600A04201DDF5
:10C4C000013EF9D103F5FA630B442B80731CAB706A
:10C4D0000C2303FB01660D4B03EB46060134B6F853
:10C4E000B030E41AEC704FF47A72002340463946BB
:10C4F00046F092F92A81BDE8F0810321D7E70221B5
:10C50000D5E700BF80BC92C7306805088067050882
:10C51000F0B5274D06460F460FCD8DB06C460FC4C3
:10C520000FCD0FC495E80F0084E80F0016F0030349
:10C530003AD1642196FBF1F201FB126242B94FF449
:10C54000C87296FBF2F302FB1363003B18BF012392
:10C55000721EC3F11D03002A019340F26D131046B1
:10C5600006FB03F3B8BFB01C03EBA0006FF063033E
:10C5700092FBF3F318444FF4C87392FBF3F21044A8
:10C580000630694600240725013F51F8042BA742D5
:10C5900002EB000393FBF5F0C0EBC000A3EB00003F
:10C5A00004D1101A0DB0F0BD0123D1E70134ECE73E
:10C5B00090680508084B53E9021251EA020309D0BA
:10C5C000064BD3F8C43A5B1842F10002C0E90032CE
:10C5D0000120704700207047A8430020E81C00207D
:10C5E00037B505466846FFF7E5FF044638B1DDE993
:10C5F00000232846FFF728FF204603B030BD40F255
:10C60000011328806B80A880A8712881F4E7F0B519
:10C610000124B0FBF4F58D4203D200261CB91C7036
:10C62000F0BD4C43F5E7B0FBF4F5B4FBF1F704FBC8
:10C6300015002EB9002D03DC8C420CD33C46EDE7EF
:10C64000092D08DD002A14BF372457242C4403F891
:10C65000014B0136F2E73024F8E7A0F13003DAB2FB
:10C66000092A01D818467047A0F16103052B01D8AB
:10C6700057387047A0F14103052B94BF37384FF06E
:10C68000FF30704770B50446944208461546B4FB27
:10C69000F2F602D33046FFF7F5FF05FB1644024BD6
:10C6A0001B5D00F8013B70BDD3030608B5EEC00A60
:10C6B000DFED2D7AF1EE10FACCBF30EE270A30EE26
:10C6C000670ADFED2A7A20EE270A30B5FDEEC07A40
:10C6D00087B017EE904A054684EAE470002303A968
:10C6E000A0EBE470CDE90033029342F0EDFB002CA7
:10C6F000ACBF20232D2303A88DF8003045F09AFA13
:10C70000012822D130238DF801308DF802308DF8C8
:10C71000033003A9684649F09EFF684645F08AFA4F
:10C720000338C4B222466946284649F053FD002327
:10C730002B550F49284649F08EFF0DEB0401284682
:10C7400049F089FF284607B030BD022805D13023C3
:10C750008DF801308DF80230DBE7032804BF302369
:10C760008DF80130D5E700BF6F12033A00007A441C
:10C77000D738060830B50278202A034600F10100B8
:10C78000F9D0092AF7D02D2A4BD10346BFEE000A73
:10C790009FED3C7A1A46F2EE046A134612F8010B3A
:10C7A000A0F13001CCB2092C41D92E280BD1F2EEE8
:10C7B000046A1146B0EE666A0B4611F8012B303A56
:10C7C000D0B209283CD91A7802F0DF02452A53D1A9
:10C7D0005A782D2A3FD102330120013B00220A253D
:10C7E00013F8011F3039CCB2092C3AD9B2F59A7F2F
:10C7F0001346DFED256A28BF4FF49A731A46F7EE09
:10C80000007A072A30D8DA086FF0070101FB0233FB
:10C81000F2EE046A63BB88B3C7EE276A20EE260AED
:10C8200030BD2B2A08BF0346B7EE000AB0E707EE7B
:10C83000901AF8EEE77AE7EE267AB0EE677AACE780
:10C8400007EE902AF8EEE77AC7EEA65A66EE866AF9
:10C8500037EE257AB0E72B2A14BF013302330020CC
:10C86000BBE705FB0212BBE767EEA67A083AC8E70A
:10C8700067EEA67A013BCDE7F7EE007A67EE276A0E
:10C88000CCE700BF0000000020BCBE4C70B50346E2
:10C8900010F8012B202AFAD0092AF8D02D2A0ABF35
:10C8A000034601254FF0FF35591E00240A2611F8D2
:10C8B000010FFFF7D2FE092802D905FB04F070BD75
:10C8C00006FB0404F3E72DE9F04F2DED028B8FB04A
:10C8D0002EF01AFB2EF0F2FA4FF00008DFF8389332
:10C8E0000646444647464546BE4200F3AB80642CAC
:10C8F00040F053816825DFF8F482B94BD8F84C71C9
:10C90000C3F8A0744C22554308EB050300211846D8
:10C9100049F099FE4C22002149F095FEB14A48F8B1
:10C9200005200122C0E90466C0E907778260AE4AAB
:10C93000826247620534AA4BAC4DD3F8A0747300F1
:10C94000B3F1805F18DA4C2254432B1900211846AA
:10C9500049F079FE4C22002149F075FEA44A2A5183
:10C9600002224271C6F1006601229640C0E90466C7
:10C97000C0E90777826047629E499C484FF49872ED
:10C9800049F028FC994A042113460139C3E9077785
:10C990005F6203F14C03F8D1AC68002C4DD12B79C8
:10C9A000002B4AD02B68002B47D0C5E911118F48C6
:10C9B0002964E9630F468C46C66C00F14C03002ED7
:10C9C00040F02C8102231068002840F057818A4EE5
:10C9D000981E8A4BC6F83C3A3E23C6F8403A3F239D
:10C9E000C6F8443A4023C6F8483AC6F8581AC6F87A
:10C9F000644AC6F8540A830F8100002800F06B8156
:10CA000040F2FF128A1843F10003520A42EAC3526D
:10CA100002F14003C6F84C3A1344C6F8503A03EB0F
:10CA2000C003DA0DC6F8383A5B02C6F8303A744BE8
:10CA3000C6F85C5AC6F8605A5A600FB0BDEC028B5B
:10CA4000BDE8F08F202206A938462EF01DFA6D4968
:10CA5000122206A849F046FE0090002840F08B8084
:10CA6000AF421DD068490C20621C00FB0414CA466A
:10CA7000664901922046FFF7ADFA01214AF84C4B76
:10CA8000C9E902155849C9F82810019AD9F81C10AB
:10CA9000A7EB050BC9E904BBC9E908111446D14647
:10CAA0004F4BD3F8A024C9F81C203D4612220EABF0
:10CAB000501C1A44564B12F8201C18F803209142BF
:10CAC0005CD108F10108B8F1150F59D1202206A94F
:10CAD00028442EF0D9F9002505AA4E4906A849F0A8
:10CAE00058FD05AACDE9025508EE102A0195AA467F
:10CAF000AB4638B30BF1FF32042A04D8DFE802F06A
:10CB00000F13171B1F00FFF7C1FE824618EE102AF5
:10CB1000404900200BF1010B49F03BFDE9E7FFF72D
:10CB2000B5FE0190F2E7FFF7B1FE0290EEE7FFF7E6
:10CB3000ADFE0390EAE7FFF7A9FE0546E6E7FFF73B
:10CB4000A5FE0090BAF1000F12D0DDE90123AAF290
:10CB5000BC7A43EA4210039B40EA4A2A680140EA51
:10CB6000C320009B40EA630040EA0A40C9F81C0069
:10CB7000642C2ED03D4607F50067B5E64FF000085F
:10CB8000202808D12035AE42F2DB024606A928460D
:10CB90002EF07AF90020024689E7AF4219D01A4AEE
:10CBA0001A49A7EB05080C2707FB04270134224686
:10CBB0003846FFF70FFA0122C9E902250A4AC9F8E7
:10CBC0002820D9F81C20C9F80070C9E90488C9E9EF
:10CBD0000822251D002C7FF48EAE0424ABE600BF96
:10CBE000F810002034040608999B00081053002018
:10CBF00041040608C0680508E81C00204E04060829
:10CC000018270020F8030608A84300200B04060894
:10CC1000190406082F040608405400209E68C3F833
:10CC200040C007F1FF3E7645C3E911CCC3F83CC0D4
:10CC300005D1002F3FF401AF53F80C0C374607F134
:10CC4000010E764508D10679002E3FF4F6AE436416
:10CC5000186477461846AFE6BE427FF4EEAE002E6B
:10CC60003FF4EBAED0F840E0DEF83C700137CEF890
:10CC70003C70C3F840E08364B646EAE7107903F1FC
:10CC8000FF3CA0B11363D36B5B011ABF03F6FF73C4
:10CC90001B0B01236344C2E90466C2E90D33D2E9E8
:10CCA0000D03181A0144013301344C328BE6176925
:10CCB000136367B107F6FF773F0B5069674457630B
:10CCC00038B100F6FF70000B60449063E7E701277E
:10CCD000F3E70120F8E701229AE610B50023802847
:10CCE00004D893420AD2C854581C10BD934205D0B0
:10CCF00060F07F04CC54C0090133F0E74FF0FF30FF
:10CD0000F3E770B51249134C134E01220020FEF7D1
:10CD10008FFB228862B1A31DB34217D2A518B5427A
:10CD200014D2052A12D92146FEF782FB2C46F0E7E1
:10CD300021460222FEF77CFB63880849084AC31A91
:10CD4000641A5842A2F88049584170BD0020FCE79F
:10CD5000004000080140000800800008FC3F000877
:10CD6000D83E00202DE9F04F794BDFF8F4818FB0E9
:10CD7000A3EB0802CDE901234FF0030910220021A3
:10CD80000AA849F060FC019B0993029B0893714B30
:10CD9000CDF81C801A69002ABFBF6F4A5A6002F1A1
:10CDA00088325A600124F322DA604FF0000A7E23B1
:10CDB000224604A907A88DF83440CDF830A08DF89C
:10CDC0001030FBF781FF504513DA0023B9F1010958
:10CDD00000F0B780002BD1D098F800307E2B40F0C7
:10CDE000B380FFF78EFF002800F0AE800FB0BDE8E3
:10CDF000F08F224604A95046FEF71AFB574CDFF885
:10CE000064B1ADF812005C453CD30024022205A9B0
:10CE100007A8ADF81440FBF757FFA042D5DBBDF8DB
:10CE20001200022205A9FEF703FB0222ADF8120050
:10CE30000DF1120107A8FBF747FFA042C5DB0B98D5
:10CE400088B1079B089A03449342BED80AABC0F14D
:10CE500004022146184449F0F6FB0AA907A8FBF78B
:10CE60008FFECDE90B400C9B002BAEDB9DF83420F0
:10CE700022B138490A6942F000420A61B3FA83F3E9
:10CE80005B09A3E762888DF819A0C2F30B06B31DF6
:10CE9000ADF814302388C3F30B011B0B8DF8183049
:10CEA0001304ADF8161020D4062205A907A8FBF735
:10CEB0000BFF002889DBBDF81200062205A9FEF74A
:10CEC000B7FA6168ADF81200324607A8FBF7FCFE1E
:10CED0000028FFF67AAFBDF8120061683246FEF70F
:10CEE000A7FAADF8120014348DE700273D4601354E
:10CEF000EDB2062205A907A88DF81950FBF7E4FE4C
:10CF00000028FFF662AFBDF81200062205A9FEF761
:10CF10008FFA6168ADF812003944324607A80391D0
:10CF2000FBF7D2FE0028FFF650AFBDF812000399C0
:10CF30003246FEF77DFA032DADF812003744D6D104
:10CF4000D1E7002B7FF448AF052004F02DFF00BF90
:10CF500000800008003C024023016745745F06081A
:10CF60000040000838640608034AD2F8843923EAEE
:10CF70000000C2F884097047D83E002003460649E5
:10CF80000648884201D3002070470288C2F30B0292
:10CF90009342F9D01430F4E738640608745F060849
:10CFA00013B542880B460446C2F30B020021184613
:10CFB000019249F048FB216903460A48814209D39E
:10CFC0000948019A814205D2184602B0BDE81040D6
:10CFD00049F000B921B1184602B0BDE81040084739
:10CFE00002B010BD38640608D968060810B4B0F95C
:10CFF00002404288002C0B4641685DF8044BBEBFDE
:10D00000C2F30B02DBB203FB0211C9E730B5094BD7
:10D01000094CA34200D330BDB3F902205988002A3D
:10D0200006DA5A68DD68C1F30B0100FB01222A60B1
:10D030001433EEE7745F06083864060830B502461C
:10D040000144002012F8015B082480EA050313F074
:10D05000010F4FEA50001CBF80F08C03D8B2631E52
:10D0600013F0FF044FEA5505EFD18A42EAD130BDF3
:10D07000154B03EB800070B5D0F8680A08B3134D68
:10D080000C2202FB005292F98939591C1AD092F8ED
:10D090009109B0B1E918642491F8C46992F8901923
:10D0A0000020142263435C1805EB4404013AB4F8F1
:10D0B000C849314410FA84F0F5D11423B0FBF3F0E1
:10D0C00080B270BD0020FCE7E81C0020D83E0020A4
:10D0D00010B5427A044632B10146406851F80A3B25
:10D0E00098470023637210BD10B4447A621C044454
:10D0F000D2B24272A172037A934202D85DF8044B15
:10D10000E6E75DF8044B704710B503681A79022A08
:10D11000044602D1987A43F053FB00232360237125
:10D1200010BD73B50279022A39D1032490F9103069
:10D130008DF803401C4C8DF80220142606FB034397
:10D140001A4ED3F8A43400250120B3428DF80050C4
:10D150008DF8010025D0164DAB4203D0154883420F
:10D160001DD1104602AA11441A8811F8085C22F059
:10D1700040021204120C14211A8001FB00401A888C
:10D18000D0F8B01422F0380231F825101204120C35
:10D190000A431A801A8892B242F040021A8002B002
:10D1A00070BD2846DEE700BFF810002000300140C7
:10D1B00000380040003C0040C36910B5044623B964
:10D1C00009211420FEF7E8FFE061E06910BD10B509
:10D1D00004460068FFF7F0FF83783BB14389E381A1
:10D1E00083892382C3896382012010BD1846FCE72E
:10D1F0000368DB6B13B504462BB923685B6B3BB943
:10D20000FF23E38202E098470028F6D102B010BD68
:10D21000214601A898470028F2D0BDF80630013B0E
:10D220009BB2EEE710B5036804469B68984701235C
:10D230006374FF23A37410BD036810B504461B6814
:10D240009847236820469B689847E37C0133E37442
:10D2500010BD036810B504465B68984723682046F4
:10D260009B689847E37C013BE37410BDF0B585B043
:10D27000044618460D461646039344F0DBFC22682C
:10D28000E67328440021A07300915769039B32463E
:10D2900029462046B84705B0F0BD30B5046885B0D2
:10D2A000E469089D34B10DB90DF10F050095A04753
:10D2B00005B030BD2046FBE703685B6A184703688A
:10D2C0009B6A184710B5037B04460BB1437B13B927
:10D2D0002046FFF7F4FF23682046DB68BDE81040D6
:10D2E000184703685B6C03B11847704738B50446AC
:10D2F0008B6801600D4698470B4B23610023237513
:10D300002B6B13B1204698472075084B93F8203CAF
:10D310001BB1237D23F0010323750023E382204604
:10D32000BDE8384064E700BF0001FF00D83E0020A0
:10D3300003681B6803B11847704703685B6803B153
:10D340001847704703681B6A03B1184770470368A2
:10D350005B6A03B11847704730B40468A46A14B11B
:10D36000A44630BC604730BC704730B40468E46AFF
:10D3700014B1A44630BC604730BC704703685B6C96
:10D3800003B11847704703689B6C03B11847704797
:10D3900003689B6F03B1184770470368D3F8803068
:10D3A00003B1184770470368D3F8843003B11847B6
:10D3B00070470368D3F8883003B11847704721B12C
:10D3C0000B68D3F88C3003B118470020704738B58C
:10D3D000094B052404FB0030A0F1A00515F8010B52
:10D3E000013C43F0E4F814F0FF04F7D12046BDE817
:10D3F000384043F0DCB800BF886A050810B5441E09
:10D4000014F8010F00B910BDFFF7E1FFF8E7FBF7D3
:10D41000F2BCFBF7F0BCFBF7EEBCFBF7ECBCFBF798
:10D42000EABCFBF7E8BC034BD3F8240C08B1436813
:10D4300018477047D83E00200448D0F8243C0BB170
:10D440001B6A184700F62840704700BFD83E0020EE
:10D45000074B30B50022062404FB02F1CD5C854267
:10D4600004D00132092AF7D1002030BD5818FCE75A
:10D47000104B002070B51A4E1A4C3622002106F6C9
:10D48000384049F0E0F8D4F8F434002098470546D5
:10D4900010B304F2F444C6F8244CFFF7CDFF8368C0
:10D4A000D3B104880320FFF7D3FFB8B9013C0220B1
:10D4B000A4B2FFF7CDFF50B9D6F8700C08280BD0F6
:10D4C000431CC6F8703C084B062202FB00300223C6
:10D4D0000370002343808480284670BD4488E5E7BC
:10D4E000D83E0020F8100020104B002030B1036817
:10D4F00082881B691A4214BF01200020704710B1B6
:10D50000036882881A83704710B504464FF4FA7096
:10D5100004F0B6FB6069BDE81040F0E773B5114B4D
:10D52000154690F910200446142000FB0233D3F86E
:10D53000A464A3689A0704D46069019143F038F9A0
:10D540000199304644F098F92946304644F094F960
:10D55000A3689B0702D42046FFF7D6FF012002B044
:10D5600070BD00BFF8100020F7B515461E4690F9B3
:10D570001020104B0446142000FB0233D3F8A4748F
:10D58000A3689A0704D46069019143F011F90199E5
:10D59000384644F071F933462A460021384644F0B3
:10D5A000F1F8A3689B0702D42046FFF7ADFF0120E6
:10D5B00003B0F0BDF8100020F7B515461E4690F9EF
:10D5C0001020104B0446142000FB0233D3F8A4743F
:10D5D000A3689A0704D46069019143F0E9F80199BE
:10D5E000384644F049F9334600222946384644F08B
:10D5F000C9F8A3689B0702D42046FFF785FF0120E6
:10D6000003B0F0BDF810002073B5124B154690F929
:10D6100010200446142000FB0233D3F8A464A3684E
:10D620009A0704D46069019143F0C2F80199304629
:10D6300044F022F9012300222946304644F0A2F8A2
:10D64000A3689B0702D42046FFF75EFF012002B0CB
:10D6500070BD00BFF810002010B1036882885A83A3
:10D66000704737B50C46054608B30368114A03F105
:10D670003F4303F57E0302EB932393F8AB0541F0A0
:10D6800001FCAB88009304F003038DF80430C4F36D
:10D6900081038DF805302868C4F300136946C4F38C
:10D6A00041148DF806308DF80740FCF7CFFE03B02B
:10D6B00030BD00BF80670508F7B50C461546064625
:10D6C000A8B303681B4A03F13F4303F57E0302EB53
:10D6D00093230F2793F8AB0541F0D4FB3068B6884D
:10D6E0000096B6FA86F3C3F11F0303F00702C3F3F3
:10D6F000CC0300EB83039200196A974021EA0701EB
:10D700001962196A95400D431D6204F003038DF8F8
:10D710000430C4F381038DF805306946C4F3001367
:10D7200064098DF806308DF80740FCF78FFE03B0D2
:10D73000F0BD00BF8067050838B50409013C032C23
:10D7400000F00F021AD80E4D05EB4403B3F8B215E2
:10D7500041FA02F313F001000FD0012303FA02F2A1
:10D76000013A02EA01002C4445F0BEF894F8BA35BB
:10D770001844044B0C2202FB003038BD0020FCE7AB
:10D78000806705084C4B00202DE9F043654F07EBFF
:10D79000C00985B005464FEAC00899F81C05FFF797
:10D7A000CBFF064699F81D05FFF7C6FF044699F81A
:10D7B0001E0541F067FB6B1CDBB21EB140F60B127D
:10D7C000F28033721CB140F60B22E28023720422F5
:10D7D0003A213046FFF770FF204604223A21FFF736
:10D7E0006BFF07EB0803D3F818454F4B9C4263D1FE
:10D7F00003F5F2331A6A42F400121A621A6A22F42A
:10D8000000121A62474497F81F35022B6ED0032B83
:10D810006ED0464E464A012B08BF1646A78827F011
:10D820003F0768463F04FCF753FE3F0C029A414B0A
:10D83000B2FBF3F398B20743A780218821F00101DE
:10D840000904090C21803C498E4253D13B4BB2FB69
:10D85000F3F2013092B2042A80B238BF042220844D
:10D86000A28323889BB243F001032380238823F4FF
:10D87000816323F002031B041B0C43F480632380A9
