:020000040800F2
:10000000F0FF01205DBC0508D1D60008F1B8040856
:10001000E1BC0508E1BC0508E1BC050800000000E2
:10002000000000000000000000000000CDD6000825
:10003000C9D6000800000000C5D60008D9A60408EB
:10004000E1BC0508E1BC0508E1BC0508E1BC050808
:10005000E1BC0508E1BC0508B9BA040881BA040886
:1000600049BA040811BA0408D9B90408FD9B050867
:10007000ED9B0508DD9B0508CD9B0508B99B050890
:10008000A59B0508919B0508E1BC05080000000040
:10009000000000000000000000000000A1B90408FA
:1000A000F58F0408E1BC0508E58F040845900408B5
:1000B00035900408259004081590040889B60508B1
:1000C00091B605087DB6050885B60508E1BC0508AA
:1000D000E1BC0508D5A7040819A704080000000022
:1000E00069B90408E1BC0508810C010800000000A2
:1000F0000000000000000000000000007D9B0508DB
:1001000000000000E1BC050805900408E1BC0508FA
:1001100000000000000000000000000000000000DF
:10012000699B0508559B0508419B05082D9B050803
:10013000199B0508000000000000000000000000FE
:1001400000000000000000000000000051FF000857
:10015000059B0508F19A0508DD9A0508E1BC05082C
:1001600071B6050879B6050800000000000000001F
:10017000000000000000000000000000000000007F
:1001800000000000E1BC05080000000000000000C5
:08019000E1BC0508E1BC050813
:08019800FCB7050001000000A6
:1001A00013020100040000002C290020406C0020F4
:1001B0000000000030E706083C6C0020031101003D
:1001C0000A000000E02D0020486C00200000000024
:1001D00041110108446C00200D100100580000007E
:1001E00050550020586C002000000000F1E4030886
:1001F000546C002009020100010000003C6B00204B
:10020000B46C00200000000034E70608B06C002049
:10021000FB0101000100000090620020BC6C002086
:100220000000000029FF0408B86C0020FC01010058
:10023000090000005C610020C46C00200000000088
:1002400039FF0408C06C0020F9010100040000001F
:10025000FC4F0020D46C00200000000091750408C1
:10026000D06C00202A020100080000000C4500208C
:10027000DC6C00200000000036E70608D86C002087
:10028000160215003F0000006C2B0020E86C0020D7
:10029000000000005DFE0408E46C00203400010052
:1002A000100000003C4400202C6D002000000000E5
:1002B00075500208286D002011020100080000009E
:1002C00014440020406D0020000000003EE70608B6
:1002D0003C6D002012120100040000000C440020BC
:1002E0004C6D00200000000046E70608486D002025
:1002F0001830010038000000D4430020546D002065
:1003000000000000CDFE0408506D002020520100C6
:10031000080000000C420020906D0020000000004A
:10032000753302088C6D00200610010024000000C7
:10033000882A00209C6D00200000000055FF040862
:10034000986D0020000201000B00000038390020E9
:10035000C46D00200000000061F60408C06D00209C
:10036000FD0101002100000014390020D46D00209F
:1003700000000000C3740408D06D0020FA010100E1
:100380000300000094350020FC6D002000000000F8
:1003900045F60408F86D00200C020100040000007E
:1003A00024340020046E00200000000001F6040840
:1003B000006E0020FE01010014000000A862002071
:1003C0000C6E002000000000D1F50408086E00202B
:1003D00037100100300000001CAD0020CCAF002021
:1003E000000000004CE70608C8AF00200E02010024
:1003F00002000000389E002000B000200000000035
:100400007CE70608FCAF0020161001000600000083
:10041000309E002008B00020000000007EE70608A3
:1004200004B000202F10010022000000A4AF002023
:1004300014B000200000000084E7060810B000207F
:100440002322010010000000549D00203CB0002039
:1004500000000000A8E7060838B000201E000100D8
:10046000090000003C9D002050B00020000000006A
:10047000B8E706084CB00020052001000C00000081
:10048000109E002060B0002000000000C4E70608B5
:100490005CB000201230010010000000249D0020FC
:1004A00070B0002000000000D0E706086CB000200B
:1004B000FD0701007C000000FE99002084B00020B0
:1004C000000000009116010880B00020F5910100A5
:1004D0006C000000CC9A002004B100200000000055
:1004E000D128010800B100202320010010000000E5
:1004F0007EAC002074B1002000000000E90F02086B
:1005000070B10020261001000E00000098B10020FC
:1005100088B10020000000009D14010884B1002073
:100520000B3001001A000000E4990020DCB100202B
:1005300000000000E0E70608D8B100201F500100CD
:10054000240000007C9B0020FCB100200000000083
:10055000FCE70608F8B100200502010004000000D5
:10056000409E002024B200200000000020E8060881
:1005700020B20020012001000C0000009CBA0020E5
:10058000F8C400200000000024E80608F4C400209D
:100590000C400600E4000000BCB8002008C50020A4
:1005A00000000000E55F030804C500200A90010078
:1005B0002400000078B80020F0C5002000000000F2
:1005C000A10F0208ECC500200E300300BC010000A2
:1005D000B4B6002018C6002000000000D999020817
:1005E00014C60020131001000400000088C400207D
:1005F000D8C700200000000030E80608D4C700205B
:100600000101010004000000ECB50020E0C700205B
:100610000000000000000000DCC700200001010015
:1006200004000000E4B50020E8C70020000000003E
:1006300034E80608E4C700200201010003000000BE
:10064000E0B50020F0C7002000000000256003088E
:10065000ECC70020220201001C01000050C2002053
:10066000F8C70020000000001DFB0408F4C70020AC
:10067000010201000B000000F8B5002018C900209D
:100680000000000051F6040814C900200202010015
:10069000030000002CBB002028C90020000000003F
:1006A0000000000024C900201B020100100000000F
:1006B000F4BA002030C900200000000079F60408D8
:1006C0002CC900201B2001000C00000040B50020B8
:1006D00044C9002000000000999C010840C9002086
:1006E00021020100F000000038B2002054C90020AF
:1006F00000000000859B010850C900201500100073
:100700007000000078EA002004EB002000000000E8
:100710000000000000EB00202A000800600000003C
:1007200088E9002078EB0020000000004D3302082B
:1007300074EB00202C00040010000000ECEB002003
:10074000DCEB00200000000015310208D8EB00208F
:1007500029201400780000000CE7002000EC0020A5
:100760000000000000000000FCEB00201A00010067
:100770000E00000064E600207CEC00200000000079
:1007800038E8060878EC00202B0012002400000056
:1007900040E6002090EC002000000000E930020854
:1007A0008CEC00201C0202001C00000078E30020FA
:1007B000B8EC0020000000004DF90408B4EC002063
:1007C000283001001600000094E30020D8EC00203F
:1007D00000000000ED330208D4EC002014000100FA
:1007E0000500000064E30020F4EC0020000000009D
:1007F00046E80608F0EC00200300010001000000BC
:10080000D4EF00201CF300200000000000000000D6
:1008100018F300201010010002000000C0F20020B8
:1008200024F30020000000004CE8060820F300201C
:10083000F831010006000000C4EF00202CF3002076
:10084000000000004EE8060828F30020190001000F
:100850000500000040EF002038F3002000000000F9
:1008600054E8060834F30020020001000C000000E8
:1008700034FA002048FA00200000000000000000C8
:1008800044FA002025201E002C01000004F900205D
:1008900058FA0020000000000000000054FA002078
:1008A000290201004000000034F6002088FB0020EF
:1008B000000000005AE8060884FB00202C0201001A
:1008C00004000000D8F80020CCFB0020000000004D
:1008D0009AE80608C8FB00200A0201001400000084
:1008E00080F70020F4FB0020000000004D650308A5
:1008F000F0FB0020031201003D0000008C020120EB
:10090000EC020120000000009EE80608E802012039
:100910003820010003000000D8FE00203003012031
:1009200000000000DCE806082C0301200400080099
:1009300080000000D00701205008012000000000C6
:1009400000000000D4090120081203000F0000007D
:10095000C0070120DC0901200000000019F604088E
:10096000D80901202802040004000000B807012073
:10097000F00901200000000075F60408EC090120D0
:100980002702040004000000B4070120F809012038
:100990000000000069F60408F40901201F020800A5
:1009A00010000000A4070120000A01200000000040
:1009B0008DF60408FC0901201A0201003C00000029
:1009C00048030120140A01200000000089F80408EF
:1009D000100A01201D02020006000000C0130120C1
:1009E000E41301200000000000000000E0130120DB
:1009F0000612030012000000C8130120702F01200E
:100A0000000000000DFA04086C2F012027000100EF
:100A1000040000009C0B0120882F01200000000032
:100A2000E0E80608842F0120100201000100000008
:100A3000B4600120B060012000000000E4E8060876
:040A4000AC60012085
:100A44000403090412010002EF0201408304563238
:100A54000002010203010000120100020202004030
:100A64008304405700020102030100000902200030
:100A7400010104C0320904000002080650050705FC
:100A840081024000000705010240000009026400E1
:100A9400030100C032090400000103000000092121
:100AA400110100012236000705830309000A080B1F
:100AB4000102020201000904010001020201000511
:100AC4002400100105240100020424020205240666
:100AD4000102070582030800FF09040200020A005C
:100AE40000000705010240000007058102400000E4
:100AF40009024300020100C032090400000102029D
:100B0400010005240010010524010001042402024F
:100B14000524060001070582030800FF09040100FB
:100B2400020A0000000705010240000007058102D7
:100B340040000000FF000000140000FF000000005F
:100B440000000000AA5507010000AA550501000095
:100B54002D202D2D202D2D2D2D202D2D2D2D000042
:100B64000000000000000000000000000000000879
:100B740090E105087D0000000000803F05010905A3
:100B8400A101A100050109300931093209330935F0
:100B94000934093609371581257F750895088102BE
:100BA4000509190129081500250195087501810217
:100BB400C0C0000009022200010100E03209040063
:100BC400000103010200092111010001223600077E
:100BD40005830309000A00005983000855830008AF
:100BE4005183000845830008418300084D830008B1
:100BF40049830008010000000060024010600240C8
:100C0400000000000000000000000000000B0000D5
:100C1400000000000000000000000000006002402E
:100C240028600240010000000000000000000000F5
:100C3400060C00000000000000000000000000009E
:100C4400006002404060024002000000000000001A
:100C540000000000100D0000000000000000000073
:100C640000000000006002405860024003000000E1
:100C74000000000000000000160E0000000000004C
:100C840000000000000000000060024070600240AC
:100C9400040000000000000000000000200F00001D
:100CA400000000000000000000000000006002409E
:100CB4008860024005000000000000000000000001
:100CC40026100000000000000000000000000000EA
:100CD40000600240A0600240060000000000000026
:100CE40000000000301100000000000000000000BF
:100CF4000000000000600240B860024007000000ED
:100D04000000000000000000362F0000000000007A
:100D14000000000000000000006402401064024073
:100D24000000000000000000000000000038000087
:100D34000000000000000000000000000064024009
:100D440028640240010000000000000000000000D0
:100D54000639000000000000000000000000000050
:100D640000640240406402400200000000000000F1
:100D740000000000103A0000000000000000000025
:100D840000000000006402405864024003000000B8
:100D94000000000000000000163B000000000000FE
:100DA4000000000000000000006402407064024083
:100DB400040000000000000000000000203C0000CF
:100DC4000000000000000000000000000064024079
:100DD40088640240050000000000000000000000DC
:100DE4002644000000000000000000000000000095
:100DF40000640240A06402400600000000000000FD
:100E04000000000030450000000000000000000069
:100E14000000000000640240B864024007000000C3
:100E24000000000000000000364600000000000042
:100E340000000000000000000000000001020304A4
:100E44000102030406070809E5E00008BDE80008FC
:100E540035E4000855840008A1860008658400086C
:100E6400818400082D8400081D840008000000000F
:100E740000000000AA550B010000AA55050100005E
:100E8400AA550902000000AA5503009F01000000B2
:100E9400C012000001010000FF1FFF1F7EFF0000C1
:100EA400FFFFFFFFFFFFFFFFD0B1002000000000A5
:100EB400A8B10020000000000101000000000100B2
:100EC400E00101FF01000000B590010800000000EE
:100ED4000000000054E8050808FF000000000000BE
:100EE4000000000000000000F0FF05080000000002
:100EF4000000000000000000A80006080000000038
:100F0400000000000000000054000608000000007B
:100F1400000000005DAC0108C6BD00200101FF0017
:100F2400FFFFFFFF51EC010800000000000000007B
:100F340070010608B5EF0108000000000000000081
:100F4400280106082D202D2D202D2D2D2D202D2D71
:100F54002D00000000000000000000000000000060
:100F640000000000FFFFFFFFD9B6010800000000E9
:100F74000000000080FF050801000000FA000000E6
:100F8400010000000100000002BA00200000F4018A
:100F94000100000000BA00200000F401010000007C
:100FA400FEB900200000F40101000000FCB900209B
:100FB4000000F40101000000FAB900200000F4016F
:100FC40001000000F8B900200000F4010100000055
:100FD400F6B900200000F401010000007D99010829
:100FE400419901080000000014EA0508E6B9002050
:100FF40005320100F4B900206400F401010000008E
:10100400F2B900206400C40901000000E4B9002022
:10101400E803D00701000000E2B90020E803D0078C
:1010240001000000E0B90020E803D007010000003F
:10103400DEB900201E00B80B01000000ECB900204E
:1010440005000F0001000000EEB9002003000A00B3
:1010540001000000DCB900201E00F40101000000C2
:10106400F0B9002002000000A0EA0508DAB9002067
:101074001400640001000000E8B900203200E80315
:1010840001000000D8B900200000C80001000000E1
:10109400B9B8002000C80100B8B800200050010011
:1010A400B7B80020005A0100B5B8002002000000C3
:1010B40008EA05084865060850650608C4BD00200E
:1010C4000100C40900000000C2BD00200100C409E1
:1010D40000000000C0BD00200100C40900000000A1
:1010E400BEBD00200100C40900000000BABD0020FC
:1010F4000100C40900000000BCBD00200100C409B7
:1011040000000000B8BD00200100C4090000000078
:10111400B6BD00200100C4090000000019B600207B
:1011240000C8010018B6002000C8010016B600204F
:101134000000FFFF0A00000014B600200100C800F0
:101144000100000012B600203200307532000000A9
:1011540010B600207EFF1400050000000EB600202B
:1011640005002C01050000000CB60020055A0500FE
:1011740009B6002000FF01000BB6002002000000A9
:101184000C08002007B60020030000006CE20508EC
:1011940008B6002000FF01000AB60020020000008B
:1011A4000C08002006B60020030000006CE20508CD
:1011B40058B50020FF7F010054B500200000000056
:1011C400FFFFFFFF0100000050B5002000000000F9
:1011D400FFFFFFFF010000004CB5002000000000ED
:1011E400FFFFFFFF01000000D1980108619801088A
:1011F40000000000F0EA0508ACBA0020EE02CA08BC
:1012040001000000AABA002000C801006400000028
:10121400A9BA002002C8010064000000A8BA002096
:1012240002000000ACEA0508F2B500200000803E90
:1012340005000000F0B5002080C1803E05000000DC
:10124400EAB500200083007D05000000E8B5002019
:1012540080C1803E05000000E3B5002000FF0100CE
:10126400DCB500206400F40101000000DAB50020C0
:101274006400F40101000000D8B500206400F4010A
:1012840001000000D6B5002004000000FCEB0508B6
:10129400D5B500200200000010EC0508A5B600201A
:1012A4000D0000001CEC0508A2B60020006401003B
:1012B400A0B60020320010270A0000009EB60020CD
:1012C4000D0000001CEC05089DB600200D00000078
:1012D4001CEC05089CB6002002000000B8EA0508D2
:1012E40000000000000000000000000054EC0508AD
:1012F400B1BA0020460000008CEC0508AFBA00200B
:1013040003000000A8ED0508B0BA002004000000A6
:10131400C4EA0508A7B6002003000000B8ED0508DC
:10132400A6B6002003000000B8ED0508A6B800200A
:10133400000A0100A4B800200000E8030100000036
:10134400A2B800200000E80301000000A0B80020BB
:10135400000A01009EB800200000E803010000001C
:101364009CB800200000E8030100000070B80020D1
:10137400C800E8030100000076B800203C00FA0031
:101384000100000074B800200100E803010000001F
:1013940072B8002000050100B4B80020020000006B
:1013A400D8EA0508B2B800200000F40101000000EA
:1013B400B0B800200000F40101000000AEB8002025
:1013C4000000F40101000000ACB800200000F401AA
:1013D40001000000AAB800200000E803010000009A
:1013E400A8B800200000E80301000000C6B90020EE
:1013F400006401000A000000C5B900200064010077
:101404000A000000B3B9002019640100B2B9002039
:1014140002000000E4EA0508B0B90020E803D007A0
:101424000A000000AEB90020006401000A000000B8
:10143400A3B9002000640100A2B9002000640100E7
:10144400AAB90020006401000A000000A9B9002024
:10145400006401000A000000A8B900200064010033
:101464000A000000ADB9002000FF01000A000000DE
:10147400ACB9002000FF01000A000000ABB9002055
:1014840000FF01000A000000A7B9002001FF0100CD
:101494000A000000A6B9002001FF01000A000000B4
:1014A400A5B9002001FF01000A000000B0B6002029
:1014B4000000F40101000000AEB600200000E803C3
:1014C40001000000ACB600200000E80301000000A9
:1014D400AAB600200000E80301000000A8B600201E
:1014E4000000E8030100000017BE00200096010080
:1014F4000EBE002000C801000DBE002000640100E3
:101504000CBE0020006401000BBE0020006401003A
:101514000ABE00200064010009BE0020FF0801008B
:1015240008BE0020016401005197010815970108C5
:1015340000000000C8ED050811BE002001320100C2
:1015440010BE00200100000038EE05080FBE002088
:101554000400000040EE050807BE002000960100CC
:1015640006BE00200064010004BE00201400E8034D
:101574000100000002BE0020000030750A000000D7
:1015840000BE002000C80100FFBD002000C801000B
:10159400FEBD002000C8010014BE0020003201007E
:1015A40016BE00200014010015BE0020004B0100EF
:1015B40013BE00200400000054EE050812BE0020F3
:1015C400006401000A000000D2B900200AC8050026
:1015D4000A000000D1B900200100000064EE0508F3
:1015E400D4B900200AC805000A000000D3B90020BD
:1015F4000100000064EE0508C9B9002000C8050018
:101604000A000000D0B9002000C805000A0000004C
:10161400CAB9002000C805000A000000CBB90020A8
:1016240000C805000A000000CEB9002000C805006B
:101634000A000000CFB9002000C805000A0000001D
:10164400CDB9002000C805000A000000CCB9002074
:1016540000C805000A000000C8B90020020000000C
:101664006CEE050826BE00200000D0070100000033
:1016740020BE002000C801001FBE002000C80100D9
:101684001EBE002000C8010024BE00200000D007B8
:10169400010000001DBE002000C801001CBE002087
:1016A40000C801001BBE002000C8010022BE0020AB
:1016B4000000D007010000001ABE002000C801008D
:1016C40019BE002000C8010018BE002000C8010097
:1016D40080760608000000000000D8C400208C7644
:1016E4000608070800000000200E00209476060873
:1016F400070800000000180E00209C760608070862
:1017040000000000100E0020A4760608080800005F
:101714000000040E002060600608070800000000B6
:10172400FC0D002068600608070800000000F40DA6
:10173400002070600608070800000000EC0D00207F
:101744001C610608080800000000E00D0020AC76CB
:101754000608071000000000D80D0020B476060823
:10176400071000000000D00D0020BC76060807100A
:1017740000000000C80D0020C47606080810000010
:101784000000BC0D0020B064060801000000000049
:101794000000000000000000100000000000000035
:1017A40000000000D9940108BD940108B5B60108F1
:1017B40078EE050899B60020005A010098B600207A
:1017C40000C8010096B60020E803D007010000001D
:1017D40000000000000000009DAC010814EF0508A3
:1017E40005B600200300000068EF050804B60020D9
:1017F4000003010003B6002000030100F99301086F
:10180400AD9301080000000078EF05086D9301080E
:10181400259301080000000014F005084594010810
:1018240099B601080000000094F00508F4B5002002
:1018340001030100799001085190010800000000A3
:1018440008F40508599A01082D9A010800000000BF
:1018540088F40508959201083D92010800000000F3
:10186400F8F40508E994010899FA01080000000059
:10187400B0F5050891BB0108859A01080000000035
:1018840058F6050845950108000000000000000016
:10189400F4F6050829960108C9950108000000001E
:1018A40058F70508D19601088D960108000000003C
:1018B40010F80508090E02088D97010800000000C1
:1018C4009CF80508D6B90020010601008D95010891
:1018D4005995010800000000B4F90508250D020817
:1018E40061B801080000000024FA0508BD9701084A
:1018F40081B9010800000000A0FB05084D0E020894
:1019040041B9010800000000280E0020D5B90020CC
:10191400010301008D9401085D940108000000009A
:10192400ACFC050839B60108000000000000000006
:1019340010FD0508ED92010881B6010800000000C1
:10194400ACFD0508000000000000000000000000DD
:1019540048FE050839980108CDBA010800000000C6
:10196400C8FE0508000000000000000000000000A0
:10197400F0000608542E00209CFF2C0100000000FB
:1019840000C40020E0150C170000000009C400206A
:101994000200000028040608D0B5002088136F1741
:1019A40001000000D2B5002088136F17000000006A
:1019B400142E00200000000000000000122E002061
:1019C4000000000000000000102E002000000000B5
:1019D400000000000E2E00200000000000000000A7
:1019E4000C2E002000000000000000000A2E002041
:1019F4000000000000000000E805002000000000D6
:101A04000000000059B50020030000000C02060885
:101A1400C8B5002088136F1701000000D26B0020A6
:101A240088136F17000000007D910108000000007A
:101A3400000000001C02060881BD00200100000017
:101A440070020608D46B0020010000007C02060826
:101A5400CA6B002002000000840206080000000097
:101A640000000000000000009002060865910108D3
:101A740000000000000000002C0306080000000025
:101A840000000000000000008003060800000000C1
:101A94000000000000000000F0030608D4B5002098
:101AA4000200000028040608CE6B0020E0150C1785
:101AB400000000009CDC0020F0DC002001F11F3F4E
:101AC400D601FF0101000000000101010000000037
:101AD400207E0020FFFFFFFF0000803F0000000089
:101AE40000000000000000000000000000000000F2
:101AF40000000000000000000000000000000000E2
:101B04000000803F00000000000000000000000012
:101B14000000803F00000000000000000000000002
:101B24000000803F000000000000000000000000F2
:101B3400010000000000FA430000FA430000803F67
:101B440089E5030800000000000000000000000018
:101B540000000000E0FB002008000000000000007E
:101B6400D0FB002008000000FFFFFFFF39E5030859
:101B740000000000000000000000000011730408D1
:101B84000000000000000000000000000100000050
:101B9400A00F0000B80B00000102FFFF01000000CD
:101BA400685E0C0002000000C18A0008B1850008CC
:101BB40015E400080000000019840008B1E00008E2
:101BC400758A000825E000080000000000000000FD
:101BD400D5830008698300085D83000875D7000871
:101BE40091D7000859D700083DD7000821D700082D
:101BF400798A00088D85000861E300080000000070
:101C0400ED83000829E00008498A000881DF000804
:101C14000000000000000000E1830008FF00000055
:101C2400D08A0608BC61060800000000AD60030805
:101C3400A086010004000000D08A0608D88A06089D
:101C44000000000025730408E803000004000000FD
:101C5400586B060800000000000000002D62030815
:101C64007D000000FF0000005C6906080000000021
:101C740000000000856C03087D000000FF000000E8
:101C8400886E06080000000000000000551A0308D2
:101C94007D000000FF000000F06B0608000000005B
:101CA40000000000451B0408E803000003000000D6
:101CB400E08A0608000000000000000039FC020869
:101CC400102700000300000078CA06080000000086
:101CD400592F0208B54104085F7600000500000092
:101CE4002CCE0608000000000000000089E904086A
:101CF4001027000002000000EC8A06080000000023
:101D04000000000029730408E80300000500000037
:101D1400F88A06080000000000000000A16703081C
:101D2400204E000003000000088B0608000000009D
:101D34000000000089650308204E00000300000035
:101D4400188B06080000000000000000C1E503082D
:101D5400400D030003000000E861060800000000D5
:101D640000000000ADCE01081027000003000000B1
:101D7400288B0608000000000000000075200408FD
:101D8400A086010002000000046A060800000000AA
:101D9400000000007123040850C30000020000008A
:101DA400B06706080000000000000000891604085F
:101DB400A861000002000000688806080000000016
:101DC400000000005DE90308A00F0000020000000D
:101DD400308B06080000000000000000C9F501086F
:101DE40010270000020000009078060800000000A0
:101DF40045160108617501088545010002000000CF
:101E0400706706080000000000000000711101085E
:101E14001027000002000000D06106080000000046
:101E240000000000ED03020850C30000020000009F
:101E34003C8B060800000000000000005517010854
:101E4400400D030001000000448B06080000000060
:101E540000000000ADE40308400D03000200000090
:101E64004C8B06080000000000000000E1DD0108C2
:101E740050C3000003000000588B06080000000057
:101E840000000000C19E030840420F000100000052
:101E9400648B0608000000000000000061E50308F0
:101EA40050C3000001000000708B06080000000011
:101EB40000000000515C010810270000020000002F
:101EC400FFFFFFFFFFFF000054CA060800000802DE
:101ED400050303000000000060CA060801000802B0
:101EE40005040300000000006CCA06080000080294
:101EF400050303000000000074CA0608010008027C
:101F040005040300000000009C8706080200FE018F
:101F14000110030000000000A46806080300140276
:101F240000030000000000007CCA060804001F0231
:101F3400020008000000000084CA060805001F0211
:101F440002010800000000001A0300000000000065
:101F5400000000000000000000000000000000007D
:101F64000000000004030904120100020000004004
:101F7400830420570002010203010100D9FF040871
:101F8400F1F60408EDF60408E9F60408250005084E
:101F9400E5F60408E1F60408845706084D8B0008AA
:101FA4006D8500087DE100080000000000000000CD
:101FB40075DE00089DDE000800000000000000003F
:101FC40000000000C983000889F704087DF70408AD
:101FD400450505086105050835F7040829050508C0
:101FE4000D050508030000000000000005000000C6
:101FF40002000000000000002C180020DC13012067
:10200400020000000100000039F80408281800202C
:1020140000000000010000000100000075F8040841
:10202400481700200000000000000000000000002D
:10203400000000000000000000000000000000009C
:10204400010000000000000000000000000000008B
:10205400000000000100000000000000000000007B
:10206400000000000000000001000000000000006B
:10207400D800000000000000050000000600000079
:102084000500000000000000010000000100000045
:10209400010000001F0000001C0000001F000000E1
:1020A4001E0000001F0000001E0000001F000000B2
:1020B4001F0000001E0000001F0000001E000000A2
:1020C4001F0000000068214C01000000A85706080A
:1020D40006000000050000000101FF0000000000F0
:1020E40000000000000000000100000000000000EB
:1020F40000000000000000000000000001000000DB
:1021040000000000FF000000F401000000000401D2
:10211400000002000100000210000000070000009F
:102124000000000000000000010203040607080983
:10213400C70000000500000006FF000098180020FA
:10214400000000000000000000000000000000008B
:10215400000000000000000000000000000000007B
:10216400000000000000000000000000000000006B
:10217400000000000000000000000000000000005B
:10218400000000000000000000000000000000004B
:10219400000000000000000000000000000000003B
:082800000000000000000000D0
:108000002DE9F04700230F6801264FF0030C02E032
:108010000133102B41D006FA03F232EA0704F7D1FC
:10802000D0F800E05C000CFA04F52EEA050EC0F86A
:1080300000E091F80490D0F800A009FA04FE09F1DC
:10804000FF394EEA0A0EB9F1010FA846C0F800E068
:108050006FEA050515D8D0F808E005EA0E05856039
:108060004D79D0F808E0A54045EA0E0585604568E1
:1080700025EA020242608A7945689A4092B22A4310
:108080004260C26822EA0802C260CA79C568A2409A
:1080900001332A43102BC260BDD1BDE8F08700BF79
:1080A000074AD2E9003199421FBFD1180133097A3A
:1080B00001701DBFC3F30A03012013600020704745
:1080C000F8180020064BD3F80C08D3F80828D3F88A
:1080D0000838824298BF03F50063181A704700BF42
:1080E000F8180020012380F85130704707B501A827
:1080F000FFF7D6FF0028FAD09DF8040003B05DF822
:1081000004FB044BD3E90003984288BF03F50063E6
:10811000181A7047F818002001207047024BC3F866
:108120001028C3F814187047F8180020024BC3F841
:108130001828C3F81C187047F818002070477047BB
:1081400030B4124DD5E900239A4286BF03F500648E
:10815000A21A9A1A0A44B2F5006F11D899B10144D3
:108160004A1E013810F8014FE918824203F1010359
:108170000C72C3F30A03F5D16B60002030BC70476A
:10818000022030BC70470846F8E700BFF81800200E
:1081900041B370B5144C0144D4F80C384E1E451E42
:1081A0001A4604E0012042F0F3F9D4F80C28D4F880
:1081B0000818531CC3F30A038B42F3D0D4F80818F1
:1081C000B1F5006FEED094F820180029EAD115F827
:1081D000011FC4F80C382244B54282F82418DFD1BC
:1081E000002070BD00207047F818002010B5094C21
:1081F00054F8D43C084611465BB154F8D43C052BE6
:1082000007D1002A54F8D03C03DDFFF7C1FF54F832
:10821000D03C10BDF029002010B590F8501000237C
:1082200080F8503081B10B4C54F8D42C72B154F812
:10823000D42C052A0CD13C3054F8D03CFFF7A8FFD1
:1082400054F8D03C012010BD0120FCE71046FAE7AD
:108250001846F8E7F0290020002280F85120DBE7DB
:1082600090F85020531C0244DBB280F8503082F862
:108270003C1090F851200AB1132B00D9CCE770477D
:10828000212838B50C4605D022282FD0202813D01D
:10829000002038BD0029FBD0072AF9D11A4B53F82A
:1082A000CC0C13F8C81C13F8C72C13F8C63C20607C
:1082B00021716271A371EBE70029E9D0072AE7D1A8
:1082C000124AD2F814381BB1D2F81008096898473E
:1082D0000D4B256820796179A27943F8CC5C03F8CD
:1082E000C80C03F8C71C03F8C62CD1E70029CFD06F
:1082F000022ACDD1054AD2F81C38002BC8D00988F3
:10830000D2F818089847C3E7F0290020F818002091
:10831000024B002043F8D40C704700BFF029002026
:10832000054B064A0020052142F8D41CC3F81C085E
:10833000C3F81408704700BFF8180020F029002087
:10834000704700BF704700BF704700BF704700BF55
:10835000704700BF704700BF704700BF042301484B
:108360000B8070479801002010B4074A074B12F8A1
:10837000C40C122403F114020C8001280CBF18460F
:1083800010465DF8044B7047F02900209C01002046
:1083900010B40C4A12F8C03C02EBC3010133DBB24B
:1083A000042B4FF0050408BF00234FF4045001F8DC
:1083B000BC4C02F8C03C41F8B80C5DF8044B4FF0DF
:1083C000FF307047F0290020202301480B807047C0
:1083D000C4010020642301480B807047E4010020A1
:1083E000432301480B8070474802002010B5084C19
:1083F000D4F8F400FF2808D0064951F89C2C98398D
:10840000FFF73EFFFF23C4F8F430002010BD00BF8B
:1084100098010020F0290020E8E700BF08B5D0F857
:10842000E4355B6A9847002008BD00BF08B5D0F866
:10843000E4351B6A9847002008BD00BFD0F8E4353A
:1084400010B504461B689847D4F8E8359B689847F0
:10845000002010BD08B5D0F8E435DB6903B19847BA
:10846000002008BD08B5042290F81211D0F8E835B4
:1084700080F8131180F81221DB689847002008BDAE
:1084800010B5D0F8E83504461B699847032384F8F3
:108490001231002010BD00BF0B0617D401EB810381
:1084A00000EBC30310B400EB81000124002283F829
:1084B000764383F8741383F87523426D5DF8044B9B
:1084C000136843F4001300201360704701F07F012C
:1084D00001EB810300EBC303012200EB810083F871
:1084E0001C1183F81E2183F81D2182691368002B5B
:1084F00001DA43F0804343F4001313600020704717
:108500000B0630B41CD401EB810200EBC202002345
:1085100000EB810582F8741382F8753301241A4642
:1085200004FA01F16D6D61F31F4201696FF3CF33FE
:108530002B60CB6923EA0203002030BCCB6170477B
:1085400001F07F0101EB810400EBC404012200EB88
:108550008105002384F81C1184F81D2102FA01F121
:108560001A46AD6961F30F02DFE700BF10B5812144
:108570000446FFF7C5FF20460121FFF7C1FF024B6C
:10858000002003F8900C10BDF029002010B58121C7
:108590000446FFF7B5FF20460121FFF7B1FF822116
:1085A0002046FFF7ADFFFFF7B3FE002010BD00BF70
:1085B00038B50D4604468321FFF7A2FF2946204621
:1085C000FFF7E4FF002038BDF0B416460A063AD49F
:1085D00001EB810500EBC5052824002204FB010402
:1085E000022B85F87413C5F87C6385F8773385F81A
:1085F000752304F55D7448D0154600EB8107012210
:1086000002FA01F17F6D61F31F45D7F800C01CF439
:10861000004F11D1E488204946F0805242F40042D4
:1086200042EA834204F00F041C4B42EA8452114098
:108630000CEA0303194339600269D3692B43002014
:10864000F0BCD361704701F07F0101EB810500EBC5
:10865000C5052824012204FB0104022B85F81C1106
:10866000C5F8246185F81F31A5F8221185F81D2170
:1086700004F58E740CD0002500EB8107012202FA6C
:1086800001F1BF6961F30F05BFE722711546B4E739
:1086900000252571F0E700BFFF87CC13007833EC8D
:1086A000002310B5194604464022FFF78DFF8021B4
:1086B000204600234022FFF787FFD4F8E835A07852
:1086C000012284F812215B689847002010BD00BF8A
:1086D00082B00023016801930B6901930E4B03E004
:1086E0000A690192013B13D0019A002AF8DA019A33
:1086F000094B42F001020192019A0A610A69019252
:1087000003E00A690192013B02D0019AD207F8D432
:10871000002002B0704700BF400D0300436D064AC1
:108720001A61C278012A06D100F2CC5058614FF08C
:10873000802219681A6070471800086010B58021FF
:108740000446FFF7A9FE20460021FFF7A5FE2046BC
:10875000BDE81040E2E700BF70B44B78012B26D093
:108760000B784A6900EB83035C6D25682369D2B1FD
:108770008A684A6102F07F0223F4002323F07F031A
:1087800042F4002213432361C378012B04BF0B6919
:108790006361C5F3076363F07B0363F31F652560C3
:1087A000002070BC70478A6802F07F02E4E78269AB
:1087B0004C691568136944B38E68B4428CBF06F0E7
:1087C0007F0404F07F0423F4002323F07F0344F4A8
:1087D000002443EA040388BF4E611361C378012B70
:1087E0001DD0C5F3076464F07B0464F31F65156056
:1087F000002BD5D14B69002BD2D002690878516B80
:10880000012383400B435363CAE723F4002323F07F
:108810007F0343F400231361C378012BE1D10B786C
:108820000C6900EB8300C5F30763816963F07B0388
:1088300063F31F654C610020156070BC704700BF7A
:108840002DE9F0434B78012B30D00B784C6900EBCD
:1088500083035E6D356837691CB38B681C44013C2B
:10886000B4FBF3F4C4F3090203FB02F3C3F31203F2
:108870004B61144643EAC44363F31C073761C37872
:10888000012B04BF0B697361CB78012B44D0C5F376
:10889000076363F07B0363F31F6535600020BDE869
:1088A000F0838A680124C2F31203E3E791F80080A1
:1088B0004E6900EB880EDEF818C0DCF80050DCF8DA
:1088C000107076B3D1F80890384A06EB0904013CE1
:1088D000B4FBF9F402EAC444C6F312022243CC7892
:1088E00007F060473A43012C174649D0CCF81020D6
:1088F000C278012A55D00269516B03FA08F30B4381
:108900005363C5F3076363F07B0363F31F65CCF820
:1089100000500020BDE8F0834B7973B345F000555B
:10892000B5E707F0604747F40027CC78CCF8107023
:10893000C378012B2FD0012CE3D102699268D205B4
:1089400054BF45F0005545F08055C5F3076262F00D
:108950007B0262F31F65CCF80050002B9ED1B0B2B1
:1089600003308010DEF8D04098D0CA6852F8041B5B
:10897000216001339842F9D190E745F0805586E7B0
:1089800064F35E77CCF81070C378012BD5D10A69F7
:10899000CCF81420D1E70A69CCF81420012CB0D10E
:1089A000CBE70B69CCF81430ABE700BF0000F81F31
:1089B00038B501EB810400EBC4040D46002184F8B6
:1089C0007453C4F88C1384F87513C4F88833C4F84E
:1089D0008023C3782821012B01FB050108BFEDB2DC
:1089E00001F55D7108BFC4F884231DB9FFF7B4FE1B
:1089F000002038BDFFF724FF002038BD70B5104BB4
:108A000053F8842C13F86C5C04461AB113F8803CBC
:108A10002B430DD081212046FFF73EFD022D00D0D3
:108A200070BD2046074ABDE870401F230121BFE703
:108A30000121FFF731FD20468121BDE870402BE583
:108A4000F02900206429002010B501EB8101084ABB
:108A500000EBC1010446B1F88C131046FFF770FB20
:108A6000034A204640230121FFF7A2FF002010BD4A
:108A700088290020E8E700BF10B502230446402201
:108A80008121FFF7A1FD2046022340220121FFF7AB
:108A90009BFD8221204603230822FFF795FD064B0C
:108AA00002229A83FFF73CFC044A2046402301211E
:108AB000FFF77EFF002010BD9801002088290020CC
:108AC00038B509220D46044603238321FFF77CFDB8
:108AD00029462046FFF7D0FF002038BD82B0002392
:108AE0000193019A094B42F010020192C168019A68
:108AF0000A610A69019203E00A690192013B02D00E
:108B0000019AD206F8D4002002B07047400D03004D
:108B100082B000230193019A0B4B42F02002019294
:108B2000019A61F38A120192C168019A0A610A6985
:108B3000019203E00A690192013B02D0019A920678
:108B4000F8D4002002B07047400D030070B5044611
:108B5000144EFFF70BFD2046022340228121FFF730
:108B600033FD4022012120460223FFF72DFD56F858
:108B7000283C00251B6806F8905C284606F86C5CCB
:108B800098472046FFF7AAFF20460121FFF7C0FFC4
:108B90002046A6F18C021F230121FFF709FF28467A
:108BA00070BD00BFF02900200E4BDA68D20310D44C
:108BB000DA68D1060FD4DA68D20510D4DA6812F078
:108BC000E00F0AD1DB6813F0020F14BF0820092060
:108BD0007047012070470620704707207047022029
:108BE000704700BF003C024000207047134A52F813
:108BF000240CC8B152F8203CB3B1884212D88B4241
:108C000034BF00230123DBB25BB152F8183C42F8B9
:108C10001C1C99421FBF0A4B42F8181C142083F8F1
:108C2000F80070470023EEE7A1F59C53083BB3F52D
:108C30007A7F2CBF00230123E6E700BFF029002044
:108C400098010020064B13F8132C03F8141C8A42D9
:108C50001FBF044A03F8131C142082F8F800704761
:108C6000F029002098010020704730B1034B13F821
:108C7000120C012894BF002001207047F029002029
:108C800008B5FFF7F2FF60B1064A12F8113C12F87E
:108C9000142C5B0003F00203002A18BF43F0010309
:108CA0000B6008BDF029002008B5FFF7DEFF18B102
:108CB000024B53F8103C0B8008BD00BFF029002088
:108CC00070B5FFF7D2FF60B10B4A32F80C5C3DB1D2
:108CD00052F8086C0023B3421C4603DB002000E07E
:108CE0000D7070BD02EB4404013334F8044CAC4207
:108CF000DBB2F0D10B70F4E7F029002008B5FFF7E4
:108D0000B4FF10B100230B70137008BD042070472E
:108D100028B1034B93F9FA00003818BF01207047BF
:108D20009801002008B5FFF7F3FF50B1054B93F908
:108D3000FA20012AC3BF93F8FD30C3F340030B6050
:108D4000002008BD9801002008B5FFF7E1FF18B129
:108D5000024B93F8FC300B7008BD00BF9801002057
:108D600070B5FFF7D5FF38B10D4C94F8FD30DB0737
:108D700003D500230B70137070BD0A4D94F9FB30BE
:108D80002E7B93FBF6F301330B7094F9FB40297BA8
:108D900094FBF1F301FB134301331370ECE700BFC5
:108DA00098010020F02900200320704770B5084A80
:108DB000137C06255E1CB6FBF5F405FB1464557C9C
:108DC000AC421EBF02EBC3031474C3E9050170BDBE
:108DD000F0290020002230B504461046914200DC04
:108DE00030BDA35C0825584010F0800F4FEA4003C7
:108DF00018BF83F0D503013DD8B2F5D10132EDE7BC
:108E000010B5D9B10E4B586C814217DCB2B1DB689A
:108E10009A4213DC0B4C013A013903FB012184F81F
:108E2000081104F582700521FFF7D4FF062184F8AC
:108E3000090104F58270BDE81040B7E710BD00BF1E
:108E4000F029002098010020124B30B49C6CFCB13A
:108E500000220F2583F84E10090A83F84D0083F88D
:108E60004F101A655A659A6583F84C5003F14C000F
:108E7000012110F8015F01312A440E29D2B2F8D144
:108E800083F85A202046044930BC102241F054BFD8
:108E900030BC7047F02900203C2A0020024B002102
:108EA00083F85C101966CFE7F02900202DE9F04F18
:108EB000DFF88C93D34D4E4684460F4692460FCE34
:108EC00005F164042DED068B0FC40FCE0FC496E898
:108ED000070095F89A3089B084E80700CDE904C707
:108EE000042B00F26C81DFE813F0CA016A0165010E
:108EF0000500D9019FEDC48ADFEDC48AC449C54B82
:108F0000C54AC5F88010C549E967BAF1000F18BF16
:108F1000134638EE887AF5EE006A86EE87AAC04ED0
:108F2000C5F88830A6F1120B0027DFEDBE7A9FED61
:108F3000BE9A28EE278AF0EE679A059BBB4200F0A6
:108F400033811BF8012BAB1893F89F40002C00F0E5
:108F50003B81DFF8F0E2002102E0152900F03481C6
:108F600001EB41004B001EF800C0A44501F10101D6
:108F7000F3D1284490F87D11002900F07E8120462D
:108F8000CDE9022340F040FADDE902238046404665
:108F9000CDE9022340F07CFB0078002840F01481EA
:108FA000029A039B01322B44D2B2032183F8BD21E4
:108FB00083F8BC11B8F1000F00F006812309013BD2
:108FC000032B04F00F0E00F2198109EB4300B0F8F7
:108FD0002CC04CFA0EF010F0010000F00F810124BB
:108FE00004FA0EF0013800EA0C00CDE9022352F039
:108FF000BDFC039BDFF850C2029A4B44032193F857
:10900000343018440CEBC00373619971DA715CF869
:10901000300098F8082000F13F4101F57E0109EB8E
:10902000912191F8381001F01F0C4909032904FA25
:109030000CF400F01481042900F00A81022900F0E8
:1090400015819B880693B3FA83F3C3F11F03C3F31F
:10905000CC0100EB810103F007030C6A9B004FF089
:109060000F0C0CFA03FC24EA0C040C620C6A02FAE2
:1090700003F323430B62022306A90793FEF7C0FF05
:10908000BAF1000F00F0B180B5F8983000EE103A58
:10909000B8EEC00AFCEEC07A17EE901AD8F800308D
:1090A000624A934200F09C80A2F58062934200F0F5
:1090B000978002F58042934200F0928002F5806230
:1090C000934200F08D8002F58062934200F0888028
:1090D000D5F8E82350084FF6FF73B0FBF1F21A44BD
:1090E000120CB0FBF2F2BAF1000F7CD0B2FBF1F13E
:1090F0008BB295F89A0004280BBF07EE901A07EE82
:10910000902AF8EE677AF8EE676A05BF07EE102A34
:1091100067EEA97A66EE887AF8EE476A29EE677AF2
:1091200095F89B0004990091A8EEA67A019041461B
:109130003046C6ED027A86ED037A30F085F9002FCD
:109140005EDD7368D5F8C02093427FD0012F57D0E1
:10915000D5F8D820934279D0022F51D0D5F8F020FD
:10916000934273D0032F4BD0D5F8082193426DD092
:10917000042F45D0D5F82021934267D0052F3FD04A
:10918000D5F83821934261D0062F39D0D5F8502137
:10919000D31A18BF012301370122082F33747274C8
:1091A00006F118067FF4C9AE214809B0BDEC068B64
:1091B000BDE8F08F9FED1F8AF0EE488A9EE69FED96
:1091C0001E8AF0EE488A99E61C4A134BC5F88020A7
:1091D0000020C5F8883009B0BDEC068BBDE8F08FE3
:1091E000D5F8E80377E7194683E7B0EE4A0A53F06B
:1091F0006FFAFCEEC07A17EE901A4FE770613FE706
:109200000123C8E7F0290020ACC5A737ACC5A736B5
:10921000F9600308C15B03084D750408597504081B
:10922000AC2A00206F12833A00007A440004014007
:10923000542A0020282930386F120339B95E0308F8
:1092400098DE05086C2B0020D82B00200023A2E715
:109250001449D1F830C044EA0C040C63F1E611491A
:10926000D1F840C044EA0C040C64EAE60D49D1F898
:1092700044C044EA0C044C64E3E6884687E69FED6C
:109280000A8A0A4B0A4AEB6700230493C5F8802038
:10929000084BF0EE488A4FF0010A3AE69FED068A45
:1092A000EFE700BF003802406F12833A5975040897
:1092B000F96003084D75040800000000F8B5054684
:1092C000262026F0C5F8144C014608BBD4F8EC0360
:1092D00090F838301E3B012B02D894F8F9330BB1CB
:1092E00041F05EFD0D4F0026AE4209DBB4F81A34A2
:1092F0000133A4F81A3454F8D03CC4F82C34F8BD27
:1093000017F8011BD4F8EC0341F04AFD0136EBE7F6
:10931000002384F82834EEE7F0290020EA2D00200D
:1093200038B5124C637C227C9A4218D004EBC303FC
:10933000D3E9052004F2FA310023984210DC937837
:10934000C4F830045B0884F82834FFF7B7FF637C67
:1093500006210133B3FBF1F201FB1233637438BD14
:10936000D55C01F8015B0133E7E700BFF02900207D
:1093700013B504462620019126F06AF8019920B918
:10938000204602B0BDE810405EE502B010BD07B552
:109390000DF1060215F082FA70B1094BBDF80620F6
:1093A000B3F8341423F80C2C91421FBF0549A3F8DD
:1093B0003424142081F8F80003B05DF804FB00BFEA
:1093C000F02900209801002013B50446FFF7A0FC07
:1093D00008B300230DF106022046ADF8063015F063
:1093E0005DFAC0B10D4C9DF8062094F9FA1084F88E
:1093F0000E21032908BF62F07F024FF005010848E3
:1094000008BF84F80E21FFF7E5FC062184F80F0160
:109410000348FFF7CBFC02B010BD00BF980100204D
:10942000A20200202DE9F743C14CA36C0D4643B1C5
:109430004FF0020800274FF00109A06C41F0ACFC8E
:1094400060B9002614F8123C042B00F26B81DFE8AF
:1094500013F09100EF00030150015901A06C41F09D
:1094600093FC236E5A1C2344226683F8360494F836
:109470005C30012B09D0022B10D0002B76D10F28A5
:109480000CBF84F85C902366D7E7A0F17203012B30
:1094900001D976286AD184F85C80CEE7102ACCD135
:1094A000A4490023012211F8010F013203440E2ABE
:1094B000DBB2F8D194F8442484F85C709A422766B1
:1094C000BBD194F84534002BB7D194F83764732E90
:1094D0003FD0762E0FD0722EAFD194F8392494F865
:1094E000383453EA0223A8D044F8243CB4F83A3480
:1094F00044F8203CA6E794F8392494F8383453EA29
:1095000002239AD094F83B1494F83A2494F83F0438
:1095100044F8103C42EA012294F83C1404F8111C6F
:1095200094F83D1484F8481494F83E14A4F84624A2
:1095300041EA0021A4F84A1454F81C1C09B944F863
:109540001C3C34F80C3C002B7FF47CAF24F80C2C32
:1095500078E794F83D2494F83C3443EA02231AB2A5
:10956000002B3FF46AAFA4F84C246BE784F85C70DE
:10957000276662E7722E4DD1012304F8123C0022C7
:1095800094F85434402B36D134F80C0CA4F85A64B7
:1095900094F8486414F8123CB4F846C4A4F858345B
:1095A0000502330314F8141C54F8107C05F470659C
:1095B00003F440532B434FEA0C1543EA8133EDB2D9
:1095C0002B4354F81C5C1BB2BD4214BF0825002578
:1095D0001343604514BF042000202B430343B142D2
:1095E00014BF022100211943534BA4F85C1493F8D3
:1095F000F830A4F85E34636C23B154F8083C002BB7
:1096000040F0A4804D494E481F2203B0BDE8F0430E
:1096100054F02FBCD4F850344A4AEB1A934201DC80
:109620000022ADE77220FFF739FCC4F85054F7E789
:10963000762E04D1022304F8123C0022A0E7D4F8CD
:109640005034404AEB1A9342EADD7620FFF726FCBD
:10965000C4F85054002293E7374FD4F8503497F8A9
:10966000F820EB1AB2B3374A934236DD14F8112CC6
:10967000D2071FD454F81C1C54F8102C91420FD060
:1096800089B24620FFF774FE97F8F830C4F85054BA
:10969000013B87F8F830042304F8123C01226FE7FD
:1096A00034F80C1CB4F846248A4203D05020FFF74B
:1096B0005FFEE9E714F8141C94F848248A4206D0A7
:1096C000B1FA81F149094920FFF752FEDCE7142283
:1096D00087F8F8201C4A9342B7DC762EA0D173207D
:1096E000FFF7DCFB032304F8123CC4F850540022BB
:1096F00046E7732E94D0D4F85014124B691A99424D
:1097000098DC8DE7D4F850340E4AEB1A934287DD8B
:109710007620FFF7C3FB022304F8123CC4F8505430
:1097200000222DE7002304F8123C1A4628E700BF68
:10973000F0290020262E002098010020805A0608DB
:10974000A80200203F0D03003F420F00334DD4F824
:1097500060642A2385F810310DF1020220230DF1F7
:109760000101304685F8113115F02FF930B19DF81F
:1097700001109DF8027051EA070339D1552385F88D
:109780001231462385F81331202301A9304685F88C
:10979000143115F014F90346214813B1BDF8042023
:1097A0009ABB20494BF05CF8B4F84A741E4D87B35D
:1097B0000DF10301304615F005F950B39DF8031083
:1097C0000DF10602304615F069F810B3BDF8062019
:1097D00016493B46BA420CBF20222A2228464BF0AB
:1097E0003FF8B4F84C34A4F8643403B0BDE8F08317
:1097F000304615F0CFF8394685F81201304615F09D
:10980000B5F8037885F81331BEE709494BF028F81D
:10981000CAE7084928464BF023F8E2E79801002000
:10982000AD020020A25A0608B10200209A5A06088A
:109830007BE00608A15A060838B50B680E4D5A1C85
:109840000A6005221A700B6895F8FA200C46591C1C
:1098500021601A70236895F8FD20591C21601A7048
:10986000B5F80011204648F0CFF9236895F8022199
:10987000591C21601A7038BD980100202DE9F0476D
:109880002DED028BFFF744FAC8B31E4B93F9FA0093
:10989000012834DD93F82F411B4F9FED1C8A15469C
:1098A0008E1E02EB44084FF03209454504D1BDEC51
:1098B000028B2046BDE8F08737F802AB26F802AFEE
:1098C00007EE90AAF8EEE70AB2EE040A60EE880A04
:1098D00053F068F8BCEEC00ABAF10E0F10EE103A61
:1098E0009BB209D91933B3FBF9F39BB203EB8303A2
:1098F00003EB83035B009BB225F8023BD5E7002412
:10990000D5E700BF98010020562E0020CDCCCC3DDD
:1099100038B50D46FFF7FCF9044638B10C4890F80D
:10992000FD30DB0704D5B0F8FE002880204638BDA6
:10993000084A90F9FB30127B93FBF2F102FB1132E3
:109940000132013100F5987014F0BCFFEDE700BF63
:1099500098010020F029002000F01F024009012397
:10996000032803FA02F304D004280CD0022805D0FF
:109970007047074A116C0B4313647047044A516CDB
:109980000B4353647047024A116B0B4313637047D8
:109990000038024000487047382C002000285FD073
:1099A0000368374A2DE9F04103F13F4404F57E0492
:1099B00002EB9422012492F8382002F01F0552098C
:1099C000032A04FA05F456D0042A4FD0022A48D0BC
:1099D0008588B5FA85F0C0F11F00C0F3CC0603EB13
:1099E000860600F0070082000F24306A944020EAC7
:1099F00004003062306A01FA02F20243002132624E
:109A00004FF0010E0A464FF0030C02270EFA02F83F
:109A100038EA050002F101021CD118680CFA01F4C1
:109A200020EA04001860186807FA01F606431E6071
:109A30009E6826EA04069E6098689860586820EA46
:109A40000800586058685860D86820EA0400D86058
:109A5000D868D860102A01F10201D7D1BDE8F081A1
:109A60007047084A556C2C435464B1E7054A156B9E
:109A70002C431463ACE7034A156C2C431464A7E72A
:109A800098DE0508003802402DE9F84FB74C94F8ED
:109A900076140546C1F34001D4F87C0441F0F4FE8D
:109AA00094F87614D4F87804C94301F0010141F028
:109AB000EBFE002D00F0D5806E1EAD49AD4B5FFA78
:109AC00086FB10200125D4F87C2442B117689288C7
:109AD000D7F814C012EA0C0F14BF7A833A83D4F873
:109AE000782442B117689288D7F814C012EA0C0F94
:109AF00014BF7A833A834FF0FA084FF47A7E4A68AB
:109B0000C2F30802002A40F0EE80EFF31182002A2F
:109B100040F0E98054F8D07CD3F808C054F8D02C39
:109B20009742F7D1D4F88C249445F3D8D4F88864BC
:109B30000EFB06F2A2EB0C02B2FBF6F20EFB0727BD
:109B40004A68C2F30802002A40F0AC80EFF31182A9
:109B5000002A40F0A78054F8D02CD3F808A054F87D
:109B6000D06CB242F7D1D4F88C64B245F3D8D4F8B3
:109B700088640EFB06FCACEB0A0CBCFBF6FC0EFB8F
:109B800002C2D21BB2F57A7FDAD3B8F10108B6D19E
:109B9000D4F87C2442B117689288D7F814C012EA2E
:109BA0000C0F14BF7A833A83D4F8782442B1176833
:109BB0009288D7F814C012EA0C0F14BF7A833A8344
:109BC0004FF0FA084FF47A7E4A68C2F30802002A7E
:109BD00040F0AA80EFF31182002A40F0A58054F8EB
:109BE000D07CD3F808C054F8D02C9742F7D1D4F8E1
:109BF0008C249445F3D8D4F888940EFB09F2A2EB98
:109C00000C02B2FBF9F20EFB07274A68C2F3080206
:109C10004ABBEFF3118232BB54F8D02CD3F808A022
:109C200054F8D06CB242F7D1D4F88C64B245F3D872
:109C3000D4F888940EFB09FCACEB0A0CBCFBF9FCD5
:109C40000EFB02C2D21BB2F57A7FDED3B8F1010857
:109C5000BAD10BF1FF365FFA86FBBBF1FF0F7FF441
:109C600032AFBDE8F88FEFF3118980F312889E6858
:109C70001A68D20344BFC4F884549E6854F8D02CA8
:109C8000D4F884C45FFA89F989F31188D4F88894E8
:109C900062440EFB09FCACEB060CBCFBF9FC0EFBB2
:109CA00002C2CFE7EFF3118980F31288D3F808A03E
:109CB0001A68D20344BFC4F88454D3F808A054F8F7
:109CC000D02CD4F884C45FFA89F989F31188D4F8C8
:109CD000886462440EFB06FCACEB0A0CBCFBF6FC91
:109CE0000EFB02C24DE7EFF3118C80F31288D3F81C
:109CF00008901A68D60344BFC4F88454D3F8089077
:109D000054F8D02CD4F884745FFA8CFC8CF311884E
:109D1000D4F8886417440EFB06F2A2EB0902B2FBEA
:109D2000F6F20EFB07270BE7EFF3118C80F3128896
:109D3000D3F808901A68D60344BFC4F88454D3F803
:109D4000089054F8D02CD4F884745FFA8CFC8CF30F
:109D50001188D4F888C417440EFB0CF2A2EB090258
:109D6000B2FBFCF20EFB07274FE700BFF0290020F3
:109D700000ED00E010E000E02DE9F84FB34C94F85E
:109D80007614D4F87C04C1F3400141F07DFD94F8D1
:109D90007614D4F87804C94301F0010141F074FD50
:109DA000AB49AC4B4FF0050B10200125D4F87C24B7
:109DB00042B117689288D7F814C012EA0C0F14BF8A
:109DC0007A833A83D4F8782442B117689288D7F816
:109DD00014C012EA0C0F14BF7A833A834FF0320892
:109DE0004FF47A7E4A68C2F30802002A40F00D81DF
:109DF000EFF31182002A40F0088154F8D07CD3F8A8
:109E000008C054F8D02C9742F7D1D4F88C2494454C
:109E1000F3D8D4F888640EFB06F2A2EB0C02B2FB76
:109E2000F6F20EFB07274A68C2F30802002A40F048
:109E3000AA80EFF31182002A40F0A58054F8D02CBC
:109E4000D3F808A054F8D06CB242F7D1D4F88C649F
:109E5000B245F3D8D4F888640EFB06FCACEB0A0CD0
:109E6000BCFBF6FC0EFB02C2D21BB2F57A7FDAD342
:109E7000B8F10108B6D1D4F87C2442B117689288B1
:109E8000D7F814C012EA0C0F14BF7A833A83D4F8BF
:109E9000782442B117689288D7F814C012EA0C0FE0
:109EA00014BF7A833A834FF032084FF47A7E4A68BF
:109EB000C2F30802002A40F08780EFF31182002AE3
:109EC00040F0828054F8D07CD3F808C054F8D02CED
:109ED0009742F7D1D4F88C249445F3D8D4F88894D9
:109EE0000EFB09F2A2EB0C02B2FBF9F20EFB072704
:109EF0004A68C2F308023ABBEFF3118222BB54F85E
:109F0000D02CD3F808A054F8D06CB242F7D1D4F8D2
:109F10008C64B245F3D8D4F888940EFB09FCACEB02
:109F20000A0CBCFBF9FC0EFB02C2D21BB2F57A7F15
:109F3000DED3B8F10108BAD10BF1FF3616F0FF0BF2
:109F40007FF434AFBDE8F88FEFF3118980F3128806
:109F50009E681A68D20344BFC4F884549E6854F8BB
:109F6000D02CD4F884C45FFA89F989F31188D4F825
:109F7000889462440EFB09FCACEB060CBCFBF9FCBC
:109F80000EFB02C2D1E7EFF3118980F31288D3F8F8
:109F900008A01A68D20344BFC4F88454D3F808A0B8
:109FA00054F8D02CD4F884C45FFA89F989F3118865
:109FB000D4F8886462440EFB06FCACEB0A0CBCFBD4
:109FC000F6FC0EFB02C24FE7EFF3118C80F3128810
:109FD000D3F808901A68D60344BFC4F88454D3F861
:109FE000089054F8D02CD4F884745FFA8CFC8CF36D
:109FF0001188D4F888C417440EFB0CF2A2EB0902B6
:10A00000B2FBFCF20EFB072772E7EFF3118C80F333
:10A010001288D3F808901A68D60344BFC4F8845451
:10A02000D3F8089054F8D02CD4F884745FFA8CFCE0
:10A030008CF31188D4F8886417440EFB06F2A2EB67
:10A040000902B2FBF6F20EFB0727ECE6F02900202E
:10A0500000ED00E010E000E010B4B8B10D4CD4F811
:10A060009034102B05D15DF8044B0521002040F001
:10A070000BB803EB4302224482F8951401210B44F0
:10A0800082F8940482F89614C4F890345DF8044B76
:10A09000704700BFF02900202DE9F84F2E4F00EB4C
:10A0A000800407EBC404D4F8C8642EB1054694F8C4
:10A0B000DD0400F0FF0820B14FF000084046BDE885
:10A0C000F88F89469A46934640F036FA4FEA49019E
:10A0D0000123C9B284F8DE1484F8DFB484F8E134D3
:10A0E00084F8E28484F8E03484F8DD3484F8DC8495
:10A0F000B288C4F8E4A491058146C4F8E8A41DD44C
:10A100003388DA0510D442F20F7405E040F014FAF7
:10A11000A0EB0903A34215DC33889B05F6D43388F2
:10A120009BB243F480733380B3889BB243F4407393
:10A130004FF00108B3804046BDE8F88F984640468E
:10A14000BDE8F88FB7F83C3501339BB22846A7F835
:10A150003C3550F0E1FFB1E7F029002070B5464EE4
:10A1600096F83E4504EB440306EBC303650093F801
:10A170004035032B6ED8DFE803F059291E02254431
:10A1800006EBC505D5F84405002870D196F8A03532
:10A190009C425FD0013404F00302934286F83E25CE
:10A1A00058D002EB420406EBC4040223C4F8440571
:10A1B00084F8403570BD2B1906EBC303D3F8442552
:10A1C00072B1013AC3F84425002070BD2B1906EB8B
:10A1D000C303D3F84425002AF3D1022283F8402593
:10A1E000254406EBC50595F84C35013BDBB285F8F7
:10A1F0004C358BBB214B96F8A065D3F83411D5F8BC
:10A200004805621C02F003024B1E0324B2420344C1
:10A2100085F84045B3FBF1F0C5F844051AD09942E2
:10A2200018D80138C5F84405012070BD42F02EFB56
:10A2300080B1124B2C44D3F8342106EBC404012125
:10A2400002F51C5384F840150F33B3FBF2F3C4F846
:10A25000443570BD012070BD084BD3F83421012076
:10A2600002F2E733B3FBF2F3C5F8443570BD0138B1
:10A27000C5F84405002070BDF02900209801002099
:10A2800003681A78012A01BF93F90430054A03EBE9
:10A29000830302EBC30306BF93F8DD04C0B20020C2
:10A2A000704700BFF0290020F0B53B4CD4F8A4550E
:10A2B0002B78022B95B018D0012B02D0002015B0BE
:10A2C000F0BD95F904506B1CF8D0022DF6DC00911E
:10A2D000134694F8A8150246284651F0BFF8002806
:10A2E000ECD0284651F096F9E9E72B6A002BE5D12E
:10A2F0000DF10F0C8DF80F00002601200027CDE98D
:10A300000833CDE90A12CDE90E6705938DF81C30AC
:10A310000D9310931293CDF810C006908DF8300075
:10A320008DF84400EFF31180102383F31288D4F8E2
:10A33000A4351B6A13B3069B04AE32461BB1D36926
:10A340001432002BFBD12B6A13B3996839B99342AD
:10A350000AD0196829B15B6899680029F7D01433CD
:10A36000F3E70E4AC3E90026C0B280F31188D4F89F
:10A37000A425136A002BFCD10120A0E704ABC0B2D6
:10A380002B6280F3118804F2A4504FF0F1FCEEE749
:10A39000024A1A60FFDE00BFF0290020942F00203F
:10A3A00070B503681D78022D14D0012D01D0002056
:10A3B00070BD044693F904000A4B421C83F87056A2
:10A3C000F5D00228F3DC0A4603F5CE632179BDE817
:10A3D000704061E61B6A002BE9D1012242F058F877
:10A3E000012070BDF02900202DE9F04FB24CB34F91
:10A3F00095B0002305464FF4F072202104F27460FA
:10A4000084F8713684F87236019553F0F4FC2021FB
:10A4100004F654004FF4F07253F0EDFCA8493226D4
:10A420004FF0100C4FF47A704FF0010E7B68C3F3BD
:10A430000803002B40F0B980EFF31183002B40F0AC
:10A44000B48054F8D02C8D6854F8D03C9A42F8D19E
:10A45000D4F88C349D42F4D8D4F8888400FB08F3F7
:10A460005B1BB3FBF8F300FB02327B68C3F308030A
:10A47000002B79D1EFF31183002B75D154F8D03C28
:10A48000D1F8089054F8D05CAB42F7D1D4F88C5492
:10A49000A945F3D8D4F8888400FB08F5A5EB090595
:10A4A000B5FBF8F500FB03539B1AB3F57A7FDCD3B9
:10A4B000013EBBD194F8352A002A50D094F8363AA0
:10A4C000013B022B4BD803EB830004EBC0017D4D15
:10A4D00091F8D06A05EBC0000127022EC4F8380AB3
:10A4E00084F8C07A00F05982DBB204EB0313D3F88E
:10A4F000483BC1F8D43A93B302234FF4807081F8FB
:10A50000D03AA5F188034C3DA1F8DC0AC1F8E83A3D
:10A51000C1F8EC5A1509013D032D02F00F0200F2BB
:10A520001F82694E06EB4503988D40FA02F3DB0764
:10A5300040F11682012303FA02F2013A1040354439
:10A5400051F014FA95F83420604B104403EBC0002E
:10A55000C4F8400A8379002B47D0412B45D06FF0D7
:10A56000010015B0BDE8F08FEFF311888CF312886D
:10A57000D1F808900B68DD0344BFC4F884E4D1F837
:10A58000089054F8D03CD4F884545FFA88F888F3E3
:10A590001188D4F888842B4400FB08F5A5EB090545
:10A5A000B5FBF8F500FB03537EE7EFF311858CF361
:10A5B0001288D1F808800B68DB0344BFC4F884E438
:10A5C000D1F8088054F8D03CD4F88424EDB285F357
:10A5D0001188D4F888541A4400FB05F3A3EB080350
:10A5E000B3FBF5F300FB02323FE72323C3800921CD
:10A5F0003FF062FAD4F8403A13B11A689B8813838B
:10A60000D4F8E823324BB3EB920F80F0CC81B3EB5C
:10A61000D20F80F0D181B3EB121F80F0D181B3EB68
:10A62000521F80F0D181B3EB921F80F0D181B3EB48
:10A63000D21F80F0D181B3EB122F80F0D1814FF483
:10A64000807200230DF10D01FF20A4F83C2A0122A5
:10A65000CDE90413CDE90833CDE90A33D4F8381A2B
:10A660008DF80D000D9306928DF81C208DF830208A
:10A67000EFF31180102383F31288D4F8383A1B6A61
:10A68000002B00F07181069B04AD2A461BB1D369F3
:10A690001432002BFBD10B6A002B00F0AB819968C0
:10A6A00039B99A4219D01968A1B15B689968002933
:10A6B000F7D01433F3E700BFF029002000ED00E0ED
:10A6C00010E000E0C034002098DE0508D82B002000
:10A6D000404B4C00B54AC3E90025C0B280F3118855
:10A6E000D4F8381A0B6A002BFCD18C220120CDE95A
:10A6F00008330DF10E080DF10F0A05938DF81C308B
:10A700000D93109312938DF80E2000230022CDE9B3
:10A710000E23CDF8108006900B908DF830008DF848
:10A720004400CDF828A0EFF31180102383F31288A2
:10A73000D4F8383A1B6A002B00F01F81069B2A468A
:10A740001BB1D3691432002BFBD10B6A002B00F034
:10A750005181996839B993420AD0196829B15B6867
:10A7600099680029F7D01433F3E7904AC3E900252C
:10A77000C3B283F31188D4F8382A136A002BFCD1B2
:10A780009DF80F301B2B40F02D81D4F8403A012268
:10A7900084F871260BB12322DA80DFF81092402270
:10A7A00048460A2141F074FE8A21002301228DF8D7
:10A7B0000E1000200021CDE90E01CDE90833D4F8B8
:10A7C000381ACDF81080CDF828A005938DF81C30EC
:10A7D0000D931093129306920B928DF830208DF802
:10A7E0004420EFF31180102383F31288D4F8383A11
:10A7F0001B6A002B00F0C980069B2A461BB1D36957
:10A800001432002BFBD10B6A002B00F0F680996804
:10A8100039B99A4209D0196829B15B689968002949
:10A82000F7D01433F3E7C3E90095C3B283F311887B
:10A83000D4F8382A136A002BFCD1D4F8E8235C4BF7
:10A84000B3EB920F80F0B680B3EBD20F80F0B680FE
:10A85000B3EB121F80F0B680B3EB521F80F0B680CE
:10A86000B3EB921F80F0B680B3EBD21F80F0B680BE
:10A87000B3EB122F34BF4FF4807380234B48A4F8FE
:10A880003C3A0222002141F003FEC8203FF044FD83
:10A89000D4F8380A4FF0800B00260027002301224D
:10A8A000CDE90E67CDE908338DF80EB0CDF81080F4
:10A8B000CDF828A005938DF81C300D9310931293BA
:10A8C00006920B928DF830208DF84420EFF3118121
:10A8D000102383F31288D4F8383A1B6A002B37D040
:10A8E000069B2A461BB1D3691432002BFBD1006AA8
:10A8F000002800F0858083683BB9824209D0036854
:10A900002BB140688368002BF7D01430F3E7C0E91F
:10A910000095C9B281F31188D4F8380A036A002B74
:10A92000FCD19DF80F3013F00203B7D101984178A4
:10A930008278007884F8780BC1F12001C2F110020E
:10A94000184684F8791B84F87A2B15B0BDE8F08F8F
:10A950000562C9B281F3118814484FF009FADBE7A8
:10A960000020C4F8400A42E604ADC0B20D6280F394
:10A9700011880E484FF0FCF9B2E60D62C3B283F3C2
:10A9800011880A484FF0F4F9F5E60D62C3B283F37B
:10A99000118848464FF0ECF94AE791F8DD3A3B441C
:10A9A00081F8DD3AB6E502224BE600BF28340020EC
:10A9B00080969800022361E7042242E604235DE7C3
:10A9C00008223EE6082359E710223AE6102355E70D
:10A9D000202236E6202351E7402232E640234DE78D
:10A9E00080222EE6D4F8400A20213FF065F84FF08F
:10A9F000FF30B6E5044A1A60FFDEC3F80090FFDEC0
:10AA0000C0F80090FFDE00BF283400200848002373
:10AA100002461178022902F1060204D00133062B06
:10AA2000F7D10020704703EB430300EB430070476E
:10AA30006C3500202DE9F0417A4C82B0242204F6D6
:10AA40007C30002153F0D7F994F8A55B0023C4F8BB
:10AA5000A03B002D3CD1D4F8443C6BB39B6A5BB364
:10AA60007148984783683BB30388DFF8D4C1013B42
:10AA70009BB26046664600213778032F06F1060632
:10AA80001ED001310629F7D100220178022900F1F8
:10AA9000060000F084800132062AF6D1D4F8A01B0B
:10AAA000052909D0481C02FB01C2C4F8A00B0220F2
:10AAB0000021938010705180284602B0BDE8F081DB
:10AAC000062303FB0141B1F87E3B013B9BB2DBE770
:10AAD00094F8A40B04F6AC33C4F8A83B08B90025DD
:10AAE000B9E740F0F1FBC4F8B40B18B183790BB1AE
:10AAF000412BF4D129464D4841F0C6FB05460028BC
:10AB0000EDD0D4F8A83B484A9868C3F8942008B11F
:10AB10002023C38009213EF0CFFFD4F8A83B444F47
:10AB2000986840F0ABFE4348D4F8A86B41F0DCFBDA
:10AB30000123B0803220C4F8646C84F8683C3FF094
:10AB400027FD042300260DEB0302D4F8A80B019681
:10AB50009F2141F049FC9DF805009DF804209DF8D7
:10AB60000630000240EA0240184332460C2601E05B
:10AB7000884218D0D3B206FB03730132196C002946
:10AB8000F6D194F8A40BA4F8481CA4F8541CC4F8FB
:10AB90004C1CC4F8501C0D4641F0E0F95BE706215F
:10ABA00001FB02C283E7B3F84A20B3F84870B3F858
:10ABB00044602149B3F84600A4F8542C120201FB6A
:10ABC00000F04FF4807301FB06F14FF0000802FB28
:10ABD00007F6A4F8487CC4F84C2CC4F8506CC4F8B0
:10ABE000780CC4F8741C84F8568CA4F84A3C41F0E4
:10ABF0007BFBD4F8647CB6F1807FB88006D80F4B1D
:10AC0000C4F8443C012284F85D2C24E70123B726D4
:10AC100042463846694684F85C3C8DF8006041F055
:10AC20008DFCECE7F0290020343600209C35002014
:10AC300098DE0508404B4C0040420F00BCDF050881
:10AC40006C35002099B10A6B824216D9154BD3F8A6
:10AC5000AC2C914221D34C3991421ED30B6B9842BC
:10AC6000F9D38B6B9842F6D80B46184670470D4BBC
:10AC7000D3F8AC1C0A6B904212D30B680BB9F4E703
:10AC80000A6B90420B4602D38A6B9042EDD951F881
:10AC90004C3F002BF4D118467047002318467047EC
:10ACA0000A46D8E7F02900202DE9F047CC0143D12E
:10ACB0000346224A43F8082B4FF0FF324260022439
:10ACC00018467E26DFF87880D8F8B09C2644013EEE
:10ACD000051D49466FF070474FF0010A08E0A34296
:10ACE0001CD0631C45F8043C321B1C460435CAB119
:10ACF0000B6BA34202D88B6BA34204D22046FFF712
:10AD0000A1FF014690B10A794B6B002AE7D1A3421B
:10AD100004D0E6D245F8042C631CE5E745F8047C32
:10AD2000631CE1E7C8F8B01CBDE8F08745F804AC47
:10AD3000321B631C4946D8E78026C3E7F8FFFF0FA4
:10AD4000F0290020F0B40D6800240CE0BCF1050FE0
:10AD500018D8A0F137030A2B14D104EB840415F89A
:10AD6000010B03EB4404A0F13003DEB2092EA0F185
:10AD70006107A0F1410CF0D9052FE7D8A0F15703E6
:10AD80000A2BEAD00D601460F0BC7047214A03889A
:10AD900090429BB212D002F5806290420ED0B0F188
:10ADA000804F0BD0A2F58032904207D002F580622E
:10ADB000904203D002F58062904203D14A8823F08A
:10ADC00070031343144A904218D002F580629042F7
:10ADD00014D030B423F440730C894D6802F56C42F2
:10ADE0009BB2234390420C880380C56204850DD139
:10ADF0008B7A0386012330BC8382704703800B88E3
:10AE00004A68C2620385012383827047034B9842DC
:10AE1000EED0EFE7000001400010004000040140C8
:10AE200070B4447941BB03684FF400524FF400768C
:10AE3000202502213CBB1A8C22F001021204120CC4
:10AE40001A841A8B188C22F0F30280B2120420F0BC
:10AE50000A00120C014342F0010241F001011A8381
:10AE600019841A8B22F00C021204120C1A831A8B0A
:10AE700092B270BC1A8370470022036816461546CA
:10AE80001146002CD7D0042C21D0082C38D0198C96
:10AE900021F480510904090C19849C8B1D8C45F602
:10AEA000FF7040F6FF4128402140024342F48052A7
:10AEB00041F4807199831A849A8B22F440621204BF
:10AEC000120C9A839A8B92B270BC9A8370471A8C38
:10AED00022F010021204120C1A84188B198C89B2F9
:10AEE00040F6FF4221F0A00102400D4342F480727F
:10AEF00045F010051A831D841A8B22F44062B3E7D3
:10AF00001A8C22F480721204120C1A84998B1A8CF7
:10AF100021F0F30192B2090422F42062090C3243B9
:10AF200042F4807241F0010199831A849A8B22F0D5
:10AF30000C02C4E70B88F0B433BB028C4C880E893A
:10AF40008B88C98822F001021204120C0284058B3E
:10AF5000028CADB225F0F30592B22B4322F00A0227
:10AF600043EA061322439BB242F0010203830284A8
:10AF7000038B23F00C031B041B0C0383038B9BB27A
:10AF80001943F0BC01837047042B048C2CD0082B90
:10AF90004E888A880D89C98851D024F480542404AD
:10AFA000240C0484838B078C2C0344EA022440F68F
:10AFB000FF421A4045F6FF733B4043EA0633224303
:10AFC0009BB292B243F4805382830384828B22F437
:10AFD00040621204120C8283838B9BB243EA0123EA
:10AFE0009BB2F0BC8383704724F010042404240C2B
:10AFF0004D880F898A88C9880484068B038C1202C5
:10B000009BB242EA073423F0A00340F6FF423240ED
:10B0100043EA051322439BB292B243F0100302832A
:10B020000384028B22F440621204120C0283038B0D
:10B030009BB243EA01239BB2F0BC0383704724F424
:10B0400080742404240C0484848B038CA4B29BB2EB
:10B0500024F0F30423F42063224343EA062342EA64
:10B0600005129BB243F4807392B282830384838B74
:10B0700023F00C031B041B0C8383838B9BB21943AB
:10B08000F0BC8183704700BF2DE9F04F824C94F8EB
:10B090002E8F94F839AF87B016460B2205468946A5
:10B0A0004046114602959DF840701D463EF026FB35
:10B0B000C245834640F0B0800390404640F004F91A
:10B0C00017F008030246019300F09A80BBF1000FCD
:10B0D00000F092809BF80710890700F18D80C4F87A
:10B0E000FCBCC4F8F80CC4F8F40C10B140F60B31F9
:10B0F000C18005F0020ADFF8B881029B674A84F834
:10B10000BC5C08F5807100255846C4F8E43CC4F8DE
:10B11000D01C4FF480733146C4F8B82CC4F8C43C3A
:10B12000C4F8C83CC4F8C06C84F8BD7CC4F8E89C82
:10B13000C4F8CC8CC4F8D85CC4F8D45CC4F8E05C27
:10B14000C4F8DC5CC4F8105F84F8145FA4F8085FEE
:10B150002DF0D4FFD4F8FC0C07F00101FFF760FEDE
:10B160004F4A504BD4F8FC0CC4F81C5FC4F8202F95
:10B17000C4F8183FBAF1000F25D0D4F8007D17B3FA
:10B180003A6803689A421ED001233146384684F853
:10B19000153F2DF0B3FFD4F8000D08F505722946D0
:10B1A0003DF058FFD4F8FC0C2A4608F507713DF035
:10B1B00051FF019B93B93C482DF0BCFF3A48012157
:10B1C0002DF0F0FF0AE0394A002302F1080184F86B
:10B1D000153F3DF03FFF019B002BECD032482DF096
:10B1E000B5FF314807B0BDE8F08FCDE90403039BFC
:10B1F00013B1D9798B0716D5002007B0BDE8F08FC1
:10B2000015F00103F1D105F002018A46BAF1000FF1
:10B2100022D1D4F8FCBC6EE70B220C2150463EF044
:10B220006DFA039049E7504640F04EF8039AC4F88F
:10B23000FC2C15F0020ADDE90423C4F8F40C05F037
:10B24000020123D0904219D0C0B140F60C3CA0F8C6
:10B2500006C0BAF1000FDCD0B8F1000FCCD0C4F8B2
:10B26000F82C83B9BBF1000FC6D0C4F8FCBC12B1F6
:10B2700040F60B33D3805FFA81FACAE7B8F1000FCA
:10B28000BAD0C4F8F82CC4F800BDF0E70028DCD12F
:10B29000DDF80CB02FE700BFF0290020E8DF05083B
:10B2A00079640308BD910308A836002008390020FE
:10B2B000F4360020036870B55E6A26B13346052275
:10B2C000BDE87040184704460D464E1D00E0236857
:10B2D0009B68204698470028F9D0236815F8011B81
:10B2E0001B6820469847B542F1D170BD0A4491428F
:10B2F00017D010B40139541E11F8013F08225840EC
:10B30000430010F0800F08BF400083F0D50314BF46
:10B31000D8B2C0B2013AF3D1A142EDD15DF8044BED
:10B32000704770472DE9F047154B054603F65474F6
:10B33000002093F94D8F84B06F1804F5287A0646E3
:10B340004FF0B6092368ABB193F83830142B11D005
:10B3500018F1020F01D043450CD100226946204666
:10B36000CDE90266CDE90057ADF808908DF80D6083
:10B370002FF0DCFBE034A245E4D104B0BDE8F08757
:10B38000F0290020094B93F89A30042B08D9053B8B
:10B39000032B08D801231A4600B1037010467047EA
:10B3A00000230122F8E700231A46F5E7F0290020E0
:10B3B0002DE9F0479AB0DDE9226ADDF89090044665
:10B3C0000D461746984602E020683FF0DDFC2068F5
:10B3D0003FF0E2FC0028F7D10146642201A852F0B8
:10B3E0000AFD264B8DF80450CDF85CA00293002D89
:10B3F00040D0AB1E012B3FD9042D14BF00220322E5
:10B400001F4B039653F8D03C8DF805201E440123B2
:10B41000CDE9059404968DF85B3037B14246394644
:10B4200007A852F087FC8DF85A80164E96F83E9188
:10B4300000231893B9F1000F19D196F83D01642249
:10B4400002FB006001A900F5A07052F073FC01231B
:10B4500086F83D9186F83E31236843B143463A462B
:10B46000294620461AB0BDE8F04712F095BC1AB044
:10B47000BDE8F0870522C3E70222C1E7E43B0020D4
:10B48000F0290020E83A00209FED727A07EE901A2A
:10B4900020EE070AF8EE677A27EE800AFDEEC07A02
:10B4A00017EE903A2033402B00F2C480DFED6A7A29
:10B4B000B4EEE70AF1EE10FAF0EE407A0CDD9FED03
:10B4C000676ADFED676AB0EE677AB4EEE67AF1EEAE
:10B4D00010FA77EEC67AF6DC9FED627AF4EEC77A60
:10B4E000F1EE10FA0CD59FED5D6ADFED5F6AB0EE0C
:10B4F000677AB4EEE67AF1EE10FA77EE867AF6D451
:10B500009FED5A7AF4EEC77AF1EE10FA00F38A80D2
:10B510009FED577AF4EEC77AF1EE10FA44BF9FED33
:10B52000517A77EE677A27EEA76ADFED525A9FEDE0
:10B53000527ADFED526AA6EE257A67EE865AE6EE7B
:10B54000076AB6EE007AE5EEA67A27EE877ADFED97
:10B55000476A70EE267ABDEEE76A16EE103A20339F
:10B56000402B64D8B4EEE60AF1EE10FA0CDDDFED04
:10B570003B5A9FED3B6AF0EE676AF4EEC66AF1EE65
:10B5800010FA77EEE57AF6DCDFED366AF4EEE67A6D
:10B59000F1EE10FA0CD5DFED315A9FED336AF0EE83
:10B5A000676AF4EEC66AF1EE10FA77EEA57AF6D481
:10B5B000DFED2E6AF4EEE67AF1EE10FA3DDDDFED16
:10B5C000266A76EEE77A67EEA75A9FED2A5A9FED34
:10B5D0002A6ADFED2A6AA5EE856A27EEA55AE5EE0E
:10B5E000866AB8EE006AE5EE267A67EE867AC7EEDE
:10B5F000206AB7EE006A76EE865A76EE666A86EEC6
:10B60000257A80ED091A67EE277A66EE876AC0ED23
:10B61000017AC0ED037A80ED007A80ED027AC0ED08
:10B62000046A70479FED0C7A77EE677A7BE7DFED6F
:10B63000147ADCE79FED127A89E7DFED0D6AF4EE0C
:10B64000E67AF1EE10FA44BFDFED066A76EEE77AAD
:10B65000B9E700BF27D4D236DB0F4940DB0FC94022
:10B66000E4CB1641DB0F49C0E4CB16C1DB0FC93F69
:10B67000DB0FC9BF92E741B99730083C15A82ABE35
:10B68000000000002DE9F041E04ED6ED6B7A96F80F
:10B690002447F8EE670A06F5E4632DED028BC3ED4F
:10B6A000000A002C6FD1DFF8C4C396F83477C6F8CF
:10B6B00030479CF80040002F39D0B6F82A379FED6C
:10B6C000D46A9FEDD47A07EE903AF8EE677A20EECE
:10B6D000877AC6EE276AD04B0022012F1A6076EED9
:10B6E000876AC7EE267AC3ED017A20D0022F9A60CE
:10B6F000C3ED037A1BD0032F1A61C3ED057A16D070
:10B70000042F9A61C3ED077A11D0052F1A62C3ED99
:10B71000097A0CD0062F9A62C3ED0B7A07D0072F57
:10B720001A63C3ED0D7A02D09A63C3ED0F7ABB4B57
:10B730009FEDBB6A93F8BA309FEDBA7A9FEDBA0AD3
:10B74000BA4A07EE903AF8EEE77A9CF8583BC6EE14
:10B75000276A1C4414FB07F4E4B207EE904A60EE3B
:10B76000870AF8EEE77AC2ED006AA7EEA00A51F068
:10B77000BBF8BDEC028BFCEEC07A17EE903A86F86F
:10B780008438BDE8F08196F825379FEDA96AB6F8B0
:10B7900026279FEDA82ADFEDA86ADFF8D0C296F829
:10B7A0003477C6F830C707EE903AFCEEE05AB6F8A8
:10B7B00028378CF8004007EE103A15EE903AF8EE74
:10B7C000655AF8EE677A86EE255ACCF814300123D4
:10B7D00086F82C3706EE102AB8EEC77A27EE822AB2
:10B7E000B8EE466A67EE266A22EE252A8CED025AEA
:10B7F000CCED017A8CED036ACCED046A002F96D073
:10B80000DFED8E7A9FED8E4ADFED8E5AC7EE871AF6
:10B81000C7EB0715A7EB07180CEBC5054FEAC808DF
:10B820004FF0000EB1EE611A9FED876A08EB05003C
:10B830009FED863ADFED863ADFED866A0346002209
:10B8400007EE902AB8EEE77A27EE027AFDEEC77A85
:10B8500017EE901A2031402900F2D080B4EEC47A5D
:10B86000F1EE10FAF0EE477A0CDDDFED7B4A9FED4A
:10B870007B5AF0EE672AF4EEC52AF1EE10FA77EE65
:10B88000E47AF6DCF4EEE57AF1EE10FA0CD5DFEDB1
:10B89000724A9FED735AF0EE672AF4EEC52AF1EE74
:10B8A00010FA77EEA47AF6D4F4EEC67AF1EE10FA36
:10B8B00040F39A8074EE677A27EEA75AB0EE630AD7
:10B8C000A5EE030ADFED674AE5EE004A65EE272A9A
:10B8D000B7EE005AE2EEA47AB0EE458AF0EE454AA1
:10B8E000A1EEA78AE1EE274AC5EE088A84EE880A0F
:10B8F00077EE067ABDEEE75A15EE101A2031402990
:10B900006FD8B4EEC67AF1EE10FA0CDD9FED525A04
:10B910009FED527AF0EE674AF4EEC74AF1EE10FA64
